{
  "_format": "hh-sol-artifact-1",
  "contractName": "Governor",
  "sourceName": "contracts/Module/Governor.sol",
  "abi": [
    {
      "inputs": [],
      "stateMutability": "nonpayable",
      "type": "constructor"
    },
    {
      "anonymous": false,
      "inputs": [
        {
          "indexed": false,
          "internalType": "address",
          "name": "oldAdmin",
          "type": "address"
        },
        {
          "indexed": false,
          "internalType": "address",
          "name": "newAdmin",
          "type": "address"
        }
      ],
      "name": "NewAdmin",
      "type": "event"
    },
    {
      "anonymous": false,
      "inputs": [
        {
          "indexed": false,
          "internalType": "address",
          "name": "oldImplementation",
          "type": "address"
        },
        {
          "indexed": false,
          "internalType": "address",
          "name": "newImplementation",
          "type": "address"
        }
      ],
      "name": "NewImplementation",
      "type": "event"
    },
    {
      "anonymous": false,
      "inputs": [
        {
          "indexed": false,
          "internalType": "address",
          "name": "oldPendingAdmin",
          "type": "address"
        },
        {
          "indexed": false,
          "internalType": "address",
          "name": "newPendingAdmin",
          "type": "address"
        }
      ],
      "name": "NewPendingAdmin",
      "type": "event"
    },
    {
      "anonymous": false,
      "inputs": [
        {
          "indexed": false,
          "internalType": "uint256",
          "name": "id",
          "type": "uint256"
        }
      ],
      "name": "ProposalCanceled",
      "type": "event"
    },
    {
      "anonymous": false,
      "inputs": [
        {
          "indexed": false,
          "internalType": "uint256",
          "name": "id",
          "type": "uint256"
        },
        {
          "indexed": false,
          "internalType": "address",
          "name": "proposer",
          "type": "address"
        },
        {
          "indexed": false,
          "internalType": "address[]",
          "name": "targets",
          "type": "address[]"
        },
        {
          "indexed": false,
          "internalType": "uint256[]",
          "name": "values",
          "type": "uint256[]"
        },
        {
          "indexed": false,
          "internalType": "string[]",
          "name": "signatures",
          "type": "string[]"
        },
        {
          "indexed": false,
          "internalType": "bytes[]",
          "name": "calldatas",
          "type": "bytes[]"
        },
        {
          "indexed": false,
          "internalType": "uint256",
          "name": "startBlock",
          "type": "uint256"
        },
        {
          "indexed": false,
          "internalType": "uint256",
          "name": "endBlock",
          "type": "uint256"
        },
        {
          "indexed": false,
          "internalType": "string",
          "name": "description",
          "type": "string"
        },
        {
          "indexed": false,
          "internalType": "string",
          "name": "strategyName",
          "type": "string"
        }
      ],
      "name": "ProposalCreated",
      "type": "event"
    },
    {
      "anonymous": false,
      "inputs": [
        {
          "indexed": false,
          "internalType": "uint256",
          "name": "id",
          "type": "uint256"
        }
      ],
      "name": "ProposalExecuted",
      "type": "event"
    },
    {
      "anonymous": false,
      "inputs": [
        {
          "indexed": false,
          "internalType": "uint256",
          "name": "id",
          "type": "uint256"
        },
        {
          "indexed": false,
          "internalType": "uint256",
          "name": "eta",
          "type": "uint256"
        }
      ],
      "name": "ProposalQueued",
      "type": "event"
    },
    {
      "anonymous": false,
      "inputs": [
        {
          "indexed": false,
          "internalType": "uint256",
          "name": "proposalThreshold",
          "type": "uint256"
        },
        {
          "indexed": false,
          "internalType": "uint256",
          "name": "votingPeriod",
          "type": "uint256"
        },
        {
          "indexed": false,
          "internalType": "uint256",
          "name": "votingDelay",
          "type": "uint256"
        },
        {
          "indexed": false,
          "internalType": "uint256",
          "name": "quorumVotes",
          "type": "uint256"
        },
        {
          "indexed": false,
          "internalType": "address",
          "name": "addr",
          "type": "address"
        },
        {
          "indexed": false,
          "internalType": "address",
          "name": "strategyReference",
          "type": "address"
        }
      ],
      "name": "StrategySet",
      "type": "event"
    },
    {
      "anonymous": false,
      "inputs": [
        {
          "indexed": true,
          "internalType": "address",
          "name": "voter",
          "type": "address"
        },
        {
          "indexed": false,
          "internalType": "uint256",
          "name": "proposalId",
          "type": "uint256"
        },
        {
          "indexed": false,
          "internalType": "uint8",
          "name": "support",
          "type": "uint8"
        },
        {
          "indexed": false,
          "internalType": "uint256",
          "name": "votes",
          "type": "uint256"
        },
        {
          "indexed": false,
          "internalType": "string",
          "name": "reason",
          "type": "string"
        }
      ],
      "name": "VoteCast",
      "type": "event"
    },
    {
      "anonymous": false,
      "inputs": [
        {
          "indexed": false,
          "internalType": "address",
          "name": "account",
          "type": "address"
        },
        {
          "indexed": false,
          "internalType": "uint256",
          "name": "expiration",
          "type": "uint256"
        }
      ],
      "name": "WhitelistAccountExpirationSet",
      "type": "event"
    },
    {
      "anonymous": false,
      "inputs": [
        {
          "indexed": false,
          "internalType": "address",
          "name": "oldGuardian",
          "type": "address"
        },
        {
          "indexed": false,
          "internalType": "address",
          "name": "newGuardian",
          "type": "address"
        }
      ],
      "name": "WhitelistGuardianSet",
      "type": "event"
    },
    {
      "inputs": [],
      "name": "BALLOT_TYPEHASH",
      "outputs": [
        {
          "internalType": "bytes32",
          "name": "",
          "type": "bytes32"
        }
      ],
      "stateMutability": "view",
      "type": "function"
    },
    {
      "inputs": [],
      "name": "DOMAIN_TYPEHASH",
      "outputs": [
        {
          "internalType": "bytes32",
          "name": "",
          "type": "bytes32"
        }
      ],
      "stateMutability": "view",
      "type": "function"
    },
    {
      "inputs": [],
      "name": "MAX_PROPOSAL_THRESHOLD",
      "outputs": [
        {
          "internalType": "uint256",
          "name": "",
          "type": "uint256"
        }
      ],
      "stateMutability": "view",
      "type": "function"
    },
    {
      "inputs": [],
      "name": "MAX_VOTING_DELAY",
      "outputs": [
        {
          "internalType": "uint256",
          "name": "",
          "type": "uint256"
        }
      ],
      "stateMutability": "view",
      "type": "function"
    },
    {
      "inputs": [],
      "name": "MAX_VOTING_PERIOD",
      "outputs": [
        {
          "internalType": "uint256",
          "name": "",
          "type": "uint256"
        }
      ],
      "stateMutability": "view",
      "type": "function"
    },
    {
      "inputs": [],
      "name": "MIN_PROPOSAL_THRESHOLD",
      "outputs": [
        {
          "internalType": "uint256",
          "name": "",
          "type": "uint256"
        }
      ],
      "stateMutability": "view",
      "type": "function"
    },
    {
      "inputs": [],
      "name": "MIN_VOTING_DELAY",
      "outputs": [
        {
          "internalType": "uint256",
          "name": "",
          "type": "uint256"
        }
      ],
      "stateMutability": "view",
      "type": "function"
    },
    {
      "inputs": [],
      "name": "MIN_VOTING_PERIOD",
      "outputs": [
        {
          "internalType": "uint256",
          "name": "",
          "type": "uint256"
        }
      ],
      "stateMutability": "view",
      "type": "function"
    },
    {
      "inputs": [],
      "name": "_acceptAdmin",
      "outputs": [],
      "stateMutability": "nonpayable",
      "type": "function"
    },
    {
      "inputs": [
        {
          "internalType": "address",
          "name": "newPendingAdmin",
          "type": "address"
        }
      ],
      "name": "_setPendingAdmin",
      "outputs": [],
      "stateMutability": "nonpayable",
      "type": "function"
    },
    {
      "inputs": [
        {
          "internalType": "address",
          "name": "account",
          "type": "address"
        },
        {
          "internalType": "uint256",
          "name": "expiration",
          "type": "uint256"
        }
      ],
      "name": "_setWhitelistAccountExpiration",
      "outputs": [],
      "stateMutability": "nonpayable",
      "type": "function"
    },
    {
      "inputs": [
        {
          "internalType": "address",
          "name": "account",
          "type": "address"
        }
      ],
      "name": "_setWhitelistGuardian",
      "outputs": [],
      "stateMutability": "nonpayable",
      "type": "function"
    },
    {
      "inputs": [],
      "name": "admin",
      "outputs": [
        {
          "internalType": "address",
          "name": "",
          "type": "address"
        }
      ],
      "stateMutability": "view",
      "type": "function"
    },
    {
      "inputs": [
        {
          "internalType": "address",
          "name": "newOwner",
          "type": "address"
        }
      ],
      "name": "afterControllerTransferOwnership",
      "outputs": [],
      "stateMutability": "nonpayable",
      "type": "function"
    },
    {
      "inputs": [
        {
          "internalType": "uint256",
          "name": "proposalId",
          "type": "uint256"
        }
      ],
      "name": "cancel",
      "outputs": [],
      "stateMutability": "nonpayable",
      "type": "function"
    },
    {
      "inputs": [
        {
          "internalType": "uint256",
          "name": "proposalId",
          "type": "uint256"
        },
        {
          "internalType": "uint8",
          "name": "support",
          "type": "uint8"
        }
      ],
      "name": "castVote",
      "outputs": [],
      "stateMutability": "nonpayable",
      "type": "function"
    },
    {
      "inputs": [
        {
          "internalType": "uint256",
          "name": "proposalId",
          "type": "uint256"
        },
        {
          "internalType": "uint8",
          "name": "support",
          "type": "uint8"
        },
        {
          "internalType": "uint8",
          "name": "v",
          "type": "uint8"
        },
        {
          "internalType": "bytes32",
          "name": "r",
          "type": "bytes32"
        },
        {
          "internalType": "bytes32",
          "name": "s",
          "type": "bytes32"
        }
      ],
      "name": "castVoteBySig",
      "outputs": [],
      "stateMutability": "nonpayable",
      "type": "function"
    },
    {
      "inputs": [
        {
          "internalType": "uint256",
          "name": "proposalId",
          "type": "uint256"
        },
        {
          "internalType": "uint8",
          "name": "support",
          "type": "uint8"
        },
        {
          "internalType": "string",
          "name": "reason",
          "type": "string"
        }
      ],
      "name": "castVoteWithReason",
      "outputs": [],
      "stateMutability": "nonpayable",
      "type": "function"
    },
    {
      "inputs": [
        {
          "internalType": "uint256",
          "name": "proposalId",
          "type": "uint256"
        }
      ],
      "name": "execute",
      "outputs": [],
      "stateMutability": "payable",
      "type": "function"
    },
    {
      "inputs": [
        {
          "internalType": "uint256",
          "name": "proposalId",
          "type": "uint256"
        }
      ],
      "name": "getActions",
      "outputs": [
        {
          "internalType": "address[]",
          "name": "targets",
          "type": "address[]"
        },
        {
          "internalType": "uint256[]",
          "name": "values",
          "type": "uint256[]"
        },
        {
          "internalType": "string[]",
          "name": "signatures",
          "type": "string[]"
        },
        {
          "internalType": "bytes[]",
          "name": "calldatas",
          "type": "bytes[]"
        }
      ],
      "stateMutability": "view",
      "type": "function"
    },
    {
      "inputs": [],
      "name": "getControllerAddr",
      "outputs": [
        {
          "internalType": "address",
          "name": "addr",
          "type": "address"
        }
      ],
      "stateMutability": "view",
      "type": "function"
    },
    {
      "inputs": [
        {
          "internalType": "uint256",
          "name": "proposalId",
          "type": "uint256"
        },
        {
          "internalType": "address",
          "name": "voter",
          "type": "address"
        }
      ],
      "name": "getReceipt",
      "outputs": [
        {
          "components": [
            {
              "internalType": "bool",
              "name": "hasVoted",
              "type": "bool"
            },
            {
              "internalType": "uint8",
              "name": "support",
              "type": "uint8"
            },
            {
              "internalType": "uint256",
              "name": "votes",
              "type": "uint256"
            }
          ],
          "internalType": "struct GovernorBravoDelegateStorageV1.Receipt",
          "name": "",
          "type": "tuple"
        }
      ],
      "stateMutability": "view",
      "type": "function"
    },
    {
      "inputs": [],
      "name": "implementation",
      "outputs": [
        {
          "internalType": "address",
          "name": "",
          "type": "address"
        }
      ],
      "stateMutability": "view",
      "type": "function"
    },
    {
      "inputs": [],
      "name": "initialProposalId",
      "outputs": [
        {
          "internalType": "uint256",
          "name": "",
          "type": "uint256"
        }
      ],
      "stateMutability": "view",
      "type": "function"
    },
    {
      "inputs": [
        {
          "internalType": "address",
          "name": "strategyReference_",
          "type": "address"
        },
        {
          "internalType": "address",
          "name": "strategy_",
          "type": "address"
        },
        {
          "internalType": "uint256",
          "name": "votingPeriod_",
          "type": "uint256"
        },
        {
          "internalType": "uint256",
          "name": "votingDelay_",
          "type": "uint256"
        },
        {
          "internalType": "uint256",
          "name": "proposalThreshold_",
          "type": "uint256"
        },
        {
          "internalType": "uint256",
          "name": "quorumVotes",
          "type": "uint256"
        },
        {
          "internalType": "uint256",
          "name": "timelockDelay",
          "type": "uint256"
        }
      ],
      "name": "initialize",
      "outputs": [],
      "stateMutability": "nonpayable",
      "type": "function"
    },
    {
      "inputs": [
        {
          "internalType": "address",
          "name": "account",
          "type": "address"
        }
      ],
      "name": "isWhitelisted",
      "outputs": [
        {
          "internalType": "bool",
          "name": "",
          "type": "bool"
        }
      ],
      "stateMutability": "view",
      "type": "function"
    },
    {
      "inputs": [
        {
          "internalType": "address",
          "name": "",
          "type": "address"
        }
      ],
      "name": "latestProposalIds",
      "outputs": [
        {
          "internalType": "uint256",
          "name": "",
          "type": "uint256"
        }
      ],
      "stateMutability": "view",
      "type": "function"
    },
    {
      "inputs": [],
      "name": "name",
      "outputs": [
        {
          "internalType": "string",
          "name": "",
          "type": "string"
        }
      ],
      "stateMutability": "view",
      "type": "function"
    },
    {
      "inputs": [],
      "name": "pendingAdmin",
      "outputs": [
        {
          "internalType": "address",
          "name": "",
          "type": "address"
        }
      ],
      "stateMutability": "view",
      "type": "function"
    },
    {
      "inputs": [],
      "name": "proposalCount",
      "outputs": [
        {
          "internalType": "uint256",
          "name": "",
          "type": "uint256"
        }
      ],
      "stateMutability": "view",
      "type": "function"
    },
    {
      "inputs": [],
      "name": "proposalMaxOperations",
      "outputs": [
        {
          "internalType": "uint256",
          "name": "",
          "type": "uint256"
        }
      ],
      "stateMutability": "view",
      "type": "function"
    },
    {
      "inputs": [
        {
          "internalType": "uint256",
          "name": "",
          "type": "uint256"
        }
      ],
      "name": "proposals",
      "outputs": [
        {
          "internalType": "uint256",
          "name": "id",
          "type": "uint256"
        },
        {
          "internalType": "address",
          "name": "proposer",
          "type": "address"
        },
        {
          "internalType": "uint256",
          "name": "eta",
          "type": "uint256"
        },
        {
          "internalType": "uint256",
          "name": "startBlock",
          "type": "uint256"
        },
        {
          "internalType": "uint256",
          "name": "endBlock",
          "type": "uint256"
        },
        {
          "internalType": "uint256",
          "name": "forVotes",
          "type": "uint256"
        },
        {
          "internalType": "uint256",
          "name": "againstVotes",
          "type": "uint256"
        },
        {
          "internalType": "uint256",
          "name": "abstainVotes",
          "type": "uint256"
        },
        {
          "internalType": "bool",
          "name": "canceled",
          "type": "bool"
        },
        {
          "internalType": "bool",
          "name": "executed",
          "type": "bool"
        },
        {
          "internalType": "string",
          "name": "description",
          "type": "string"
        },
        {
          "components": [
            {
              "internalType": "uint256",
              "name": "votingPeriod",
              "type": "uint256"
            },
            {
              "internalType": "uint256",
              "name": "votingDelay",
              "type": "uint256"
            },
            {
              "internalType": "uint256",
              "name": "proposalThreshold",
              "type": "uint256"
            },
            {
              "internalType": "uint256",
              "name": "quorumVotes",
              "type": "uint256"
            },
            {
              "internalType": "address",
              "name": "addr",
              "type": "address"
            },
            {
              "internalType": "address",
              "name": "strategyReference",
              "type": "address"
            }
          ],
          "internalType": "struct GovernorBravoDelegateStorageV1.Strategy",
          "name": "strategy",
          "type": "tuple"
        }
      ],
      "stateMutability": "view",
      "type": "function"
    },
    {
      "inputs": [
        {
          "internalType": "address[]",
          "name": "targets",
          "type": "address[]"
        },
        {
          "internalType": "uint256[]",
          "name": "values",
          "type": "uint256[]"
        },
        {
          "internalType": "string[]",
          "name": "signatures",
          "type": "string[]"
        },
        {
          "internalType": "bytes[]",
          "name": "calldatas",
          "type": "bytes[]"
        },
        {
          "internalType": "string",
          "name": "description",
          "type": "string"
        }
      ],
      "name": "propose",
      "outputs": [
        {
          "internalType": "uint256",
          "name": "",
          "type": "uint256"
        }
      ],
      "stateMutability": "nonpayable",
      "type": "function"
    },
    {
      "inputs": [
        {
          "internalType": "uint256",
          "name": "proposalId",
          "type": "uint256"
        }
      ],
      "name": "queue",
      "outputs": [],
      "stateMutability": "nonpayable",
      "type": "function"
    },
    {
      "inputs": [
        {
          "components": [
            {
              "internalType": "uint256",
              "name": "votingPeriod",
              "type": "uint256"
            },
            {
              "internalType": "uint256",
              "name": "votingDelay",
              "type": "uint256"
            },
            {
              "internalType": "uint256",
              "name": "proposalThreshold",
              "type": "uint256"
            },
            {
              "internalType": "uint256",
              "name": "quorumVotes",
              "type": "uint256"
            },
            {
              "internalType": "address",
              "name": "addr",
              "type": "address"
            },
            {
              "internalType": "address",
              "name": "strategyReference",
              "type": "address"
            }
          ],
          "internalType": "struct GovernorBravoDelegateStorageV1.Strategy",
          "name": "strategy_",
          "type": "tuple"
        }
      ],
      "name": "setStrategy",
      "outputs": [],
      "stateMutability": "nonpayable",
      "type": "function"
    },
    {
      "inputs": [
        {
          "internalType": "uint256",
          "name": "proposalId",
          "type": "uint256"
        }
      ],
      "name": "state",
      "outputs": [
        {
          "internalType": "enum GovernorBravoDelegateStorageV1.ProposalState",
          "name": "",
          "type": "uint8"
        }
      ],
      "stateMutability": "view",
      "type": "function"
    },
    {
      "inputs": [],
      "name": "strategy",
      "outputs": [
        {
          "internalType": "uint256",
          "name": "votingPeriod",
          "type": "uint256"
        },
        {
          "internalType": "uint256",
          "name": "votingDelay",
          "type": "uint256"
        },
        {
          "internalType": "uint256",
          "name": "proposalThreshold",
          "type": "uint256"
        },
        {
          "internalType": "uint256",
          "name": "quorumVotes",
          "type": "uint256"
        },
        {
          "internalType": "address",
          "name": "addr",
          "type": "address"
        },
        {
          "internalType": "address",
          "name": "strategyReference",
          "type": "address"
        }
      ],
      "stateMutability": "view",
      "type": "function"
    },
    {
      "inputs": [],
      "name": "timelock",
      "outputs": [
        {
          "internalType": "contract TimelockInterface",
          "name": "",
          "type": "address"
        }
      ],
      "stateMutability": "view",
      "type": "function"
    },
    {
      "inputs": [
        {
          "internalType": "address",
          "name": "",
          "type": "address"
        }
      ],
      "name": "whitelistAccountExpirations",
      "outputs": [
        {
          "internalType": "uint256",
          "name": "",
          "type": "uint256"
        }
      ],
      "stateMutability": "view",
      "type": "function"
    },
    {
      "inputs": [],
      "name": "whitelistGuardian",
      "outputs": [
        {
          "internalType": "address",
          "name": "",
          "type": "address"
        }
      ],
      "stateMutability": "view",
      "type": "function"
    }
  ],
  "bytecode": "0x608060405234801561001057600080fd5b506155e0806100206000396000f3fe608060405260043610620002f35760003560e01c8063870d8504116200018b578063ddf0b00911620000db578063edbf4ac21162000089578063fc4eee42116200006c578063fc4eee42146200091e578063fcac77631462000936578063fe0d94c1146200095857600080fd5b8063edbf4ac214620008d7578063f851a44014620008fc57600080fd5b8063e23a9a5211620000be578063e23a9a521462000872578063e48083fe1462000630578063e9c714f214620008bf57600080fd5b8063ddf0b0091462000817578063deaaa7cc146200083c57600080fd5b8063b71d1a0c1162000139578063d33219b4116200011c578063d33219b414620007b8578063da35c66414620007da578063da95691a14620007f257600080fd5b8063b71d1a0c1462000771578063c5a8425d146200079657600080fd5b8063a64e024a116200016e578063a64e024a14620006cd578063a8c62e7614620006e6578063b1126263146200075957600080fd5b8063870d850414620006835780639953336514620006a857600080fd5b80633bccf4fd11620002475780635c60da1b11620001f5578063791f5d2311620001d8578063791f5d2314620006305780637b3c71d314620006475780637bdbe4d0146200066c57600080fd5b80635c60da1b14620005ee5780635f7822ba146200061057600080fd5b806340e58ee5116200022a57806340e58ee5146200057f5780634d6733d214620005a45780635678138814620005c957600080fd5b80633bccf4fd14620005245780633e4f49e6146200054b57600080fd5b806325fd935a11620002a5578063328dd9821162000288578063328dd982146200046f57806338bd0dda14620004a65780633af32abf14620004d757600080fd5b806325fd935a146200041457806326782247146200043457600080fd5b806317977c6111620002da57806317977c61146200038657806320606b7014620003c6578063215809ca14620003fc57600080fd5b8063013cf08b14620002f857806306fdde031462000340575b600080fd5b3480156200030557600080fd5b506200031d620003173660046200381b565b6200096f565b604051620003379c9b9a9998979695949392919062003896565b60405180910390f35b3480156200034d57600080fd5b5062000377604051806040016040528060098152602001681023b7bb32b93737b960b91b81525081565b60405162000337919062003951565b3480156200039357600080fd5b50620003b7620003a53660046200397c565b60076020526000908152604090205481565b60405190815260200162000337565b348015620003d357600080fd5b50620003b77f8cad95687ba82c2ce50e74f7b754645e5117c3a5bec8151c0726d5857980a86681565b3480156200040957600080fd5b50620003b761168081565b3480156200042157600080fd5b50620003b769152d02c7e14af680000081565b3480156200044157600080fd5b5060015462000456906001600160a01b031681565b6040516001600160a01b03909116815260200162000337565b3480156200047c57600080fd5b50620004946200048e3660046200381b565b62000ac3565b60405162000337949392919062003a6d565b348015620004b357600080fd5b50620003b7620004c53660046200397c565b60086020526000908152604090205481565b348015620004e457600080fd5b5062000513620004f63660046200397c565b6001600160a01b0316600090815260086020526040902054421090565b604051901515815260200162000337565b3480156200053157600080fd5b50620005496200054336600462003ae4565b62000d6c565b005b3480156200055857600080fd5b50620005706200056a3660046200381b565b62001004565b60405162000337919062003b4d565b3480156200058c57600080fd5b50620005496200059e3660046200381b565b620011e5565b348015620005b157600080fd5b5062000549620005c336600462003b76565b62001715565b348015620005d657600080fd5b5062000549620005e836600462003ba5565b620017ff565b348015620005fb57600080fd5b5060025462000456906001600160a01b031681565b3480156200061d57600080fd5b506015546001600160a01b031662000456565b3480156200063d57600080fd5b50620003b7600081565b3480156200065457600080fd5b50620005496200066636600462003bd4565b62001863565b3480156200067957600080fd5b50620003b7600a81565b3480156200069057600080fd5b5062000549620006a236600462003c62565b620018b7565b348015620006b557600080fd5b5062000549620006c73660046200397c565b62001997565b348015620006da57600080fd5b50620003b762013b0081565b348015620006f357600080fd5b50600f546010546011546012546013546014546200071f95949392916001600160a01b03908116911686565b6040805196875260208701959095529385019290925260608401526001600160a01b0390811660808401521660a082015260c00162000337565b3480156200076657600080fd5b50620003b7619d8081565b3480156200077e57600080fd5b5062000549620007903660046200397c565b62001a74565b348015620007a357600080fd5b5060095462000456906001600160a01b031681565b348015620007c557600080fd5b5060055462000456906001600160a01b031681565b348015620007e757600080fd5b50620003b760045481565b348015620007ff57600080fd5b50620003b76200081136600462003f7b565b62001b51565b3480156200082457600080fd5b5062000549620008363660046200381b565b62002385565b3480156200084957600080fd5b50620003b77f150214d74d59b7d1e90c73fc22ef3d991dd0a76b046543d4d80ab92d2a50328f81565b3480156200087f57600080fd5b5062000897620008913660046200405d565b62002705565b6040805182511515815260208084015160ff1690820152918101519082015260600162000337565b348015620008cc57600080fd5b5062000549620027af565b348015620008e457600080fd5b5062000549620008f636600462004090565b620028ec565b3480156200090957600080fd5b5060005462000456906001600160a01b031681565b3480156200092b57600080fd5b50620003b760035481565b3480156200094357600080fd5b5062000549620009553660046200397c565b50565b62000549620009693660046200381b565b62002d0c565b60066020819052600091825260409091208054600182015460028301546003840154600485015460058601549686015460078701546008880154600989018054989a6001600160a01b039098169996989597949694959394929360ff8084169461010090940416929190620009e490620040f7565b80601f016020809104026020016040519081016040528092919081815260200182805462000a1290620040f7565b801562000a635780601f1062000a375761010080835404028352916020019162000a63565b820191906000526020600020905b81548152906001019060200180831162000a4557829003601f168201915b50506040805160c081018252600a8701548152600b8701546020820152600c87015491810191909152600d8601546060820152600e8601546001600160a01b039081166080830152600f9096015490951660a086015250919291508d9050565b6000818152600a60209081526040808320600b8352818420600c8452828520600d855294839020825484518187028101870190955280855260609687968796879695949293909186919083018282801562000b4857602002820191906000526020600020905b81546001600160a01b0316815260019091019060200180831162000b29575b505050505093508280548060200260200160405190810160405280929190818152602001828054801562000b9c57602002820191906000526020600020905b81548152602001906001019080831162000b87575b5050505050925081805480602002602001604051908101604052809291908181526020016000905b8282101562000c7a57838290600052602060002001805462000be690620040f7565b80601f016020809104026020016040519081016040528092919081815260200182805462000c1490620040f7565b801562000c655780601f1062000c395761010080835404028352916020019162000c65565b820191906000526020600020905b81548152906001019060200180831162000c4757829003601f168201915b50505050508152602001906001019062000bc4565b50505050915080805480602002602001604051908101604052809291908181526020016000905b8282101562000d5757838290600052602060002001805462000cc390620040f7565b80601f016020809104026020016040519081016040528092919081815260200182805462000cf190620040f7565b801562000d425780601f1062000d165761010080835404028352916020019162000d42565b820191906000526020600020905b81548152906001019060200180831162000d2457829003601f168201915b50505050508152602001906001019062000ca1565b50505050905093509350935093509193509193565b60408051808201825260098152681023b7bb32b93737b960b91b60209182015281517f8cad95687ba82c2ce50e74f7b754645e5117c3a5bec8151c0726d5857980a866818301527fc0ffcbb4125cd493417d8b6b21a3cb875a81d7bebc8f023d8ff6df0bca7f94c181840152466060820152306080808301919091528351808303909101815260a0820184528051908301207f150214d74d59b7d1e90c73fc22ef3d991dd0a76b046543d4d80ab92d2a50328f60c083015260e0820189905260ff881661010080840191909152845180840390910181526101208301909452835193909201929092207f19010000000000000000000000000000000000000000000000000000000000006101408401526101428301829052610162830181905290916000906101820160408051601f198184030181528282528051602091820120600080855291840180845281905260ff8a169284019290925260608301889052608083018790529092509060019060a0016020604051602081039080840390855afa15801562000f01573d6000803e3d6000fd5b5050604051601f1901519150506001600160a01b03811662000f905760405162461bcd60e51b815260206004820152602a60248201527f476f7665726e6f723a3a63617374566f746542795369673a20696e76616c696460448201527f207369676e61747572650000000000000000000000000000000000000000000060648201526084015b60405180910390fd5b806001600160a01b03167fb8e138887d0aa13bab447e82de9d5c1777041ecd21ca36ba824ff1e6c07ddda48a8a62000fca858e8e62002fa9565b6040805193845260ff90921660208401529082015260806060820181905260009082015260a00160405180910390a2505050505050505050565b60008160045410156200107f5760405162461bcd60e51b8152602060048201526024808201527f476f7665726e6f723a3a73746174653a20696e76616c69642070726f706f736160448201527f6c20696400000000000000000000000000000000000000000000000000000000606482015260840162000f87565b6000828152600660205260409020600881015460ff1615620010a45750600292915050565b80600301544311620010b95750600092915050565b80600401544311620010ce5750600192915050565b80600601548160050154111580620010ed57506005810154600d820154115b15620010fc5750600392915050565b8060020154600003620011125750600492915050565b6008810154610100900460ff16156200112e5750600792915050565b6002810154600554604080517fc1a287e20000000000000000000000000000000000000000000000000000000081529051620011c693926001600160a01b03169163c1a287e29160048083019260209291908290030181865afa1580156200119a573d6000803e3d6000fd5b505050506040513d601f19601f82011682018060405250810190620011c091906200412d565b620032e9565b4210620011d65750600692915050565b50600592915050565b50919050565b6007620011f28262001004565b600781111562001206576200120662003b37565b036200127b5760405162461bcd60e51b815260206004820152603160248201527f476f7665726e6f723a3a63616e63656c3a2063616e6e6f742063616e63656c2060448201527f65786563757465642070726f706f73616c000000000000000000000000000000606482015260840162000f87565b600081815260066020526040902060018101546001600160a01b03163314620015605760018101546001600160a01b03166000908152600860205260409020544210156200142057600c810154600e820154600f8301546001808501546001600160a01b0393841693639e2ea51993811692911690620012fd9043906200334c565b6040517fffffffff0000000000000000000000000000000000000000000000000000000060e086901b1681526001600160a01b0393841660048201529290911660248301526044820152606401602060405180830381865afa15801562001368573d6000803e3d6000fd5b505050506040513d601f19601f820116820180604052508101906200138e91906200412d565b108015620013a657506009546001600160a01b031633145b6200141a5760405162461bcd60e51b815260206004820152602660248201527f476f7665726e6f723a3a63616e63656c3a2077686974656c697374656420707260448201527f6f706f7365720000000000000000000000000000000000000000000000000000606482015260840162000f87565b62001560565b600c810154600e820154600f8301546001808501546001600160a01b0393841693639e2ea519938116929116906200145a9043906200334c565b6040517fffffffff0000000000000000000000000000000000000000000000000000000060e086901b1681526001600160a01b0393841660048201529290911660248301526044820152606401602060405180830381865afa158015620014c5573d6000803e3d6000fd5b505050506040513d601f19601f82011682018060405250810190620014eb91906200412d565b10620015605760405162461bcd60e51b815260206004820152602a60248201527f476f7665726e6f723a3a63616e63656c3a2070726f706f7365722061626f766560448201527f207468726573686f6c6400000000000000000000000000000000000000000000606482015260840162000f87565b60088101805460ff1916600117905560005b6000838152600a6020526040902054811015620016dc576005546000848152600a6020526040902080546001600160a01b039092169163591fcdfe919084908110620015c257620015c262004147565b6000918252602080832090910154878352600b909152604090912080546001600160a01b039092169185908110620015fe57620015fe62004147565b9060005260206000200154600c6000888152602001908152602001600020858154811062001630576200163062004147565b90600052602060002001600d6000898152602001908152602001600020868154811062001661576200166162004147565b9060005260206000200187600201546040518663ffffffff1660e01b81526004016200169295949392919062004205565b600060405180830381600087803b158015620016ad57600080fd5b505af1158015620016c2573d6000803e3d6000fd5b505050508080620016d3906200426c565b91505062001572565b506040518281527f789cf55be980739dad1d0699b93b58e806b51c9d96619bfa8fe0a28abaa7b30c906020015b60405180910390a15050565b6000546001600160a01b03163314806200173957506009546001600160a01b031633145b620017ad5760405162461bcd60e51b815260206004820152603460248201527f476f7665726e6f723a3a5f73657457686974656c6973744163636f756e74457860448201527f7069726174696f6e3a2061646d696e206f6e6c79000000000000000000000000606482015260840162000f87565b6001600160a01b038216600081815260086020908152604091829020849055815192835282018390527f4e7b7545bc5744d0e30425959f4687475774b6c7edad77d24cb51c7d967d4515910162001709565b337fb8e138887d0aa13bab447e82de9d5c1777041ecd21ca36ba824ff1e6c07ddda483836200183084838362002fa9565b6040805193845260ff90921660208401529082015260806060820181905260009082015260a00160405180910390a25050565b337fb8e138887d0aa13bab447e82de9d5c1777041ecd21ca36ba824ff1e6c07ddda485856200189484838362002fa9565b8686604051620018a995949392919062004288565b60405180910390a250505050565b6005546001600160a01b03163314620019135760405162461bcd60e51b815260206004820152601e60248201527f6f6e6c792074696d656c6f636b2063616e207365742073747261746567790000604482015260640162000f87565b80600f620019228282620042cf565b5050601154600f546010546012546013546014546040805196875260208701959095529385019290925260608401526001600160a01b0390811660808401521660a08201527f71a8acdc0bc12cbbbaffcda1fe2a08d0dfd5cee5c4c974a192eb2e65b486cab29060c00160405180910390a150565b6000546001600160a01b0316331462001a195760405162461bcd60e51b815260206004820152602b60248201527f476f7665726e6f723a3a5f73657457686974656c697374477561726469616e3a60448201527f2061646d696e206f6e6c79000000000000000000000000000000000000000000606482015260840162000f87565b600980546001600160a01b038381166001600160a01b031983168117909355604080519190921680825260208201939093527f80a07e73e552148844a9c216d9724212d609cfa54e9c1a2e97203bdd2c4ad341910162001709565b6000546001600160a01b0316331462001af65760405162461bcd60e51b815260206004820152602560248201527f476f7665726e6f723a5f73657450656e64696e6741646d696e3a2061646d696e60448201527f206f6e6c79000000000000000000000000000000000000000000000000000000606482015260840162000f87565b600180546001600160a01b038381166001600160a01b031983168117909355604080519190921680825260208201939093527fca4f2f25d0898edd99413412fb94012f9e54ec8142f9b093e7720646a95b16a9910162001709565b601154601354601454600092916001600160a01b0390811691639e2ea51991163362001b7f4360016200334c565b6040517fffffffff0000000000000000000000000000000000000000000000000000000060e086901b1681526001600160a01b0393841660048201529290911660248301526044820152606401602060405180830381865afa15801562001bea573d6000803e3d6000fd5b505050506040513d601f19601f8201168201806040525081019062001c1091906200412d565b118062001c2b57503360009081526008602052604090205442105b62001c9f5760405162461bcd60e51b815260206004820152603a60248201527f476f7665726e6f723a3a70726f706f73653a2070726f706f73657220766f746560448201527f732062656c6f772070726f706f73616c207468726573686f6c64000000000000606482015260840162000f87565b8451865114801562001cb2575083518651145b801562001cc0575082518651145b62001d345760405162461bcd60e51b815260206004820152603f60248201527f476f7665726e6f723a3a70726f706f73653a2070726f706f73616c2066756e6360448201527f74696f6e20696e666f726d6174696f6e206172697479206d69736d6174636800606482015260840162000f87565b855160000362001dad5760405162461bcd60e51b815260206004820152602760248201527f476f7665726e6f723a3a70726f706f73653a206d7573742070726f766964652060448201527f616374696f6e7300000000000000000000000000000000000000000000000000606482015260840162000f87565b600a8651111562001e275760405162461bcd60e51b815260206004820152602360248201527f476f7665726e6f723a3a70726f706f73653a20746f6f206d616e79206163746960448201527f6f6e730000000000000000000000000000000000000000000000000000000000606482015260840162000f87565b33600090815260076020526040902054801562001fb357600062001e4b8262001004565b9050600181600781111562001e645762001e6462003b37565b0362001eff5760405162461bcd60e51b815260206004820152605360248201527f476f7665726e6f723a3a70726f706f73653a206f6e65206c6976652070726f7060448201527f6f73616c207065722070726f706f7365722c20666f756e6420616e20616c726560648201527f616479206163746976652070726f706f73616c00000000000000000000000000608482015260a40162000f87565b600081600781111562001f165762001f1662003b37565b0362001fb15760405162461bcd60e51b815260206004820152605460248201527f476f7665726e6f723a3a70726f706f73653a206f6e65206c6976652070726f7060448201527f6f73616c207065722070726f706f7365722c20666f756e6420616e20616c726560648201527f6164792070656e64696e672070726f706f73616c000000000000000000000000608482015260a40162000f87565b505b600062001fc643600f60010154620032e9565b9050600062001fdb82600f60000154620032e9565b60048054919250600062001fef836200426c565b909155505060408051610180810182526004548082523360208084019190915260008385018190526060808501889052608080860188905260a080870184905260c080880185905260e088018590526101008801859052610120880185905261014088018e905288519081018952600f54815260105481870152601154818a0152601254938101939093526013546001600160a01b039081169284019290925260145490911690820152610160850152918252600a81529290208b519192620020bc92908d019062003591565b506004546000908152600b602090815260409091208a51620020e1928c0190620035fb565b506004546000908152600c60209081526040909120895162002106928b019062003639565b506004546000908152600d6020908152604090912088516200212b928a019062003699565b50805160009081526006602081815260409283902084518155818501516001820180546001600160a01b0319166001600160a01b03909216919091179055928401516002840155606084015160038401556080840151600484015560a0840151600584015560c08401519183019190915560e083015160078301556101008084015160088401805461012087015161ffff1990911692151561ff001916929092179115159092021790556101408301518051849392620021f3926009850192910190620036f9565b5061016082015181600a016000820151816000015560208201518160010155604082015181600201556060820151816003015560808201518160040160006101000a8154816001600160a01b0302191690836001600160a01b0316021790555060a08201518160050160006101000a8154816001600160a01b0302191690836001600160a01b03160217905550505090505080600001516007600083602001516001600160a01b03166001600160a01b03168152602001908152602001600020819055507fb88787ccad609a4d41058c8a0928927dd2516296c139d218d1e9131c2c219bd38160000151338c8c8c8c89898e8a6101600151608001516001600160a01b03166306fdde036040518163ffffffff1660e01b8152600401600060405180830381865afa1580156200232d573d6000803e3d6000fd5b505050506040513d6000823e601f3d908101601f1916820160405262002357919081019062004387565b6040516200236f9a99989796959493929190620043dd565b60405180910390a1519998505050505050505050565b6004620023928262001004565b6007811115620023a657620023a662003b37565b146200241b5760405162461bcd60e51b815260206004820152603f60248201527f476f7665726e6f723a3a71756575653a2070726f706f73616c2063616e206f6e60448201527f6c79206265207175657565642069662069742069732073756363656564656400606482015260840162000f87565b600081815260066020908152604080832060055482517f6a42b8f80000000000000000000000000000000000000000000000000000000081529251919493620024959342936001600160a01b0390931692636a42b8f8926004808401939192918290030181865afa1580156200119a573d6000803e3d6000fd5b905060005b6000848152600a6020526040902054811015620026bf576000848152600a602052604090208054620026aa919083908110620024da57620024da62004147565b6000918252602080832090910154878352600b909152604090912080546001600160a01b03909216918490811062002516576200251662004147565b9060005260206000200154600c6000888152602001908152602001600020848154811062002548576200254862004147565b9060005260206000200180546200255f90620040f7565b80601f01602080910402602001604051908101604052809291908181526020018280546200258d90620040f7565b8015620025de5780601f10620025b257610100808354040283529160200191620025de565b820191906000526020600020905b815481529060010190602001808311620025c057829003601f168201915b50505060008a8152600d602052604090208054909250879150811062002608576200260862004147565b9060005260206000200180546200261f90620040f7565b80601f01602080910402602001604051908101604052809291908181526020018280546200264d90620040f7565b80156200269e5780601f1062002672576101008083540402835291602001916200269e565b820191906000526020600020905b8154815290600101906020018083116200268057829003601f168201915b505050505086620033ac565b80620026b6816200426c565b9150506200249a565b506002820181905560408051848152602081018390527f9a2e42fd6722813d69113e7d0079d3d940171428df7373df9c7f7617cfda2892910160405180910390a1505050565b6040805160608101825260008082526020820181905291810191909152600e600084846040516020016200275592919091825260601b6bffffffffffffffffffffffff1916602082015260340190565b60408051808303601f1901815291815281516020928301208352828201939093529082016000208251606081018452815460ff80821615158352610100909104169281019290925260010154918101919091529392505050565b6001546001600160a01b031633148015620027c957503315155b6200283d5760405162461bcd60e51b815260206004820152602960248201527f476f7665726e6f723a5f61636365707441646d696e3a2070656e64696e67206160448201527f646d696e206f6e6c790000000000000000000000000000000000000000000000606482015260840162000f87565b60008054600180546001600160a01b038082166001600160a01b031980861682179096559490911690915560408051919092168082526020820184905292917ff9ffabca9c8276e99321725bcb43fb076a6c66a54b7f21c4e8146d8519b417dc910160405180910390a1600154604080516001600160a01b03808516825290921660208301527fca4f2f25d0898edd99413412fb94012f9e54ec8142f9b093e7720646a95b16a9910162001709565b6005546001600160a01b0316156200296d5760405162461bcd60e51b815260206004820152602e60248201527f476f7665726e6f723a3a696e697469616c697a653a2063616e206f6e6c79206960448201527f6e697469616c697a65206f6e6365000000000000000000000000000000000000606482015260840162000f87565b6001600160a01b038716620029eb5760405162461bcd60e51b815260206004820152602b60248201527f476f7665726e6f723a3a696e697469616c697a653a20696e76616c696420746f60448201527f6b656e2061646472657373000000000000000000000000000000000000000000606482015260840162000f87565b6001600160a01b03861662002a695760405162461bcd60e51b815260206004820152602e60248201527f476f7665726e6f723a3a696e697469616c697a653a20696e76616c696420737460448201527f7261746567792061646472657373000000000000000000000000000000000000606482015260840162000f87565b611680851015801562002a7f575062013b008511155b62002af35760405162461bcd60e51b815260206004820152602b60248201527f476f7665726e6f723a3a696e697469616c697a653a20696e76616c696420766f60448201527f74696e6720706572696f64000000000000000000000000000000000000000000606482015260840162000f87565b619d8084111562002b6d5760405162461bcd60e51b815260206004820152602a60248201527f476f7665726e6f723a3a696e697469616c697a653a20696e76616c696420766f60448201527f74696e672064656c617900000000000000000000000000000000000000000000606482015260840162000f87565b69152d02c7e14af680000083111562002bef5760405162461bcd60e51b815260206004820152603060248201527f476f7665726e6f723a3a696e697469616c697a653a20696e76616c696420707260448201527f6f706f73616c207468726573686f6c6400000000000000000000000000000000606482015260840162000f87565b308160405162002bff9062003775565b6001600160a01b0390921682526020820152604001604051809103906000f08015801562002c31573d6000803e3d6000fd5b50600580546001600160a01b03199081166001600160a01b03938416179091556040805160c0808201835289825260208083018a905282840189905260608084018990528c87166080808601829052978f1660a0958601819052600f8e905560108d905560118c905560128b90556013805489168317905560148054909816811790975585518b81529283018d90529482018b90528101889052948501929092528301919091527f71a8acdc0bc12cbbbaffcda1fe2a08d0dfd5cee5c4c974a192eb2e65b486cab2910160405180910390a150505050505050565b600562002d198262001004565b600781111562002d2d5762002d2d62003b37565b1462002da4576040805162461bcd60e51b81526020600482015260248101919091527f476f7665726e6f723a3a657865637574653a2070726f706f73616c2063616e2060448201527f6f6e6c7920626520657865637574656420696620697420697320717565756564606482015260840162000f87565b600081815260066020526040812060088101805461ff001916610100179055905b6000838152600a602052604090205481101562002f77576005546000848152600b6020526040902080546001600160a01b0390921691630825f38f91908490811062002e155762002e1562004147565b9060005260206000200154600a6000878152602001908152602001600020848154811062002e475762002e4762004147565b6000918252602080832090910154888352600b909152604090912080546001600160a01b03909216918690811062002e835762002e8362004147565b9060005260206000200154600c6000898152602001908152602001600020868154811062002eb55762002eb562004147565b90600052602060002001600d60008a8152602001908152602001600020878154811062002ee65762002ee662004147565b9060005260206000200188600201546040518763ffffffff1660e01b815260040162002f1795949392919062004205565b60006040518083038185885af115801562002f36573d6000803e3d6000fd5b50505050506040513d6000823e601f3d908101601f1916820160405262002f61919081019062004387565b508062002f6e816200426c565b91505062002dc5565b506040518281527f712ae1383f79ac853f8d882153778e0260ef8f03b504e2866e0593e04d2b291f9060200162001709565b6000600162002fb88462001004565b600781111562002fcc5762002fcc62003b37565b14620030415760405162461bcd60e51b815260206004820152602c60248201527f476f7665726e6f723a3a63617374566f7465496e7465726e616c3a20766f746960448201527f6e6720697320636c6f7365640000000000000000000000000000000000000000606482015260840162000f87565b60028260ff161115620030bd5760405162461bcd60e51b815260206004820152602d60248201527f476f7665726e6f723a3a63617374566f7465496e7465726e616c3a20696e766160448201527f6c696420766f7465207479706500000000000000000000000000000000000000606482015260840162000f87565b60008381526006602090815260408083209051909291600e918391620031029189918b910191825260601b6bffffffffffffffffffffffff1916602082015260340190565b60408051601f19818403018152918152815160209283012083529082019290925201600020805490915060ff1615620031a45760405162461bcd60e51b815260206004820152602f60248201527f476f7665726e6f723a3a63617374566f7465496e7465726e616c3a20766f746560448201527f7220616c726561647920766f7465640000000000000000000000000000000000606482015260840162000f87565b600e820154600f83015460038401546040517f9e2ea5190000000000000000000000000000000000000000000000000000000081526001600160a01b039283166004820152898316602482015260448101919091526000929190911690639e2ea51990606401602060405180830381865afa15801562003228573d6000803e3d6000fd5b505050506040513d601f19601f820116820180604052508101906200324e91906200412d565b90508460ff1660000362003277576200326c836006015482620032e9565b6006840155620032c0565b8460ff166001036200329e5762003293836005015482620032e9565b6005840155620032c0565b8460ff16600203620032c057620032ba836007015482620032e9565b60078401555b8154600161ffff1990911661010060ff88160217811783559091018190559150505b9392505050565b600080620032f8838562004495565b905083811015620032e25760405162461bcd60e51b815260206004820152601160248201527f6164646974696f6e206f766572666c6f77000000000000000000000000000000604482015260640162000f87565b600082821115620033a05760405162461bcd60e51b815260206004820152601560248201527f7375627472616374696f6e20756e646572666c6f770000000000000000000000604482015260640162000f87565b620032e28284620044b0565b6005546040516001600160a01b039091169063f2b0653790620033dc9088908890889088908890602001620044ca565b604051602081830303815290604052805190602001206040518263ffffffff1660e01b81526004016200341191815260200190565b602060405180830381865afa1580156200342f573d6000803e3d6000fd5b505050506040513d601f19601f8201168201806040525081019062003455919062004508565b15620034f05760405162461bcd60e51b815260206004820152605060248201527f476f7665726e6f723a3a71756575654f72526576657274496e7465726e616c3a60448201527f206964656e746963616c2070726f706f73616c20616374696f6e20616c72656160648201527f6479207175657565642061742065746100000000000000000000000000000000608482015260a40162000f87565b6005546040517f3a66f9010000000000000000000000000000000000000000000000000000000081526001600160a01b0390911690633a66f90190620035439088908890889088908890600401620044ca565b6020604051808303816000875af115801562003563573d6000803e3d6000fd5b505050506040513d601f19601f820116820180604052508101906200358991906200412d565b505050505050565b828054828255906000526020600020908101928215620035e9579160200282015b82811115620035e957825182546001600160a01b0319166001600160a01b03909116178255602090920191600190910190620035b2565b50620035f792915062003783565b5090565b828054828255906000526020600020908101928215620035e9579160200282015b82811115620035e95782518255916020019190600101906200361c565b8280548282559060005260206000209081019282156200368b579160200282015b828111156200368b57825180516200367a918491602090910190620036f9565b50916020019190600101906200365a565b50620035f79291506200379a565b828054828255906000526020600020908101928215620036eb579160200282015b82811115620036eb5782518051620036da918491602090910190620036f9565b5091602001919060010190620036ba565b50620035f7929150620037bb565b8280546200370790620040f7565b90600052602060002090601f0160209004810192826200372b5760008555620035e9565b82601f106200374657805160ff1916838001178555620035e9565b82800160010185558215620035e95791820182811115620035e95782518255916020019190600101906200361c565b61107e806200452d83390190565b5b80821115620035f7576000815560010162003784565b80821115620035f7576000620037b18282620037dc565b506001016200379a565b80821115620035f7576000620037d28282620037dc565b50600101620037bb565b508054620037ea90620040f7565b6000825580601f10620037fb575050565b601f01602090049060005260206000209081019062000955919062003783565b6000602082840312156200382e57600080fd5b5035919050565b60005b838110156200385257818101518382015260200162003838565b8381111562003862576000848401525b50505050565b600081518084526200388281602086016020860162003835565b601f01601f19169290920160200192915050565b60006102208e83526001600160a01b03808f1660208501528d60408501528c60608501528b60808501528a60a08501528960c08501528860e085015287151561010085015286151561012085015281610140850152620038f98285018762003868565b92508451610160850152602085015161018085015260408501516101a085015260608501516101c0850152806080860151166101e08501528060a08601511661020085015250509d9c50505050505050505050505050565b602081526000620032e2602083018462003868565b6001600160a01b03811681146200095557600080fd5b6000602082840312156200398f57600080fd5b8135620032e28162003966565b600081518084526020808501945080840160005b83811015620039d75781516001600160a01b031687529582019590820190600101620039b0565b509495945050505050565b600081518084526020808501945080840160005b83811015620039d757815187529582019590820190600101620039f6565b600081518084526020808501808196508360051b8101915082860160005b8581101562003a6057828403895262003a4d84835162003868565b9885019893509084019060010162003a32565b5091979650505050505050565b60808152600062003a8260808301876200399c565b828103602084015262003a968187620039e2565b9050828103604084015262003aac818662003a14565b9050828103606084015262003ac2818562003a14565b979650505050505050565b803560ff8116811462003adf57600080fd5b919050565b600080600080600060a0868803121562003afd57600080fd5b8535945062003b0f6020870162003acd565b935062003b1f6040870162003acd565b94979396509394606081013594506080013592915050565b634e487b7160e01b600052602160045260246000fd5b602081016008831062003b7057634e487b7160e01b600052602160045260246000fd5b91905290565b6000806040838503121562003b8a57600080fd5b823562003b978162003966565b946020939093013593505050565b6000806040838503121562003bb957600080fd5b8235915062003bcb6020840162003acd565b90509250929050565b6000806000806060858703121562003beb57600080fd5b8435935062003bfd6020860162003acd565b9250604085013567ffffffffffffffff8082111562003c1b57600080fd5b818701915087601f83011262003c3057600080fd5b81358181111562003c4057600080fd5b88602082850101111562003c5357600080fd5b95989497505060200194505050565b600060c08284031215620011df57600080fd5b634e487b7160e01b600052604160045260246000fd5b604051601f8201601f1916810167ffffffffffffffff8111828210171562003cb75762003cb762003c75565b604052919050565b600067ffffffffffffffff82111562003cdc5762003cdc62003c75565b5060051b60200190565b600082601f83011262003cf857600080fd5b8135602062003d1162003d0b8362003cbf565b62003c8b565b82815260059290921b8401810191818101908684111562003d3157600080fd5b8286015b8481101562003d5957803562003d4b8162003966565b835291830191830162003d35565b509695505050505050565b600082601f83011262003d7657600080fd5b8135602062003d8962003d0b8362003cbf565b82815260059290921b8401810191818101908684111562003da957600080fd5b8286015b8481101562003d59578035835291830191830162003dad565b600067ffffffffffffffff82111562003de35762003de362003c75565b50601f01601f191660200190565b600062003e0262003d0b8462003dc6565b905082815283838301111562003e1757600080fd5b828260208301376000602084830101529392505050565b600082601f83011262003e4057600080fd5b620032e28383356020850162003df1565b600082601f83011262003e6357600080fd5b8135602062003e7662003d0b8362003cbf565b82815260059290921b8401810191818101908684111562003e9657600080fd5b8286015b8481101562003d5957803567ffffffffffffffff81111562003ebc5760008081fd5b62003ecc8986838b010162003e2e565b84525091830191830162003e9a565b600082601f83011262003eed57600080fd5b8135602062003f0062003d0b8362003cbf565b82815260059290921b8401810191818101908684111562003f2057600080fd5b8286015b8481101562003d5957803567ffffffffffffffff81111562003f465760008081fd5b8701603f8101891362003f595760008081fd5b62003f6c89868301356040840162003df1565b84525091830191830162003f24565b600080600080600060a0868803121562003f9457600080fd5b853567ffffffffffffffff8082111562003fad57600080fd5b62003fbb89838a0162003ce6565b9650602088013591508082111562003fd257600080fd5b62003fe089838a0162003d64565b9550604088013591508082111562003ff757600080fd5b6200400589838a0162003e51565b945060608801359150808211156200401c57600080fd5b6200402a89838a0162003edb565b935060808801359150808211156200404157600080fd5b50620040508882890162003e2e565b9150509295509295909350565b600080604083850312156200407157600080fd5b823591506020830135620040858162003966565b809150509250929050565b600080600080600080600060e0888a031215620040ac57600080fd5b8735620040b98162003966565b96506020880135620040cb8162003966565b96999698505050506040850135946060810135946080820135945060a0820135935060c0909101359150565b600181811c908216806200410c57607f821691505b602082108103620011df57634e487b7160e01b600052602260045260246000fd5b6000602082840312156200414057600080fd5b5051919050565b634e487b7160e01b600052603260045260246000fd5b8054600090600181811c90808316806200417857607f831692505b602080841082036200419a57634e487b7160e01b600052602260045260246000fd5b838852818015620041b45760018114620041c957620041f9565b60ff19861689830152604089019650620041f9565b876000528160002060005b86811015620041f15781548b8201850152908501908301620041d4565b8a0183019750505b50505050505092915050565b6001600160a01b038616815284602082015260a0604082015260006200422f60a08301866200415d565b82810360608401526200424381866200415d565b9150508260808301529695505050505050565b634e487b7160e01b600052601160045260246000fd5b60006001820162004281576200428162004256565b5060010190565b85815260ff8516602082015283604082015260806060820152816080820152818360a0830137600081830160a090810191909152601f909201601f19160101949350505050565b813581556020820135600182015560408201356002820155606082013560038201556080820135620043018162003966565b6004820180546001600160a01b0319166001600160a01b0383161790555060a08201356200432f8162003966565b6005820180546001600160a01b0319166001600160a01b038316179055505050565b60006200436262003d0b8462003dc6565b90508281528383830111156200437757600080fd5b620032e283602083018462003835565b6000602082840312156200439a57600080fd5b815167ffffffffffffffff811115620043b257600080fd5b8201601f81018413620043c457600080fd5b620043d58482516020840162004351565b949350505050565b60006101408c83526001600160a01b038c166020840152806040840152620044088184018c6200399c565b905082810360608401526200441e818b620039e2565b9050828103608084015262004434818a62003a14565b905082810360a08401526200444a818962003a14565b90508660c08401528560e08401528281036101008401526200446d818662003868565b905082810361012084015262004484818562003868565b9d9c50505050505050505050505050565b60008219821115620044ab57620044ab62004256565b500190565b600082821015620044c557620044c562004256565b500390565b6001600160a01b038616815284602082015260a060408201526000620044f460a083018662003868565b828103606084015262004243818662003868565b6000602082840312156200451b57600080fd5b81518015158114620032e257600080fdfe608060405234801561001057600080fd5b5060405161107e38038061107e83398101604081905261002f916100df565b61003d565b60405180910390fd5b62278d008111156100b65760405162461bcd60e51b815260206004820152603860248201527f54696d656c6f636b3a3a73657444656c61793a2044656c6179206d757374206e60448201527f6f7420657863656564206d6178696d756d2064656c61792e00000000000000006064820152608401610034565b600080546001600160a01b0319166001600160a01b039390931692909217909155600255610119565b600080604083850312156100f257600080fd5b82516001600160a01b038116811461010957600080fd5b6020939093015192949293505050565b610f56806101286000396000f3fe6080604052600436106100c95760003560e01c80636a42b8f811610079578063c1a287e211610056578063c1a287e2146101f1578063e177246e14610208578063f2b0653714610228578063f851a4401461026857005b80636a42b8f8146101af5780637d645fab146101c5578063b1b43ae5146101dc57005b80633a66f901116100a75780633a66f901146101415780634dd18bf51461016f578063591fcdfe1461018f57005b80630825f38f146100cb5780630e18b681146100f45780632678224714610109575b005b6100de6100d9366004610cb1565b610288565b6040516100eb9190610dbe565b60405180910390f35b34801561010057600080fd5b506100c9610664565b34801561011557600080fd5b50600154610129906001600160a01b031681565b6040516001600160a01b0390911681526020016100eb565b34801561014d57600080fd5b5061016161015c366004610cb1565b61073a565b6040519081526020016100eb565b34801561017b57600080fd5b506100c961018a366004610dd8565b610902565b34801561019b57600080fd5b506100c96101aa366004610cb1565b6109ce565b3480156101bb57600080fd5b5061016160025481565b3480156101d157600080fd5b5061016162278d0081565b3480156101e857600080fd5b50610161600081565b3480156101fd57600080fd5b506101616212750081565b34801561021457600080fd5b506100c9610223366004610df3565b610ae8565b34801561023457600080fd5b50610258610243366004610df3565b60036020526000908152604090205460ff1681565b60405190151581526020016100eb565b34801561027457600080fd5b50600054610129906001600160a01b031681565b6000546060906001600160a01b031633146103105760405162461bcd60e51b815260206004820152603860248201527f54696d656c6f636b3a3a657865637574655472616e73616374696f6e3a20436160448201527f6c6c206d75737420636f6d652066726f6d2061646d696e2e000000000000000060648201526084015b60405180910390fd5b6000868686868660405160200161032b959493929190610e0c565b60408051601f1981840301815291815281516020928301206000818152600390935291205490915060ff166103c85760405162461bcd60e51b815260206004820152603d60248201527f54696d656c6f636b3a3a657865637574655472616e73616374696f6e3a20547260448201527f616e73616374696f6e206861736e2774206265656e207175657565642e0000006064820152608401610307565b824210156104645760405162461bcd60e51b815260206004820152604560248201527f54696d656c6f636b3a3a657865637574655472616e73616374696f6e3a20547260448201527f616e73616374696f6e206861736e2774207375727061737365642074696d652060648201527f6c6f636b2e000000000000000000000000000000000000000000000000000000608482015260a401610307565b6104716212750084610e59565b4211156104e65760405162461bcd60e51b815260206004820152603360248201527f54696d656c6f636b3a3a657865637574655472616e73616374696f6e3a20547260448201527f616e73616374696f6e206973207374616c652e000000000000000000000000006064820152608401610307565b6000818152600360205260408120805460ff1916905585516060910361050d575083610539565b858051906020012085604051602001610527929190610e7f565b60405160208183030381529060405290505b600080896001600160a01b031689846040516105559190610ec7565b60006040518083038185875af1925050503d8060008114610592576040519150601f19603f3d011682016040523d82523d6000602084013e610597565b606091505b50915091508161060f5760405162461bcd60e51b815260206004820152603d60248201527f54696d656c6f636b3a3a657865637574655472616e73616374696f6e3a20547260448201527f616e73616374696f6e20657865637574696f6e2072657665727465642e0000006064820152608401610307565b896001600160a01b0316847fa560e3198060a2f10670c1ec5b403077ea6ae93ca8de1c32b451dc1a943cd6e78b8b8b8b60405161064f9493929190610ee3565b60405180910390a39998505050505050505050565b6001546001600160a01b031633146106e45760405162461bcd60e51b815260206004820152603860248201527f54696d656c6f636b3a3a61636365707441646d696e3a2043616c6c206d75737460448201527f20636f6d652066726f6d2070656e64696e6741646d696e2e00000000000000006064820152608401610307565b600080543373ffffffffffffffffffffffffffffffffffffffff19918216811783556001805490921690915560405190917f71614071b88dee5e0b2ae578a9dd7b2ebbe9ae832ba419dc0242cd065a290b6c91a2565b600080546001600160a01b031633146107bb5760405162461bcd60e51b815260206004820152603660248201527f54696d656c6f636b3a3a71756575655472616e73616374696f6e3a2043616c6c60448201527f206d75737420636f6d652066726f6d2061646d696e2e000000000000000000006064820152608401610307565b6002546107c89042610e59565b8210156108635760405162461bcd60e51b815260206004820152604960248201527f54696d656c6f636b3a3a71756575655472616e73616374696f6e3a204573746960448201527f6d6174656420657865637574696f6e20626c6f636b206d75737420736174697360648201527f66792064656c61792e0000000000000000000000000000000000000000000000608482015260a401610307565b6000868686868660405160200161087e959493929190610e0c565b60408051601f19818403018152828252805160209182012060008181526003909252919020805460ff1916600117905591506001600160a01b0388169082907f76e2796dc3a81d57b0e8504b647febcbeeb5f4af818e164f11eef8131a6a763f906108f0908a908a908a908a90610ee3565b60405180910390a39695505050505050565b3330146109775760405162461bcd60e51b815260206004820152603860248201527f54696d656c6f636b3a3a73657450656e64696e6741646d696e3a2043616c6c2060448201527f6d75737420636f6d652066726f6d2054696d656c6f636b2e00000000000000006064820152608401610307565b6001805473ffffffffffffffffffffffffffffffffffffffff19166001600160a01b0383169081179091556040517f69d78e38a01985fbb1462961809b4b2d65531bc93b2b94037f3334b82ca4a75690600090a250565b6000546001600160a01b03163314610a4e5760405162461bcd60e51b815260206004820152603760248201527f54696d656c6f636b3a3a63616e63656c5472616e73616374696f6e3a2043616c60448201527f6c206d75737420636f6d652066726f6d2061646d696e2e0000000000000000006064820152608401610307565b60008585858585604051602001610a69959493929190610e0c565b60408051601f19818403018152828252805160209182012060008181526003909252919020805460ff1916905591506001600160a01b0387169082907f2fffc091a501fd91bfbff27141450d3acb40fb8e6d8382b243ec7a812a3aaf8790610ad8908990899089908990610ee3565b60405180910390a3505050505050565b333014610b5d5760405162461bcd60e51b815260206004820152603160248201527f54696d656c6f636b3a3a73657444656c61793a2043616c6c206d75737420636f60448201527f6d652066726f6d2054696d656c6f636b2e0000000000000000000000000000006064820152608401610307565b62278d00811115610bd65760405162461bcd60e51b815260206004820152603860248201527f54696d656c6f636b3a3a73657444656c61793a2044656c6179206d757374206e60448201527f6f7420657863656564206d6178696d756d2064656c61792e00000000000000006064820152608401610307565b600281905560405181907f948b1f6a42ee138b7e34058ba85a37f716d55ff25ff05a763f15bed6a04c8d2c90600090a250565b80356001600160a01b0381168114610c2057600080fd5b919050565b634e487b7160e01b600052604160045260246000fd5b600067ffffffffffffffff80841115610c5657610c56610c25565b604051601f8501601f19908116603f01168101908282118183101715610c7e57610c7e610c25565b81604052809350858152868686011115610c9757600080fd5b858560208301376000602087830101525050509392505050565b600080600080600060a08688031215610cc957600080fd5b610cd286610c09565b945060208601359350604086013567ffffffffffffffff80821115610cf657600080fd5b818801915088601f830112610d0a57600080fd5b610d1989833560208501610c3b565b94506060880135915080821115610d2f57600080fd5b508601601f81018813610d4157600080fd5b610d5088823560208401610c3b565b95989497509295608001359392505050565b60005b83811015610d7d578181015183820152602001610d65565b83811115610d8c576000848401525b50505050565b60008151808452610daa816020860160208601610d62565b601f01601f19169290920160200192915050565b602081526000610dd16020830184610d92565b9392505050565b600060208284031215610dea57600080fd5b610dd182610c09565b600060208284031215610e0557600080fd5b5035919050565b6001600160a01b038616815284602082015260a060408201526000610e3460a0830186610d92565b8281036060840152610e468186610d92565b9150508260808301529695505050505050565b60008219821115610e7a57634e487b7160e01b600052601160045260246000fd5b500190565b7fffffffff000000000000000000000000000000000000000000000000000000008316815260008251610eb9816004850160208701610d62565b919091016004019392505050565b60008251610ed9818460208701610d62565b9190910192915050565b848152608060208201526000610efc6080830186610d92565b8281036040840152610f0e8186610d92565b9150508260608301529594505050505056fea26469706673582212205b6e05fc720995f4a63a172b2dcbf1d4a2a635e94d74da63e3c67d696e315a9664736f6c634300080e0033a2646970667358221220c53baf618e7bc880c6fef89a9aa34549a5adc5085f371fb32aaf22c8101f79d064736f6c634300080e0033",
  "linkReferences": {},
  "deployedLinkReferences": {}
}