{
  "_format": "hh-sol-artifact-1",
  "contractName": "GnosisStrategy",
  "sourceName": "contracts/Module/strategies/GnosisStrategy.sol",
  "abi": [
    {
      "inputs": [
        {
          "internalType": "address",
          "name": "ref",
          "type": "address"
        },
        {
          "internalType": "address",
          "name": "account",
          "type": "address"
        },
        {
          "internalType": "uint256",
          "name": "",
          "type": "uint256"
        }
      ],
      "name": "getPriorVotes",
      "outputs": [
        {
          "internalType": "uint96",
          "name": "",
          "type": "uint96"
        }
      ],
      "stateMutability": "view",
      "type": "function"
    },
    {
      "inputs": [],
      "name": "name",
      "outputs": [
        {
          "internalType": "string",
          "name": "",
          "type": "string"
        }
      ],
      "stateMutability": "pure",
      "type": "function"
    }
  ],
  "bytecode": "0x608060405234801561001057600080fd5b50610271806100206000396000f3fe608060405234801561001057600080fd5b50600436106100365760003560e01c806306fdde031461003b578063783b406414610083575b600080fd5b604080518082018252600681527f476e6f73697300000000000000000000000000000000000000000000000000006020820152905161007a919061015f565b60405180910390f35b6100966100913660046101dd565b6100b3565b6040516bffffffffffffffffffffffff909116815260200161007a565b6040517f2f54bf6e00000000000000000000000000000000000000000000000000000000815273ffffffffffffffffffffffffffffffffffffffff838116600483015260009190851690632f54bf6e90602401602060405180830381865afa158015610123573d6000803e3d6000fd5b505050506040513d601f19601f820116820180604052508101906101479190610219565b1561015457506001610158565b5060005b9392505050565b600060208083528351808285015260005b8181101561018c57858101830151858201604001528201610170565b8181111561019e576000604083870101525b50601f01601f1916929092016040019392505050565b803573ffffffffffffffffffffffffffffffffffffffff811681146101d857600080fd5b919050565b6000806000606084860312156101f257600080fd5b6101fb846101b4565b9250610209602085016101b4565b9150604084013590509250925092565b60006020828403121561022b57600080fd5b8151801515811461015857600080fdfea264697066735822122097d664cc2698004acb964c1251fce79c3cb5d330b778bb4d28ef147e1626ebfd64736f6c634300080e0033",
  "linkReferences": {},
  "deployedLinkReferences": {}
}