{
  "_format": "hh-sol-artifact-1",
  "contractName": "Factory",
  "sourceName": "contracts/Base/Factory.sol",
  "abi": [
    {
      "anonymous": false,
      "inputs": [
        {
          "indexed": false,
          "internalType": "string",
          "name": "moduleName",
          "type": "string"
        },
        {
          "indexed": false,
          "internalType": "address",
          "name": "implement",
          "type": "address"
        }
      ],
      "name": "LogModuleAdded",
      "type": "event"
    },
    {
      "anonymous": false,
      "inputs": [
        {
          "indexed": false,
          "internalType": "string",
          "name": "projectName",
          "type": "string"
        },
        {
          "indexed": false,
          "internalType": "address",
          "name": "controllerAddr",
          "type": "address"
        },
        {
          "indexed": false,
          "internalType": "string",
          "name": "avatar",
          "type": "string"
        }
      ],
      "name": "LogNewProject",
      "type": "event"
    },
    {
      "anonymous": false,
      "inputs": [
        {
          "indexed": true,
          "internalType": "address",
          "name": "previousOwner",
          "type": "address"
        },
        {
          "indexed": true,
          "internalType": "address",
          "name": "newOwner",
          "type": "address"
        }
      ],
      "name": "OwnershipTransferred",
      "type": "event"
    },
    {
      "inputs": [
        {
          "internalType": "string",
          "name": "moduleName",
          "type": "string"
        },
        {
          "internalType": "address",
          "name": "implement",
          "type": "address"
        }
      ],
      "name": "addPlatformModule",
      "outputs": [],
      "stateMutability": "nonpayable",
      "type": "function"
    },
    {
      "inputs": [
        {
          "internalType": "uint256",
          "name": "",
          "type": "uint256"
        }
      ],
      "name": "allModule",
      "outputs": [
        {
          "internalType": "string",
          "name": "",
          "type": "string"
        }
      ],
      "stateMutability": "view",
      "type": "function"
    },
    {
      "inputs": [
        {
          "internalType": "string",
          "name": "moduleName",
          "type": "string"
        }
      ],
      "name": "getPlatformModuleImplement",
      "outputs": [
        {
          "internalType": "address",
          "name": "",
          "type": "address"
        }
      ],
      "stateMutability": "view",
      "type": "function"
    },
    {
      "inputs": [
        {
          "internalType": "string",
          "name": "projectName",
          "type": "string"
        }
      ],
      "name": "getProjectControllerAddr",
      "outputs": [
        {
          "internalType": "address",
          "name": "addr",
          "type": "address"
        }
      ],
      "stateMutability": "view",
      "type": "function"
    },
    {
      "inputs": [
        {
          "internalType": "string",
          "name": "moduleName",
          "type": "string"
        }
      ],
      "name": "isPlatformModule",
      "outputs": [
        {
          "internalType": "bool",
          "name": "",
          "type": "bool"
        }
      ],
      "stateMutability": "view",
      "type": "function"
    },
    {
      "inputs": [
        {
          "internalType": "string",
          "name": "projectName",
          "type": "string"
        },
        {
          "internalType": "address",
          "name": "owner",
          "type": "address"
        },
        {
          "internalType": "string",
          "name": "avatar",
          "type": "string"
        }
      ],
      "name": "newProject",
      "outputs": [
        {
          "internalType": "address",
          "name": "",
          "type": "address"
        }
      ],
      "stateMutability": "nonpayable",
      "type": "function"
    },
    {
      "inputs": [],
      "name": "owner",
      "outputs": [
        {
          "internalType": "address",
          "name": "",
          "type": "address"
        }
      ],
      "stateMutability": "view",
      "type": "function"
    },
    {
      "inputs": [],
      "name": "renounceOwnership",
      "outputs": [],
      "stateMutability": "nonpayable",
      "type": "function"
    },
    {
      "inputs": [
        {
          "internalType": "address",
          "name": "newOwner",
          "type": "address"
        }
      ],
      "name": "transferOwnership",
      "outputs": [],
      "stateMutability": "nonpayable",
      "type": "function"
    },
    {
      "inputs": [
        {
          "internalType": "string",
          "name": "projectName",
          "type": "string"
        },
        {
          "internalType": "string",
          "name": "moduleName",
          "type": "string"
        },
        {
          "internalType": "address",
          "name": "",
          "type": "address"
        },
        {
          "internalType": "bytes",
          "name": "data",
          "type": "bytes"
        }
      ],
      "name": "updateProjectModule",
      "outputs": [],
      "stateMutability": "payable",
      "type": "function"
    }
  ],
  "bytecode": "0x608060405234801561001057600080fd5b5061001a3361001f565b61006f565b600080546001600160a01b038381166001600160a01b0319831681178455604051919092169283917f8be0079c531659141344cd1fd0a4f28419497f9722a3daafe3b4186f6b6457e09190a35050565b614b678061007e6000396000f3fe608060405260043610620000bf5760003560e01c80639f6341321162000071578063e66a7ba61162000054578063e66a7ba614620001e6578063ef9bfc1f146200020b578063f2fde38b146200023057600080fd5b80639f634132146200018d578063d09e096314620001c157600080fd5b80632d24d26411620000a65780632d24d264146200013c578063715018a614620001555780638da5cb5b146200016d57600080fd5b806324420bcc14620000c4578063293ad4321462000106575b600080fd5b348015620000d157600080fd5b50620000e9620000e336600462000a19565b62000255565b6040516001600160a01b0390911681526020015b60405180910390f35b3480156200011357600080fd5b506200012b6200012536600462000aa6565b620003c1565b6040519015158152602001620000fd565b620001536200014d36600462000aec565b62000404565b005b3480156200016257600080fd5b5062000153620004df565b3480156200017a57600080fd5b506000546001600160a01b0316620000e9565b3480156200019a57600080fd5b50620001b2620001ac36600462000ba6565b62000549565b604051620000fd919062000bc0565b348015620001ce57600080fd5b50620000e9620001e036600462000aa6565b620005fe565b348015620001f357600080fd5b50620000e96200020536600462000aa6565b62000634565b3480156200021857600080fd5b50620001536200022a36600462000c18565b6200064a565b3480156200023d57600080fd5b50620001536200024f36600462000c72565b620007b7565b6000806001600160a01b0316600187876040516200027592919062000c97565b908152604051908190036020019020546001600160a01b031614620002e15760405162461bcd60e51b815260206004820152601560248201527f70726f6a65637420616c7265616479206578697374000000000000000000000060448201526064015b60405180910390fd5b60008487878686604051620002f690620008fc565b6200030695949392919062000cd0565b604051809103906000f08015801562000323573d6000803e3d6000fd5b50905080600188886040516200033b92919062000c97565b90815260405190819003602001812080546001600160a01b039390931673ffffffffffffffffffffffffffffffffffffffff19909316929092179091557f07bb04a29e8b172e69515bf0bfa3736c2cb2b3b95d53beed970bd19693a9330790620003af908990899085908990899062000d16565b60405180910390a19695505050505050565b6000806001600160a01b031660028484604051620003e192919062000c97565b908152604051908190036020019020546001600160a01b03161415905092915050565b6000546001600160a01b03163314620004605760405162461bcd60e51b815260206004820181905260248201527f4f776e61626c653a2063616c6c6572206973206e6f7420746865206f776e65726044820152606401620002d8565b6200046c8787620005fe565b6001600160a01b031663a378e2598686600086866040518663ffffffff1660e01b8152600401620004a295949392919062000d16565b600060405180830381600087803b158015620004bd57600080fd5b505af1158015620004d2573d6000803e3d6000fd5b5050505050505050505050565b6000546001600160a01b031633146200053b5760405162461bcd60e51b815260206004820181905260248201527f4f776e61626c653a2063616c6c6572206973206e6f7420746865206f776e65726044820152606401620002d8565b6200054760006200089f565b565b600381815481106200055a57600080fd5b906000526020600020016000915090508054620005779062000d50565b80601f0160208091040260200160405190810160405280929190818152602001828054620005a59062000d50565b8015620005f65780601f10620005ca57610100808354040283529160200191620005f6565b820191906000526020600020905b815481529060010190602001808311620005d857829003601f168201915b505050505081565b6000600183836040516200061492919062000c97565b908152604051908190036020019020546001600160a01b03169392505050565b6000600283836040516200061492919062000c97565b6000546001600160a01b03163314620006a65760405162461bcd60e51b815260206004820181905260248201527f4f776e61626c653a2063616c6c6572206973206e6f7420746865206f776e65726044820152606401620002d8565b60006001600160a01b031660028484604051620006c592919062000c97565b908152604051908190036020019020546001600160a01b03160362000725576003805460018101825560009190915262000723907fc2575a0e9e593c00f959f8c92f12db2869c3395a3b0502d05e2516446f71f85b0184846200090a565b505b80600284846040516200073a92919062000c97565b90815260405190819003602001812080546001600160a01b039390931673ffffffffffffffffffffffffffffffffffffffff19909316929092179091557ffbc1cdf8ee863adf97c739108d622901baae145a195eb81606975fd92bb3d9ab90620007aa9085908590859062000da5565b60405180910390a1505050565b6000546001600160a01b03163314620008135760405162461bcd60e51b815260206004820181905260248201527f4f776e61626c653a2063616c6c6572206973206e6f7420746865206f776e65726044820152606401620002d8565b6001600160a01b038116620008915760405162461bcd60e51b815260206004820152602660248201527f4f776e61626c653a206e6577206f776e657220697320746865207a65726f206160448201527f64647265737300000000000000000000000000000000000000000000000000006064820152608401620002d8565b6200089c816200089f565b50565b600080546001600160a01b0383811673ffffffffffffffffffffffffffffffffffffffff19831681178455604051919092169283917f8be0079c531659141344cd1fd0a4f28419497f9722a3daafe3b4186f6b6457e09190a35050565b613d5d8062000dd583390190565b828054620009189062000d50565b90600052602060002090601f0160209004810192826200093c576000855562000987565b82601f10620009575782800160ff1982351617855562000987565b8280016001018555821562000987579182015b82811115620009875782358255916020019190600101906200096a565b506200099592915062000999565b5090565b5b808211156200099557600081556001016200099a565b60008083601f840112620009c357600080fd5b50813567ffffffffffffffff811115620009dc57600080fd5b602083019150836020828501011115620009f557600080fd5b9250929050565b80356001600160a01b038116811462000a1457600080fd5b919050565b60008060008060006060868803121562000a3257600080fd5b853567ffffffffffffffff8082111562000a4b57600080fd5b62000a5989838a01620009b0565b909750955085915062000a6f60208901620009fc565b9450604088013591508082111562000a8657600080fd5b5062000a9588828901620009b0565b969995985093965092949392505050565b6000806020838503121562000aba57600080fd5b823567ffffffffffffffff81111562000ad257600080fd5b62000ae085828601620009b0565b90969095509350505050565b60008060008060008060006080888a03121562000b0857600080fd5b873567ffffffffffffffff8082111562000b2157600080fd5b62000b2f8b838c01620009b0565b909950975060208a013591508082111562000b4957600080fd5b62000b578b838c01620009b0565b909750955085915062000b6d60408b01620009fc565b945060608a013591508082111562000b8457600080fd5b5062000b938a828b01620009b0565b989b979a50959850939692959293505050565b60006020828403121562000bb957600080fd5b5035919050565b600060208083528351808285015260005b8181101562000bef5785810183015185820160400152820162000bd1565b8181111562000c02576000604083870101525b50601f01601f1916929092016040019392505050565b60008060006040848603121562000c2e57600080fd5b833567ffffffffffffffff81111562000c4657600080fd5b62000c5486828701620009b0565b909450925062000c69905060208501620009fc565b90509250925092565b60006020828403121562000c8557600080fd5b62000c9082620009fc565b9392505050565b8183823760009101908152919050565b81835281816020850137506000828201602090810191909152601f909101601f19169091010190565b6001600160a01b038616815260606020820152600062000cf560608301868862000ca7565b828103604084015262000d0a81858762000ca7565b98975050505050505050565b60608152600062000d2c60608301878962000ca7565b6001600160a01b0386166020840152828103604084015262000d0a81858762000ca7565b600181811c9082168062000d6557607f821691505b60208210810362000d9f577f4e487b7100000000000000000000000000000000000000000000000000000000600052602260045260246000fd5b50919050565b60408152600062000dbb60408301858762000ca7565b90506001600160a01b038316602083015294935050505056fe60806040523480156200001157600080fd5b5060405162003d5d38038062003d5d833981016040819052620000349162000445565b6200003f3362000177565b6040516200004d90620002c4565b604051809103906000f0801580156200006a573d6000803e3d6000fd5b50600780546001600160a01b0319166001600160a01b03929092169190911790558151620000a0906002906020850190620002d2565b508051620000b6906004906020840190620002d2565b50600380546001600160a01b03191633179055620000d48362000177565b620000fe60008051602062003d3d83398151915260008051602062003d1d833981519152620001c9565b6200011960008051602062003d3d8339815191523362000214565b6200013460008051602062003d1d8339815191523362000214565b7fdd9b870862a4217adddcbe996b3696ffc501c2a3ea728bffc527aa375a18056060046040516200016691906200050b565b60405180910390a1505050620005ba565b600180546001600160a01b038381166001600160a01b0319831681179093556040519116919082907f8be0079c531659141344cd1fd0a4f28419497f9722a3daafe3b4186f6b6457e090600090a35050565b600082815260208190526040808220600101805490849055905190918391839186917fbd79b86ffe0ab8e8776151514217cd7cacd52c909f66475c3af44e129f0b00ff9190a4505050565b62000220828262000224565b5050565b6000828152602081815260408083206001600160a01b038516845290915290205460ff1662000220576000828152602081815260408083206001600160a01b03851684529091529020805460ff19166001179055620002803390565b6001600160a01b0316816001600160a01b0316837f2f8788117e7eff1d82e926ec794901d17c78024a50270940304540a733656f0d60405160405180910390a45050565b61091e80620033ff83390190565b828054620002e090620004cf565b90600052602060002090601f0160209004810192826200030457600085556200034f565b82601f106200031f57805160ff19168380011785556200034f565b828001600101855582156200034f579182015b828111156200034f57825182559160200191906001019062000332565b506200035d92915062000361565b5090565b5b808211156200035d576000815560010162000362565b634e487b7160e01b600052604160045260246000fd5b600082601f830112620003a057600080fd5b81516001600160401b0380821115620003bd57620003bd62000378565b604051601f8301601f19908116603f01168101908282118183101715620003e857620003e862000378565b816040528381526020925086838588010111156200040557600080fd5b600091505b838210156200042957858201830151818301840152908201906200040a565b838211156200043b5760008385830101525b9695505050505050565b6000806000606084860312156200045b57600080fd5b83516001600160a01b03811681146200047357600080fd5b60208501519093506001600160401b03808211156200049157600080fd5b6200049f878388016200038e565b93506040860151915080821115620004b657600080fd5b50620004c5868287016200038e565b9150509250925092565b600181811c90821680620004e457607f821691505b6020821081036200050557634e487b7160e01b600052602260045260246000fd5b50919050565b600060208083526000845481600182811c9150808316806200052e57607f831692505b85831081036200054c57634e487b7160e01b85526022600452602485fd5b8786018381526020018180156200056c57600181146200057e57620005ab565b60ff19861682528782019650620005ab565b60008b81526020902060005b86811015620005a5578154848201529085019089016200058a565b83019750505b50949998505050505050505050565b612e3580620005ca6000396000f3fe6080604052600436106200017b5760003560e01c806391d1485411620000cf578063a49a1e7d116200007d578063c554ebcb1162000060578063c554ebcb146200043b578063d547741f1462000460578063f2fde38b146200048557600080fd5b8063a49a1e7d14620003ef578063c1398137146200041457600080fd5b80639a33e30011620000b25780639a33e30014620003a9578063a217fddf14620003c1578063a378e25914620003d857600080fd5b806391d14854146200033f578063963671be146200038757600080fd5b806370824c5c116200012d5780637d3134d811620001105780637d3134d814620002be5780638d4b6e7c14620002f45780638da5cb5b146200030b57600080fd5b806370824c5c1462000270578063715018a614620002a657600080fd5b80632f2ff15d11620001625780632f2ff15d14620001fd57806336568abe1462000224578063392f37e9146200024957600080fd5b806301ffc9a71462000180578063248a9ca314620001ba575b600080fd5b3480156200018d57600080fd5b50620001a56200019f36600462001769565b620004aa565b60405190151581526020015b60405180910390f35b348015620001c757600080fd5b50620001ee620001d9366004620017ad565b60009081526020819052604090206001015490565b604051908152602001620001b1565b3480156200020a57600080fd5b50620002226200021c366004620017dd565b62000544565b005b3480156200023157600080fd5b506200022262000243366004620017dd565b62000572565b3480156200025657600080fd5b506200026162000606565b604051620001b1919062001871565b3480156200027d57600080fd5b50620001ee7f15aacb66e1cb6994a1b3dd63608eb3b46c82bf3eac1e1bf93b4bcb90ddec18de81565b348015620002b357600080fd5b50620002226200069c565b348015620002cb57600080fd5b50620001ee7f4b0db452378f08d8101ca4d73345872280c5ee705b53c7c193b4b414fa6047bc81565b6200022262000305366004620018d2565b62000706565b3480156200031857600080fd5b506001546001600160a01b03165b6040516001600160a01b039091168152602001620001b1565b3480156200034c57600080fd5b50620001a56200035e366004620017dd565b6000918252602082815260408084206001600160a01b0393909316845291905290205460ff1690565b3480156200039457600080fd5b5060035462000326906001600160a01b031681565b348015620003b657600080fd5b5062000261620009c9565b348015620003ce57600080fd5b50620001ee600081565b62000222620003e9366004620018d2565b620009d8565b348015620003fc57600080fd5b50620002226200040e36600462001976565b62000e09565b3480156200042157600080fd5b506200042c62000eb8565b604051620001b1919062001a31565b3480156200044857600080fd5b50620003266200045a36600462001a97565b62000f9b565b3480156200046d57600080fd5b50620002226200047f366004620017dd565b62000fd1565b3480156200049257600080fd5b5062000222620004a436600462001add565b62000ffa565b60007fffffffff0000000000000000000000000000000000000000000000000000000082167f7965db0b0000000000000000000000000000000000000000000000000000000014806200053e57507f01ffc9a7000000000000000000000000000000000000000000000000000000007fffffffff000000000000000000000000000000000000000000000000000000008316145b92915050565b600082815260208190526040902060010154620005618162001138565b6200056d838362001147565b505050565b6001600160a01b0381163314620005f65760405162461bcd60e51b815260206004820152602f60248201527f416363657373436f6e74726f6c3a2063616e206f6e6c792072656e6f756e636560448201527f20726f6c657320666f722073656c66000000000000000000000000000000000060648201526084015b60405180910390fd5b620006028282620011e7565b5050565b60048054620006159062001afd565b80601f0160208091040260200160405190810160405280929190818152602001828054620006439062001afd565b8015620006945780601f10620006685761010080835404028352916020019162000694565b820191906000526020600020905b8154815290600101906020018083116200067657829003601f168201915b505050505081565b6001546001600160a01b03163314620006f85760405162461bcd60e51b815260206004820181905260248201527f4f776e61626c653a2063616c6c6572206973206e6f7420746865206f776e65726044820152606401620005ed565b62000704600062001267565b565b6001546001600160a01b0316331480620007475750620007477f15aacb66e1cb6994a1b3dd63608eb3b46c82bf3eac1e1bf93b4bcb90ddec18de336200035e565b6200077f5760405162461bcd60e51b81526020600482015260076024820152660dcde40c2eae8d60cb1b6044820152606401620005ed565b60006001600160a01b0316600586866040516200079e92919062001b39565b908152604051908190036020019020546001600160a01b031614620008065760405162461bcd60e51b815260206004820152601860248201527f6d6f64756c6520686173206265656e206465706c6f79656400000000000000006044820152606401620005ed565b6003546040516373353dd360e11b81526000916001600160a01b03169063e66a7ba6906200083b908990899060040162001b72565b602060405180830381865afa15801562000859573d6000803e3d6000fd5b505050506040513d601f19601f820116820180604052508101906200087f919062001b90565b90506001600160a01b0381161562000895578093505b600084600760009054906101000a90046001600160a01b03168585604051620008be9062001638565b620008cd949392919062001bb0565b604051809103906000f080158015620008ea573d6000803e3d6000fd5b50905080600588886040516200090292919062001b39565b90815260405190819003602001902080546001600160a01b039290921673ffffffffffffffffffffffffffffffffffffffff19909216919091179055600680546001810182556000919091526200097d907ff652222313e28459528d920b65115c16c04f3efc82aaedc97be59f3f377c0d3f01888862001646565b507f83ea886146fcaaef15fa6357513fc103cd0e1fd0eb55b5652a42f340560555c1308888600089604051620009b895949392919062001be9565b60405180910390a150505050505050565b60028054620006159062001afd565b6001546001600160a01b031633148062000a19575062000a197f15aacb66e1cb6994a1b3dd63608eb3b46c82bf3eac1e1bf93b4bcb90ddec18de336200035e565b62000a515760405162461bcd60e51b81526020600482015260076024820152660dcde40c2eae8d60cb1b6044820152606401620005ed565b60006001600160a01b03166005868660405162000a7092919062001b39565b908152604051908190036020019020546001600160a01b03160362000ad85760405162461bcd60e51b815260206004820152601b60248201527f6d6f64756c65206861736e2774206265656e206465706c6f79656400000000006044820152606401620005ed565b6003546040516373353dd360e11b81526000916001600160a01b03169063e66a7ba69062000b0d908990899060040162001b72565b602060405180830381865afa15801562000b2b573d6000803e3d6000fd5b505050506040513d601f19601f8201168201806040525081019062000b51919062001b90565b90506001600160a01b0381161562000c075762000b8f7f15aacb66e1cb6994a1b3dd63608eb3b46c82bf3eac1e1bf93b4bcb90ddec18de336200035e565b62000c035760405162461bcd60e51b815260206004820152602d60248201527f6f6e6c7920706c6174666f726d20616464722063616e2075706461746520706c60448201527f6174666f726d206d6f64756c65000000000000000000000000000000000000006064820152608401620005ed565b8093505b6001600160a01b03841662000c855760405162461bcd60e51b815260206004820152602160248201527f55706772616465204661696c65643a20496e76616c696420496d706c656d656e60448201527f74000000000000000000000000000000000000000000000000000000000000006064820152608401620005ed565b60006005878760405162000c9b92919062001b39565b908152604051908190036020018120546007547f204e1c7a0000000000000000000000000000000000000000000000000000000083526001600160a01b039182166004840181905293507f83ea886146fcaaef15fa6357513fc103cd0e1fd0eb55b5652a42f340560555c19230928b928b9291169063204e1c7a90602401602060405180830381865afa15801562000d37573d6000803e3d6000fd5b505050506040513d601f19601f8201168201806040525081019062000d5d919062001b90565b8960405162000d7195949392919062001be9565b60405180910390a16007546040517f9623609d0000000000000000000000000000000000000000000000000000000081526001600160a01b0390911690639623609d90349062000dcc9085908a908a908a9060040162001bb0565b6000604051808303818588803b15801562000de657600080fd5b505af115801562000dfb573d6000803e3d6000fd5b505050505050505050505050565b6001546001600160a01b0316331462000e655760405162461bcd60e51b815260206004820181905260248201527f4f776e61626c653a2063616c6c6572206973206e6f7420746865206f776e65726044820152606401620005ed565b805162000e7a906004906020840190620016d5565b507fdd9b870862a4217adddcbe996b3696ffc501c2a3ea728bffc527aa375a180560600460405162000ead919062001c29565b60405180910390a150565b60606006805480602002602001604051908101604052809291908181526020016000905b8282101562000f9257838290600052602060002001805462000efe9062001afd565b80601f016020809104026020016040519081016040528092919081815260200182805462000f2c9062001afd565b801562000f7d5780601f1062000f515761010080835404028352916020019162000f7d565b820191906000526020600020905b81548152906001019060200180831162000f5f57829003601f168201915b50505050508152602001906001019062000edc565b50505050905090565b60006005838360405162000fb192919062001b39565b908152604051908190036020019020546001600160a01b03169392505050565b60008281526020819052604090206001015462000fee8162001138565b6200056d8383620011e7565b6001546001600160a01b03163314620010565760405162461bcd60e51b815260206004820181905260248201527f4f776e61626c653a2063616c6c6572206973206e6f7420746865206f776e65726044820152606401620005ed565b6200106181620012c6565b60005b600654811015620006025760056006828154811062001087576200108762001cb6565b90600052602060002001604051620010a0919062001ccc565b908152604051908190036020018120547ffcac77630000000000000000000000000000000000000000000000000000000082526001600160a01b038481166004840152169063fcac776390602401600060405180830381600087803b1580156200110957600080fd5b505af11580156200111e573d6000803e3d6000fd5b5050505080806200112f9062001d5c565b91505062001064565b620011448133620013ab565b50565b6000828152602081815260408083206001600160a01b038516845290915290205460ff1662000602576000828152602081815260408083206001600160a01b03851684529091529020805460ff19166001179055620011a33390565b6001600160a01b0316816001600160a01b0316837f2f8788117e7eff1d82e926ec794901d17c78024a50270940304540a733656f0d60405160405180910390a45050565b6000828152602081815260408083206001600160a01b038516845290915290205460ff161562000602576000828152602081815260408083206001600160a01b0385168085529252808320805460ff1916905551339285917ff6391f5c32d9c69d2a47ea670b442974b53935d1edc7fd64eb21e047a839171b9190a45050565b600180546001600160a01b0383811673ffffffffffffffffffffffffffffffffffffffff19831681179093556040519116919082907f8be0079c531659141344cd1fd0a4f28419497f9722a3daafe3b4186f6b6457e090600090a35050565b6001546001600160a01b03163314620013225760405162461bcd60e51b815260206004820181905260248201527f4f776e61626c653a2063616c6c6572206973206e6f7420746865206f776e65726044820152606401620005ed565b6001600160a01b038116620013a05760405162461bcd60e51b815260206004820152602660248201527f4f776e61626c653a206e6577206f776e657220697320746865207a65726f206160448201527f64647265737300000000000000000000000000000000000000000000000000006064820152608401620005ed565b620011448162001267565b6000828152602081815260408083206001600160a01b038516845290915290205460ff166200060257620013ea816001600160a01b0316601462001432565b620013f783602062001432565b6040516020016200140a92919062001d78565b60408051601f198184030181529082905262461bcd60e51b8252620005ed9160040162001871565b606060006200144383600262001dfd565b6200145090600262001e1f565b67ffffffffffffffff8111156200146b576200146b62001960565b6040519080825280601f01601f19166020018201604052801562001496576020820181803683370190505b5090507f300000000000000000000000000000000000000000000000000000000000000081600081518110620014d057620014d062001cb6565b60200101906001600160f81b031916908160001a9053507f7800000000000000000000000000000000000000000000000000000000000000816001815181106200151e576200151e62001cb6565b60200101906001600160f81b031916908160001a90535060006200154484600262001dfd565b6200155190600162001e1f565b90505b6001811115620015e0577f303132333435363738396162636465660000000000000000000000000000000085600f166010811062001596576200159662001cb6565b1a60f81b828281518110620015af57620015af62001cb6565b60200101906001600160f81b031916908160001a90535060049490941c93620015d88162001e3a565b905062001554565b508315620016315760405162461bcd60e51b815260206004820181905260248201527f537472696e67733a20686578206c656e67746820696e73756666696369656e746044820152606401620005ed565b9392505050565b610fab8062001e5583390190565b828054620016549062001afd565b90600052602060002090601f016020900481019282620016785760008555620016c3565b82601f10620016935782800160ff19823516178555620016c3565b82800160010185558215620016c3579182015b82811115620016c3578235825591602001919060010190620016a6565b50620016d192915062001752565b5090565b828054620016e39062001afd565b90600052602060002090601f016020900481019282620017075760008555620016c3565b82601f106200172257805160ff1916838001178555620016c3565b82800160010185558215620016c3579182015b82811115620016c357825182559160200191906001019062001735565b5b80821115620016d1576000815560010162001753565b6000602082840312156200177c57600080fd5b81357fffffffff00000000000000000000000000000000000000000000000000000000811681146200163157600080fd5b600060208284031215620017c057600080fd5b5035919050565b6001600160a01b03811681146200114457600080fd5b60008060408385031215620017f157600080fd5b8235915060208301356200180581620017c7565b809150509250929050565b60005b838110156200182d57818101518382015260200162001813565b838111156200183d576000848401525b50505050565b600081518084526200185d81602086016020860162001810565b601f01601f19169290920160200192915050565b60208152600062001631602083018462001843565b60008083601f8401126200189957600080fd5b50813567ffffffffffffffff811115620018b257600080fd5b602083019150836020828501011115620018cb57600080fd5b9250929050565b600080600080600060608688031215620018eb57600080fd5b853567ffffffffffffffff808211156200190457600080fd5b6200191289838a0162001886565b9097509550602088013591506200192982620017c7565b909350604087013590808211156200194057600080fd5b506200194f8882890162001886565b969995985093965092949392505050565b634e487b7160e01b600052604160045260246000fd5b6000602082840312156200198957600080fd5b813567ffffffffffffffff80821115620019a257600080fd5b818401915084601f830112620019b757600080fd5b813581811115620019cc57620019cc62001960565b604051601f8201601f19908116603f01168101908382118183101715620019f757620019f762001960565b8160405282815287602084870101111562001a1157600080fd5b826020860160208301376000928101602001929092525095945050505050565b6000602080830181845280855180835260408601915060408160051b870101925083870160005b8281101562001a8a57603f1988860301845262001a7785835162001843565b9450928501929085019060010162001a58565b5092979650505050505050565b6000806020838503121562001aab57600080fd5b823567ffffffffffffffff81111562001ac357600080fd5b62001ad18582860162001886565b90969095509350505050565b60006020828403121562001af057600080fd5b81356200163181620017c7565b600181811c9082168062001b1257607f821691505b60208210810362001b3357634e487b7160e01b600052602260045260246000fd5b50919050565b8183823760009101908152919050565b81835281816020850137506000828201602090810191909152601f909101601f19169091010190565b60208152600062001b8860208301848662001b49565b949350505050565b60006020828403121562001ba357600080fd5b81516200163181620017c7565b60006001600160a01b0380871683528086166020840152506060604083015262001bdf60608301848662001b49565b9695505050505050565b60006001600160a01b0380881683526080602084015262001c0f60808401878962001b49565b948116604084015292909216606090910152509392505050565b600060208083526000845462001c3f8162001afd565b8084870152604060018084166000811462001c63576001811462001c785762001ca8565b60ff1985168984015260608901955062001ca8565b896000528660002060005b8581101562001ca05781548b820186015290830190880162001c83565b8a0184019650505b509398975050505050505050565b634e487b7160e01b600052603260045260246000fd5b600080835462001cdc8162001afd565b6001828116801562001cf7576001811462001d095762001d3a565b60ff1984168752828701945062001d3a565b8760005260208060002060005b8581101562001d315781548a82015290840190820162001d16565b50505082870194505b50929695505050505050565b634e487b7160e01b600052601160045260246000fd5b60006001820162001d715762001d7162001d46565b5060010190565b7f416363657373436f6e74726f6c3a206163636f756e742000000000000000000081526000835162001db281601785016020880162001810565b7f206973206d697373696e6720726f6c6520000000000000000000000000000000601791840191820152835162001df181602884016020880162001810565b01602801949350505050565b600081600019048311821515161562001e1a5762001e1a62001d46565b500290565b6000821982111562001e355762001e3562001d46565b500190565b60008162001e4c5762001e4c62001d46565b50600019019056fe608060405260405162000fab38038062000fab833981016040819052620000269162000519565b82816200005560017f360894a13ba1a3210667c828492db98dca3e2076cc3735a920a3ca505d382bbd620005f9565b60008051602062000f64833981519152146200007557620000756200061f565b6200008382826000620000e7565b50620000b3905060017fb53127684a568b3173ae13b9f8a6016e243e63b6e8ee1178d6a717850b5d6104620005f9565b60008051602062000f4483398151915214620000d357620000d36200061f565b620000de8262000124565b50505062000688565b620000f2836200017f565b600082511180620001005750805b156200011f576200011d8383620001c160201b6200023e1760201c565b505b505050565b7f7e644d79422f17c01e4894b5f4f588d331ebfa28653d42ae832dc59e38c9798f6200014f620001f0565b604080516001600160a01b03928316815291841660208301520160405180910390a16200017c8162000229565b50565b6200018a81620002de565b6040516001600160a01b038216907fbc7cd75a20ee27fd9adebab32041f755214dbc6bffa90cc0225b39da2e5c2d3b90600090a250565b6060620001e9838360405180606001604052806027815260200162000f846027913962000381565b9392505050565b60006200021a60008051602062000f4483398151915260001b6200046760201b620001fa1760201c565b546001600160a01b0316919050565b6001600160a01b038116620002945760405162461bcd60e51b815260206004820152602660248201527f455243313936373a206e65772061646d696e20697320746865207a65726f206160448201526564647265737360d01b60648201526084015b60405180910390fd5b80620002bd60008051602062000f4483398151915260001b6200046760201b620001fa1760201c565b80546001600160a01b0319166001600160a01b039290921691909117905550565b620002f4816200046a60201b6200026a1760201c565b620003585760405162461bcd60e51b815260206004820152602d60248201527f455243313936373a206e657720696d706c656d656e746174696f6e206973206e60448201526c1bdd08184818dbdb9d1c9858dd609a1b60648201526084016200028b565b80620002bd60008051602062000f6483398151915260001b6200046760201b620001fa1760201c565b60606001600160a01b0384163b620003eb5760405162461bcd60e51b815260206004820152602660248201527f416464726573733a2064656c65676174652063616c6c20746f206e6f6e2d636f6044820152651b9d1c9858dd60d21b60648201526084016200028b565b600080856001600160a01b03168560405162000408919062000635565b600060405180830381855af49150503d806000811462000445576040519150601f19603f3d011682016040523d82523d6000602084013e6200044a565b606091505b5090925090506200045d82828662000479565b9695505050505050565b90565b6001600160a01b03163b151590565b606083156200048a575081620001e9565b8251156200049b5782518084602001fd5b8160405162461bcd60e51b81526004016200028b919062000653565b80516001600160a01b0381168114620004cf57600080fd5b919050565b634e487b7160e01b600052604160045260246000fd5b60005b8381101562000507578181015183820152602001620004ed565b838111156200011d5750506000910152565b6000806000606084860312156200052f57600080fd5b6200053a84620004b7565b92506200054a60208501620004b7565b60408501519092506001600160401b03808211156200056857600080fd5b818601915086601f8301126200057d57600080fd5b815181811115620005925762000592620004d4565b604051601f8201601f19908116603f01168101908382118183101715620005bd57620005bd620004d4565b81604052828152896020848701011115620005d757600080fd5b620005ea836020830160208801620004ea565b80955050505050509250925092565b6000828210156200061a57634e487b7160e01b600052601160045260246000fd5b500390565b634e487b7160e01b600052600160045260246000fd5b6000825162000649818460208701620004ea565b9190910192915050565b602081526000825180602084015262000674816040850160208701620004ea565b601f01601f19169190910160400192915050565b6108ac80620006986000396000f3fe60806040526004361061005e5760003560e01c80635c60da1b116100435780635c60da1b146100a85780638f283970146100d9578063f851a440146100f95761006d565b80633659cfe6146100755780634f1ef286146100955761006d565b3661006d5761006b61010e565b005b61006b61010e565b34801561008157600080fd5b5061006b610090366004610736565b610128565b61006b6100a3366004610751565b610165565b3480156100b457600080fd5b506100bd6101cc565b6040516001600160a01b03909116815260200160405180910390f35b3480156100e557600080fd5b5061006b6100f4366004610736565b6101fd565b34801561010557600080fd5b506100bd61021d565b610116610279565b610126610121610329565b610333565b565b610130610357565b6001600160a01b0316330361015d5761015a8160405180602001604052806000815250600061038a565b50565b61015a61010e565b61016d610357565b6001600160a01b031633036101c4576101bf8383838080601f0160208091040260200160405190810160405280939291908181526020018383808284376000920191909152506001925061038a915050565b505050565b6101bf61010e565b60006101d6610357565b6001600160a01b031633036101f2576101ed610329565b905090565b6101fa61010e565b90565b610205610357565b6001600160a01b0316330361015d5761015a816103b5565b6000610227610357565b6001600160a01b031633036101f2576101ed610357565b6060610263838360405180606001604052806027815260200161085060279139610409565b9392505050565b6001600160a01b03163b151590565b610281610357565b6001600160a01b031633036101265760405162461bcd60e51b815260206004820152604260248201527f5472616e73706172656e745570677261646561626c6550726f78793a2061646d60448201527f696e2063616e6e6f742066616c6c6261636b20746f2070726f7879207461726760648201527f6574000000000000000000000000000000000000000000000000000000000000608482015260a4015b60405180910390fd5b60006101ed6104fd565b3660008037600080366000845af43d6000803e808015610352573d6000f35b3d6000fd5b60007fb53127684a568b3173ae13b9f8a6016e243e63b6e8ee1178d6a717850b5d61035b546001600160a01b0316919050565b61039383610525565b6000825111806103a05750805b156101bf576103af838361023e565b50505050565b7f7e644d79422f17c01e4894b5f4f588d331ebfa28653d42ae832dc59e38c9798f6103de610357565b604080516001600160a01b03928316815291841660208301520160405180910390a161015a81610565565b60606001600160a01b0384163b6104885760405162461bcd60e51b815260206004820152602660248201527f416464726573733a2064656c65676174652063616c6c20746f206e6f6e2d636f60448201527f6e747261637400000000000000000000000000000000000000000000000000006064820152608401610320565b600080856001600160a01b0316856040516104a39190610800565b600060405180830381855af49150503d80600081146104de576040519150601f19603f3d011682016040523d82523d6000602084013e6104e3565b606091505b50915091506104f382828661063d565b9695505050505050565b60007f360894a13ba1a3210667c828492db98dca3e2076cc3735a920a3ca505d382bbc61037b565b61052e81610676565b6040516001600160a01b038216907fbc7cd75a20ee27fd9adebab32041f755214dbc6bffa90cc0225b39da2e5c2d3b90600090a250565b6001600160a01b0381166105e15760405162461bcd60e51b815260206004820152602660248201527f455243313936373a206e65772061646d696e20697320746865207a65726f206160448201527f64647265737300000000000000000000000000000000000000000000000000006064820152608401610320565b807fb53127684a568b3173ae13b9f8a6016e243e63b6e8ee1178d6a717850b5d61035b80547fffffffffffffffffffffffff0000000000000000000000000000000000000000166001600160a01b039290921691909117905550565b6060831561064c575081610263565b82511561065c5782518084602001fd5b8160405162461bcd60e51b8152600401610320919061081c565b6001600160a01b0381163b6106f35760405162461bcd60e51b815260206004820152602d60248201527f455243313936373a206e657720696d706c656d656e746174696f6e206973206e60448201527f6f74206120636f6e7472616374000000000000000000000000000000000000006064820152608401610320565b807f360894a13ba1a3210667c828492db98dca3e2076cc3735a920a3ca505d382bbc610604565b80356001600160a01b038116811461073157600080fd5b919050565b60006020828403121561074857600080fd5b6102638261071a565b60008060006040848603121561076657600080fd5b61076f8461071a565b9250602084013567ffffffffffffffff8082111561078c57600080fd5b818601915086601f8301126107a057600080fd5b8135818111156107af57600080fd5b8760208285010111156107c157600080fd5b6020830194508093505050509250925092565b60005b838110156107ef5781810151838201526020016107d7565b838111156103af5750506000910152565b600082516108128184602087016107d4565b9190910192915050565b602081526000825180602084015261083b8160408501602087016107d4565b601f01601f1916919091016040019291505056fe416464726573733a206c6f772d6c6576656c2064656c65676174652063616c6c206661696c6564a2646970667358221220b9ce9c921dde336de0c192f5670a1166b828b89c1f15416fa83c1058b6f1b0c564736f6c634300080e0033b53127684a568b3173ae13b9f8a6016e243e63b6e8ee1178d6a717850b5d6103360894a13ba1a3210667c828492db98dca3e2076cc3735a920a3ca505d382bbc416464726573733a206c6f772d6c6576656c2064656c65676174652063616c6c206661696c6564a2646970667358221220bd181c29a50872c9f062e017b60feb22ff0d47b7d62bf82db6c22e29273dc1ed64736f6c634300080e0033608060405234801561001057600080fd5b5061001a3361001f565b61006f565b600080546001600160a01b038381166001600160a01b0319831681178455604051919092169283917f8be0079c531659141344cd1fd0a4f28419497f9722a3daafe3b4186f6b6457e09190a35050565b6108a08061007e6000396000f3fe60806040526004361061007b5760003560e01c80639623609d1161004e5780639623609d1461011157806399a88ec414610124578063f2fde38b14610144578063f3b7dead1461016457600080fd5b8063204e1c7a14610080578063715018a6146100bc5780637eff275e146100d35780638da5cb5b146100f3575b600080fd5b34801561008c57600080fd5b506100a061009b366004610685565b610184565b6040516001600160a01b03909116815260200160405180910390f35b3480156100c857600080fd5b506100d161022e565b005b3480156100df57600080fd5b506100d16100ee3660046106a9565b610299565b3480156100ff57600080fd5b506000546001600160a01b03166100a0565b6100d161011f366004610711565b61036c565b34801561013057600080fd5b506100d161013f3660046106a9565b610446565b34801561015057600080fd5b506100d161015f366004610685565b6104e7565b34801561017057600080fd5b506100a061017f366004610685565b6105c9565b6000806000836001600160a01b03166040516101c3907f5c60da1b00000000000000000000000000000000000000000000000000000000815260040190565b600060405180830381855afa9150503d80600081146101fe576040519150601f19603f3d011682016040523d82523d6000602084013e610203565b606091505b50915091508161021257600080fd5b8080602001905181019061022691906107e7565b949350505050565b6000546001600160a01b0316331461028d5760405162461bcd60e51b815260206004820181905260248201527f4f776e61626c653a2063616c6c6572206973206e6f7420746865206f776e657260448201526064015b60405180910390fd5b6102976000610608565b565b6000546001600160a01b031633146102f35760405162461bcd60e51b815260206004820181905260248201527f4f776e61626c653a2063616c6c6572206973206e6f7420746865206f776e65726044820152606401610284565b6040517f8f2839700000000000000000000000000000000000000000000000000000000081526001600160a01b038281166004830152831690638f283970906024015b600060405180830381600087803b15801561035057600080fd5b505af1158015610364573d6000803e3d6000fd5b505050505050565b6000546001600160a01b031633146103c65760405162461bcd60e51b815260206004820181905260248201527f4f776e61626c653a2063616c6c6572206973206e6f7420746865206f776e65726044820152606401610284565b6040517f4f1ef2860000000000000000000000000000000000000000000000000000000081526001600160a01b03841690634f1ef28690349061040f9086908690600401610804565b6000604051808303818588803b15801561042857600080fd5b505af115801561043c573d6000803e3d6000fd5b5050505050505050565b6000546001600160a01b031633146104a05760405162461bcd60e51b815260206004820181905260248201527f4f776e61626c653a2063616c6c6572206973206e6f7420746865206f776e65726044820152606401610284565b6040517f3659cfe60000000000000000000000000000000000000000000000000000000081526001600160a01b038281166004830152831690633659cfe690602401610336565b6000546001600160a01b031633146105415760405162461bcd60e51b815260206004820181905260248201527f4f776e61626c653a2063616c6c6572206973206e6f7420746865206f776e65726044820152606401610284565b6001600160a01b0381166105bd5760405162461bcd60e51b815260206004820152602660248201527f4f776e61626c653a206e6577206f776e657220697320746865207a65726f206160448201527f64647265737300000000000000000000000000000000000000000000000000006064820152608401610284565b6105c681610608565b50565b6000806000836001600160a01b03166040516101c3907ff851a44000000000000000000000000000000000000000000000000000000000815260040190565b600080546001600160a01b038381167fffffffffffffffffffffffff0000000000000000000000000000000000000000831681178455604051919092169283917f8be0079c531659141344cd1fd0a4f28419497f9722a3daafe3b4186f6b6457e09190a35050565b6001600160a01b03811681146105c657600080fd5b60006020828403121561069757600080fd5b81356106a281610670565b9392505050565b600080604083850312156106bc57600080fd5b82356106c781610670565b915060208301356106d781610670565b809150509250929050565b7f4e487b7100000000000000000000000000000000000000000000000000000000600052604160045260246000fd5b60008060006060848603121561072657600080fd5b833561073181610670565b9250602084013561074181610670565b9150604084013567ffffffffffffffff8082111561075e57600080fd5b818601915086601f83011261077257600080fd5b813581811115610784576107846106e2565b604051601f8201601f19908116603f011681019083821181831017156107ac576107ac6106e2565b816040528281528960208487010111156107c557600080fd5b8260208601602083013760006020848301015280955050505050509250925092565b6000602082840312156107f957600080fd5b81516106a281610670565b6001600160a01b038316815260006020604081840152835180604085015260005b8181101561084157858101830151858201606001528201610825565b81811115610853576000606083870101525b50601f01601f19169290920160600194935050505056fea2646970667358221220c75a54e645e55808404382ff31b943904611117c715915bdf5cee114128d51a664736f6c634300080e00334b0db452378f08d8101ca4d73345872280c5ee705b53c7c193b4b414fa6047bc15aacb66e1cb6994a1b3dd63608eb3b46c82bf3eac1e1bf93b4bcb90ddec18dea2646970667358221220efd79c9bfc55fc4208e1f05cf5221a0dcf6aa97e1513fde70365e3518fdf94e564736f6c634300080e0033",
  "linkReferences": {},
  "deployedLinkReferences": {}
}