{
  "_format": "hh-sol-artifact-1",
  "contractName": "TestNFT",
  "sourceName": "contracts/Test/TestNFT.sol",
  "abi": [
    {
      "inputs": [
        {
          "internalType": "address",
          "name": "owner",
          "type": "address"
        },
        {
          "internalType": "string",
          "name": "name_",
          "type": "string"
        },
        {
          "internalType": "string",
          "name": "symbol_",
          "type": "string"
        }
      ],
      "stateMutability": "nonpayable",
      "type": "constructor"
    },
    {
      "anonymous": false,
      "inputs": [
        {
          "indexed": true,
          "internalType": "address",
          "name": "owner",
          "type": "address"
        },
        {
          "indexed": true,
          "internalType": "address",
          "name": "approved",
          "type": "address"
        },
        {
          "indexed": true,
          "internalType": "uint256",
          "name": "tokenId",
          "type": "uint256"
        }
      ],
      "name": "Approval",
      "type": "event"
    },
    {
      "anonymous": false,
      "inputs": [
        {
          "indexed": true,
          "internalType": "address",
          "name": "owner",
          "type": "address"
        },
        {
          "indexed": true,
          "internalType": "address",
          "name": "operator",
          "type": "address"
        },
        {
          "indexed": false,
          "internalType": "bool",
          "name": "approved",
          "type": "bool"
        }
      ],
      "name": "ApprovalForAll",
      "type": "event"
    },
    {
      "anonymous": false,
      "inputs": [
        {
          "indexed": false,
          "internalType": "uint8",
          "name": "version",
          "type": "uint8"
        }
      ],
      "name": "Initialized",
      "type": "event"
    },
    {
      "anonymous": false,
      "inputs": [
        {
          "indexed": false,
          "internalType": "uint256",
          "name": "oldTimestamp",
          "type": "uint256"
        },
        {
          "indexed": false,
          "internalType": "uint256",
          "name": "newTimestamp",
          "type": "uint256"
        }
      ],
      "name": "LogClaimTimestampUpdated",
      "type": "event"
    },
    {
      "anonymous": false,
      "inputs": [
        {
          "indexed": false,
          "internalType": "address",
          "name": "user",
          "type": "address"
        },
        {
          "indexed": false,
          "internalType": "string",
          "name": "cid",
          "type": "string"
        },
        {
          "indexed": false,
          "internalType": "uint256",
          "name": "timestamp",
          "type": "uint256"
        }
      ],
      "name": "LogClaimed",
      "type": "event"
    },
    {
      "anonymous": false,
      "inputs": [
        {
          "components": [
            {
              "internalType": "address",
              "name": "user",
              "type": "address"
            },
            {
              "internalType": "string[]",
              "name": "ipfs",
              "type": "string[]"
            },
            {
              "internalType": "uint256",
              "name": "timestamp",
              "type": "uint256"
            },
            {
              "internalType": "bool",
              "name": "isClaimed",
              "type": "bool"
            }
          ],
          "indexed": false,
          "internalType": "struct INFTLogic.UserWhitelist[]",
          "name": "whitelist",
          "type": "tuple[]"
        },
        {
          "indexed": false,
          "internalType": "uint256",
          "name": "startClaimTimestamp",
          "type": "uint256"
        }
      ],
      "name": "LogWhitelistSubmited",
      "type": "event"
    },
    {
      "anonymous": false,
      "inputs": [
        {
          "indexed": true,
          "internalType": "bytes32",
          "name": "role",
          "type": "bytes32"
        },
        {
          "indexed": true,
          "internalType": "bytes32",
          "name": "previousAdminRole",
          "type": "bytes32"
        },
        {
          "indexed": true,
          "internalType": "bytes32",
          "name": "newAdminRole",
          "type": "bytes32"
        }
      ],
      "name": "RoleAdminChanged",
      "type": "event"
    },
    {
      "anonymous": false,
      "inputs": [
        {
          "indexed": true,
          "internalType": "bytes32",
          "name": "role",
          "type": "bytes32"
        },
        {
          "indexed": true,
          "internalType": "address",
          "name": "account",
          "type": "address"
        },
        {
          "indexed": true,
          "internalType": "address",
          "name": "sender",
          "type": "address"
        }
      ],
      "name": "RoleGranted",
      "type": "event"
    },
    {
      "anonymous": false,
      "inputs": [
        {
          "indexed": true,
          "internalType": "bytes32",
          "name": "role",
          "type": "bytes32"
        },
        {
          "indexed": true,
          "internalType": "address",
          "name": "account",
          "type": "address"
        },
        {
          "indexed": true,
          "internalType": "address",
          "name": "sender",
          "type": "address"
        }
      ],
      "name": "RoleRevoked",
      "type": "event"
    },
    {
      "anonymous": false,
      "inputs": [
        {
          "indexed": true,
          "internalType": "address",
          "name": "from",
          "type": "address"
        },
        {
          "indexed": true,
          "internalType": "address",
          "name": "to",
          "type": "address"
        },
        {
          "indexed": true,
          "internalType": "uint256",
          "name": "tokenId",
          "type": "uint256"
        }
      ],
      "name": "Transfer",
      "type": "event"
    },
    {
      "stateMutability": "nonpayable",
      "type": "fallback"
    },
    {
      "inputs": [],
      "name": "DEFAULT_ADMIN_ROLE",
      "outputs": [
        {
          "internalType": "bytes32",
          "name": "",
          "type": "bytes32"
        }
      ],
      "stateMutability": "view",
      "type": "function"
    },
    {
      "inputs": [],
      "name": "WHITELIST_ROLE",
      "outputs": [
        {
          "internalType": "bytes32",
          "name": "",
          "type": "bytes32"
        }
      ],
      "stateMutability": "view",
      "type": "function"
    },
    {
      "inputs": [],
      "name": "WHITELIST_ROLE_ADMIN",
      "outputs": [
        {
          "internalType": "bytes32",
          "name": "",
          "type": "bytes32"
        }
      ],
      "stateMutability": "view",
      "type": "function"
    },
    {
      "inputs": [
        {
          "internalType": "address",
          "name": "newOwner",
          "type": "address"
        }
      ],
      "name": "afterControllerTransferOwnership",
      "outputs": [],
      "stateMutability": "nonpayable",
      "type": "function"
    },
    {
      "inputs": [
        {
          "internalType": "address",
          "name": "to",
          "type": "address"
        },
        {
          "internalType": "uint256",
          "name": "tokenId",
          "type": "uint256"
        }
      ],
      "name": "approve",
      "outputs": [],
      "stateMutability": "nonpayable",
      "type": "function"
    },
    {
      "inputs": [
        {
          "internalType": "address",
          "name": "owner",
          "type": "address"
        }
      ],
      "name": "balanceOf",
      "outputs": [
        {
          "internalType": "uint256",
          "name": "",
          "type": "uint256"
        }
      ],
      "stateMutability": "view",
      "type": "function"
    },
    {
      "inputs": [],
      "name": "claimAll",
      "outputs": [],
      "stateMutability": "nonpayable",
      "type": "function"
    },
    {
      "inputs": [
        {
          "internalType": "uint256",
          "name": "",
          "type": "uint256"
        }
      ],
      "name": "claimableList",
      "outputs": [
        {
          "internalType": "address",
          "name": "user",
          "type": "address"
        },
        {
          "internalType": "uint256",
          "name": "timestamp",
          "type": "uint256"
        },
        {
          "internalType": "bool",
          "name": "isClaimed",
          "type": "bool"
        }
      ],
      "stateMutability": "view",
      "type": "function"
    },
    {
      "inputs": [],
      "name": "currentTimestamp",
      "outputs": [
        {
          "internalType": "uint256",
          "name": "",
          "type": "uint256"
        }
      ],
      "stateMutability": "view",
      "type": "function"
    },
    {
      "inputs": [
        {
          "internalType": "uint256",
          "name": "",
          "type": "uint256"
        }
      ],
      "name": "currentWhitelist",
      "outputs": [
        {
          "internalType": "address",
          "name": "user",
          "type": "address"
        },
        {
          "internalType": "uint256",
          "name": "timestamp",
          "type": "uint256"
        },
        {
          "internalType": "bool",
          "name": "isClaimed",
          "type": "bool"
        }
      ],
      "stateMutability": "view",
      "type": "function"
    },
    {
      "inputs": [
        {
          "internalType": "uint256",
          "name": "tokenId",
          "type": "uint256"
        }
      ],
      "name": "getApproved",
      "outputs": [
        {
          "internalType": "address",
          "name": "",
          "type": "address"
        }
      ],
      "stateMutability": "view",
      "type": "function"
    },
    {
      "inputs": [
        {
          "internalType": "uint256",
          "name": "timestamp",
          "type": "uint256"
        }
      ],
      "name": "getClaimTimestampAllNft",
      "outputs": [
        {
          "components": [
            {
              "internalType": "address",
              "name": "user",
              "type": "address"
            },
            {
              "internalType": "string[]",
              "name": "ipfs",
              "type": "string[]"
            },
            {
              "internalType": "uint256",
              "name": "timestamp",
              "type": "uint256"
            },
            {
              "internalType": "bool",
              "name": "isClaimed",
              "type": "bool"
            }
          ],
          "internalType": "struct INFTLogic.UserWhitelist[]",
          "name": "list",
          "type": "tuple[]"
        }
      ],
      "stateMutability": "view",
      "type": "function"
    },
    {
      "inputs": [],
      "name": "getControllerAddr",
      "outputs": [
        {
          "internalType": "address",
          "name": "addr",
          "type": "address"
        }
      ],
      "stateMutability": "view",
      "type": "function"
    },
    {
      "inputs": [
        {
          "internalType": "bytes32",
          "name": "role",
          "type": "bytes32"
        }
      ],
      "name": "getRoleAdmin",
      "outputs": [
        {
          "internalType": "bytes32",
          "name": "",
          "type": "bytes32"
        }
      ],
      "stateMutability": "view",
      "type": "function"
    },
    {
      "inputs": [
        {
          "internalType": "bytes32",
          "name": "role",
          "type": "bytes32"
        },
        {
          "internalType": "uint256",
          "name": "index",
          "type": "uint256"
        }
      ],
      "name": "getRoleMember",
      "outputs": [
        {
          "internalType": "address",
          "name": "",
          "type": "address"
        }
      ],
      "stateMutability": "view",
      "type": "function"
    },
    {
      "inputs": [
        {
          "internalType": "bytes32",
          "name": "role",
          "type": "bytes32"
        }
      ],
      "name": "getRoleMemberCount",
      "outputs": [
        {
          "internalType": "uint256",
          "name": "",
          "type": "uint256"
        }
      ],
      "stateMutability": "view",
      "type": "function"
    },
    {
      "inputs": [
        {
          "internalType": "address",
          "name": "user",
          "type": "address"
        }
      ],
      "name": "getUserAllNft",
      "outputs": [
        {
          "components": [
            {
              "internalType": "address",
              "name": "user",
              "type": "address"
            },
            {
              "internalType": "string[]",
              "name": "ipfs",
              "type": "string[]"
            },
            {
              "internalType": "uint256",
              "name": "timestamp",
              "type": "uint256"
            },
            {
              "internalType": "bool",
              "name": "isClaimed",
              "type": "bool"
            }
          ],
          "internalType": "struct INFTLogic.UserWhitelist[]",
          "name": "list",
          "type": "tuple[]"
        }
      ],
      "stateMutability": "view",
      "type": "function"
    },
    {
      "inputs": [
        {
          "internalType": "bytes32",
          "name": "role",
          "type": "bytes32"
        },
        {
          "internalType": "address",
          "name": "account",
          "type": "address"
        }
      ],
      "name": "grantRole",
      "outputs": [],
      "stateMutability": "nonpayable",
      "type": "function"
    },
    {
      "inputs": [
        {
          "internalType": "bytes32",
          "name": "role",
          "type": "bytes32"
        },
        {
          "internalType": "address",
          "name": "account",
          "type": "address"
        }
      ],
      "name": "hasRole",
      "outputs": [
        {
          "internalType": "bool",
          "name": "",
          "type": "bool"
        }
      ],
      "stateMutability": "view",
      "type": "function"
    },
    {
      "inputs": [
        {
          "internalType": "address",
          "name": "owner",
          "type": "address"
        },
        {
          "internalType": "string",
          "name": "name_",
          "type": "string"
        },
        {
          "internalType": "string",
          "name": "symbol_",
          "type": "string"
        }
      ],
      "name": "initialize",
      "outputs": [],
      "stateMutability": "nonpayable",
      "type": "function"
    },
    {
      "inputs": [
        {
          "internalType": "address",
          "name": "owner",
          "type": "address"
        },
        {
          "internalType": "address",
          "name": "operator",
          "type": "address"
        }
      ],
      "name": "isApprovedForAll",
      "outputs": [
        {
          "internalType": "bool",
          "name": "",
          "type": "bool"
        }
      ],
      "stateMutability": "view",
      "type": "function"
    },
    {
      "inputs": [],
      "name": "name",
      "outputs": [
        {
          "internalType": "string",
          "name": "",
          "type": "string"
        }
      ],
      "stateMutability": "view",
      "type": "function"
    },
    {
      "inputs": [
        {
          "internalType": "uint256",
          "name": "tokenId",
          "type": "uint256"
        }
      ],
      "name": "ownerOf",
      "outputs": [
        {
          "internalType": "address",
          "name": "",
          "type": "address"
        }
      ],
      "stateMutability": "view",
      "type": "function"
    },
    {
      "inputs": [
        {
          "internalType": "bytes32",
          "name": "role",
          "type": "bytes32"
        },
        {
          "internalType": "address",
          "name": "account",
          "type": "address"
        }
      ],
      "name": "renounceRole",
      "outputs": [],
      "stateMutability": "nonpayable",
      "type": "function"
    },
    {
      "inputs": [
        {
          "internalType": "bytes32",
          "name": "role",
          "type": "bytes32"
        },
        {
          "internalType": "address",
          "name": "account",
          "type": "address"
        }
      ],
      "name": "revokeRole",
      "outputs": [],
      "stateMutability": "nonpayable",
      "type": "function"
    },
    {
      "inputs": [
        {
          "internalType": "address",
          "name": "from",
          "type": "address"
        },
        {
          "internalType": "address",
          "name": "to",
          "type": "address"
        },
        {
          "internalType": "uint256",
          "name": "tokenId",
          "type": "uint256"
        }
      ],
      "name": "safeTransferFrom",
      "outputs": [],
      "stateMutability": "nonpayable",
      "type": "function"
    },
    {
      "inputs": [
        {
          "internalType": "address",
          "name": "from",
          "type": "address"
        },
        {
          "internalType": "address",
          "name": "to",
          "type": "address"
        },
        {
          "internalType": "uint256",
          "name": "tokenId",
          "type": "uint256"
        },
        {
          "internalType": "bytes",
          "name": "_data",
          "type": "bytes"
        }
      ],
      "name": "safeTransferFrom",
      "outputs": [],
      "stateMutability": "nonpayable",
      "type": "function"
    },
    {
      "inputs": [
        {
          "internalType": "address",
          "name": "operator",
          "type": "address"
        },
        {
          "internalType": "bool",
          "name": "approved",
          "type": "bool"
        }
      ],
      "name": "setApprovalForAll",
      "outputs": [],
      "stateMutability": "nonpayable",
      "type": "function"
    },
    {
      "inputs": [
        {
          "internalType": "bytes[]",
          "name": "whitelist",
          "type": "bytes[]"
        },
        {
          "internalType": "uint256",
          "name": "startClaimTimestamp",
          "type": "uint256"
        }
      ],
      "name": "submitWhitelist",
      "outputs": [],
      "stateMutability": "nonpayable",
      "type": "function"
    },
    {
      "inputs": [
        {
          "internalType": "bytes4",
          "name": "interfaceId",
          "type": "bytes4"
        }
      ],
      "name": "supportsInterface",
      "outputs": [
        {
          "internalType": "bool",
          "name": "",
          "type": "bool"
        }
      ],
      "stateMutability": "view",
      "type": "function"
    },
    {
      "inputs": [],
      "name": "symbol",
      "outputs": [
        {
          "internalType": "string",
          "name": "",
          "type": "string"
        }
      ],
      "stateMutability": "view",
      "type": "function"
    },
    {
      "inputs": [
        {
          "internalType": "uint256",
          "name": "",
          "type": "uint256"
        }
      ],
      "name": "timestampHistory",
      "outputs": [
        {
          "internalType": "uint256",
          "name": "",
          "type": "uint256"
        }
      ],
      "stateMutability": "view",
      "type": "function"
    },
    {
      "inputs": [
        {
          "internalType": "uint256",
          "name": "tokenId",
          "type": "uint256"
        }
      ],
      "name": "tokenURI",
      "outputs": [
        {
          "internalType": "string",
          "name": "",
          "type": "string"
        }
      ],
      "stateMutability": "view",
      "type": "function"
    },
    {
      "inputs": [
        {
          "internalType": "address",
          "name": "from",
          "type": "address"
        },
        {
          "internalType": "address",
          "name": "to",
          "type": "address"
        },
        {
          "internalType": "uint256",
          "name": "tokenId",
          "type": "uint256"
        }
      ],
      "name": "transferFrom",
      "outputs": [],
      "stateMutability": "nonpayable",
      "type": "function"
    },
    {
      "inputs": [
        {
          "internalType": "uint256",
          "name": "newTimestamp",
          "type": "uint256"
        }
      ],
      "name": "updateClaimTimestamp",
      "outputs": [],
      "stateMutability": "nonpayable",
      "type": "function"
    }
  ],
  "bytecode": "0x60806040527fbebcb5420f0f627e11f01d229c07e3b3ad8b398e79591a20fdda11560e10086a61012d557fc4dba14120de8271d98813bbab5664de0d6175797e91f6e46156293e554ff90a61012e553480156200005b57600080fd5b5060405162004493380380620044938339810160408190526200007e9162000696565b6200008b83838362000094565b5050506200075c565b6000620000a260016200015f565b90508015620000bb576000805461ff0019166101001790555b620000c7838362000271565b620000df61012d5461012e54620002dd60201b60201c565b61012e54620000ef908562000328565b61012d54620000ff908562000328565b61012f80546001600160a01b03191633179055801562000159576000805461ff0019169055604051600181527f7f26b83ff96e1f2b6a682f133852f6798a09c465da95921460cefb38474024989060200160405180910390a15b50505050565b60008054610100900460ff1615620001f8578160ff16600114801562000198575062000196306200033460201b62001e291760201c565b155b620001f05760405162461bcd60e51b815260206004820152602e60248201526000805160206200445383398151915260448201526d191e481a5b9a5d1a585b1a5e995960921b60648201526084015b60405180910390fd5b506000919050565b60005460ff808416911610620002575760405162461bcd60e51b815260206004820152602e60248201526000805160206200445383398151915260448201526d191e481a5b9a5d1a585b1a5e995960921b6064820152608401620001e7565b506000805460ff191660ff92909216919091179055600190565b600054610100900460ff16620002cd5760405162461bcd60e51b815260206004820152602b60248201526000805160206200447383398151915260448201526a6e697469616c697a696e6760a81b6064820152608401620001e7565b620002d9828262000343565b5050565b600082815260c96020526040808220600101805490849055905190918391839186917fbd79b86ffe0ab8e8776151514217cd7cacd52c909f66475c3af44e129f0b00ff9190a4505050565b620002d98282620003cf565b6001600160a01b03163b151590565b600054610100900460ff166200039f5760405162461bcd60e51b815260206004820152602b60248201526000805160206200447383398151915260448201526a6e697469616c697a696e6760a81b6064820152608401620001e7565b8151620003b490606590602085019062000523565b508051620003ca90606690602084019062000523565b505050565b620003e682826200040d60201b62001e381760201c565b600082815260fb60209081526040909120620003ca91839062001eda620004b1821b17901c565b600082815260c9602090815260408083206001600160a01b038516845290915290205460ff16620002d957600082815260c9602090815260408083206001600160a01b03851684529091529020805460ff191660011790556200046d3390565b6001600160a01b0316816001600160a01b0316837f2f8788117e7eff1d82e926ec794901d17c78024a50270940304540a733656f0d60405160405180910390a45050565b6000620004c8836001600160a01b038416620004d1565b90505b92915050565b60008181526001830160205260408120546200051a57508154600181810184556000848152602080822090930184905584548482528286019093526040902091909155620004cb565b506000620004cb565b828054620005319062000720565b90600052602060002090601f016020900481019282620005555760008555620005a0565b82601f106200057057805160ff1916838001178555620005a0565b82800160010185558215620005a0579182015b82811115620005a057825182559160200191906001019062000583565b50620005ae929150620005b2565b5090565b5b80821115620005ae5760008155600101620005b3565b634e487b7160e01b600052604160045260246000fd5b600082601f830112620005f157600080fd5b81516001600160401b03808211156200060e576200060e620005c9565b604051601f8301601f19908116603f01168101908282118183101715620006395762000639620005c9565b816040528381526020925086838588010111156200065657600080fd5b600091505b838210156200067a57858201830151818301840152908201906200065b565b838211156200068c5760008385830101525b9695505050505050565b600080600060608486031215620006ac57600080fd5b83516001600160a01b0381168114620006c457600080fd5b60208501519093506001600160401b0380821115620006e257600080fd5b620006f087838801620005df565b935060408601519150808211156200070757600080fd5b506200071686828701620005df565b9150509250925092565b600181811c908216806200073557607f821691505b6020821081036200075657634e487b7160e01b600052602260045260246000fd5b50919050565b613ce7806200076c6000396000f3fe608060405234801561001057600080fd5b50600436106102235760003560e01c80637a997ab711610133578063a2abac72116100b4578063ca15c87311610086578063d547741f1161006e578063d547741f146104ef578063e985e9c514610502578063fcac77631461053e57005b8063ca15c873146104d4578063d1058e59146104e757005b8063a2abac7214610491578063a970cbf6146104a4578063b88d4fde146104ae578063c87b56dd146104c157005b806391d1485411610105578063964ddbb2116100ed578063964ddbb214610463578063a217fddf14610476578063a22cb4651461047e57005b806391d148541461042257806395d89b411461045b57005b80637a997ab7146103df5780638c7c02d9146103e95780639010d07c146103fc578063906571471461040f57005b806336568abe116101bd5780635f7822ba1161018f5780636c930bf1116101775780636c930bf11461039957806370a08231146103b95780637821b844146103cc57005b80635f7822ba146103745780636352211e1461038657005b806336568abe146103015780633da210721461031457806342842e0e1461034e5780635d4930481461036157005b80631e2ff94f116101f65780631e2ff94f146102a057806323b872dd146102b8578063248a9ca3146102cb5780632f2ff15d146102ee57005b806301ffc9a71461022557806306fdde031461024d578063081812fc14610262578063095ea7b31461028d575b005b610238610233366004613233565b610551565b60405190151581526020015b60405180910390f35b610255610571565b60405161024491906132a8565b6102756102703660046132bb565b610603565b6040516001600160a01b039091168152602001610244565b61022361029b3660046132eb565b61069d565b6102aa6101305481565b604051908152602001610244565b6102236102c6366004613315565b6107ce565b6102aa6102d93660046132bb565b600090815260c9602052604090206001015490565b6102236102fc366004613351565b610855565b61022361030f366004613351565b61087a565b6103276103223660046132bb565b610906565b604080516001600160a01b0390941684526020840192909252151590820152606001610244565b61022361035c366004613315565b610947565b61022361036f36600461337d565b610962565b61012f546001600160a01b0316610275565b6102756103943660046132bb565b610cd5565b6103ac6103a73660046132bb565b610d60565b60405161024491906133f8565b6102aa6103c73660046134d2565b6110b3565b6103276103da3660046132bb565b61114d565b6102aa61012d5481565b6102aa6103f73660046132bb565b61115e565b61027561040a3660046134ed565b611180565b61022361041d3660046135f7565b61119f565b610238610430366004613351565b600091825260c9602090815260408084206001600160a01b0393909316845291905290205460ff1690565b610255611252565b6102236104713660046132bb565b611261565b6102aa600081565b61022361048c36600461367b565b611304565b6103ac61049f3660046134d2565b61130f565b6102aa61012e5481565b6102236104bc3660046136a5565b61167d565b6102556104cf3660046132bb565b611705565b6102aa6104e23660046132bb565b611897565b6102236118ae565b6102236104fd366004613351565b611d72565b610238610510366004613721565b6001600160a01b039182166000908152606a6020908152604080832093909416825291909152205460ff1690565b61022361054c3660046134d2565b611d97565b600061055c82611eef565b8061056b575061056b82611f8a565b92915050565b6060606580546105809061374b565b80601f01602080910402602001604051908101604052809291908181526020018280546105ac9061374b565b80156105f95780601f106105ce576101008083540402835291602001916105f9565b820191906000526020600020905b8154815290600101906020018083116105dc57829003601f168201915b5050505050905090565b6000818152606760205260408120546001600160a01b03166106815760405162461bcd60e51b815260206004820152602c60248201527f4552433732313a20617070726f76656420717565727920666f72206e6f6e657860448201526b34b9ba32b73a103a37b5b2b760a11b60648201526084015b60405180910390fd5b506000908152606960205260409020546001600160a01b031690565b60006106a882610cd5565b9050806001600160a01b0316836001600160a01b0316036107315760405162461bcd60e51b815260206004820152602160248201527f4552433732313a20617070726f76616c20746f2063757272656e74206f776e6560448201527f72000000000000000000000000000000000000000000000000000000000000006064820152608401610678565b336001600160a01b038216148061074d575061074d8133610510565b6107bf5760405162461bcd60e51b815260206004820152603860248201527f4552433732313a20617070726f76652063616c6c6572206973206e6f74206f7760448201527f6e6572206e6f7220617070726f76656420666f7220616c6c00000000000000006064820152608401610678565b6107c98383611fc8565b505050565b6107d83382612036565b61084a5760405162461bcd60e51b815260206004820152603160248201527f4552433732313a207472616e736665722063616c6c6572206973206e6f74206f60448201527f776e6572206e6f7220617070726f7665640000000000000000000000000000006064820152608401610678565b6107c983838361212c565b600082815260c9602052604090206001015461087081612174565b6107c9838361217e565b6001600160a01b03811633146108f85760405162461bcd60e51b815260206004820152602f60248201527f416363657373436f6e74726f6c3a2063616e206f6e6c792072656e6f756e636560448201527f20726f6c657320666f722073656c6600000000000000000000000000000000006064820152608401610678565b61090282826121a0565b5050565b610133818154811061091757600080fd5b60009182526020909120600490910201805460028201546003909201546001600160a01b03909116925060ff1683565b6107c98383836040518060200160405280600081525061167d565b61012d5461096f81612174565b6101305442118061098257508161013054145b6109f45760405162461bcd60e51b815260206004820152603960248201527f63616e206e6f74207375626d69742061206e6577206c6973742c706c6561736560448201527f2075736520757064617465436c61696d54696d657374616d70000000000000006064820152608401610678565b61013054821115610af75760005b61013254811015610ab9576101336101328281548110610a2457610a24613785565b6000918252602080832084546001818101875595855291909320600492830290930180549190920290920180546001600160a01b0319166001600160a01b0390931692909217825582810180549193610a81929084019190612f83565b50600282810154908201556003918201549101805460ff191660ff909216151591909117905580610ab1816137b1565b915050610a02565b5061013082905561013180546001810182556000919091527fbd987ad6ccdb7c7567f7335ea839f95dc944431abcf935b6924f70215963db73018290555b428211610b6c5760405162461bcd60e51b815260206004820152603160248201527f737461727420636c61696d2074696d657374616d70206d75737420626568696e60448201527f6420626c6f636b2074696d657374616d700000000000000000000000000000006064820152608401610678565b610b796101326000612fe9565b60005b83811015610c93576000858583818110610b9857610b98613785565b9050602002810190610baa91906137ca565b810190610bb79190613818565b6000606082018190526040820186905261013280546001810182559152815160049091027fc53bdfd4aa1ab65dfdaf681ca6bda958ae4a123d4ed68c4277796592280e7835810180546001600160a01b039093166001600160a01b031990931692909217825560208084015180519495508594610c5b937fc53bdfd4aa1ab65dfdaf681ca6bda958ae4a123d4ed68c4277796592280e78360192919091019061300a565b50604082015160028201556060909101516003909101805460ff19169115159190911790555080610c8b816137b1565b915050610b7c565b507f0de9b52db718f858cd6ce50363fbc3cd5010501a168bf9a89ccbfcb73686a62f61013283604051610cc79291906139d0565b60405180910390a150505050565b6000818152606760205260408120546001600160a01b03168061056b5760405162461bcd60e51b815260206004820152602960248201527f4552433732313a206f776e657220717565727920666f72206e6f6e657869737460448201527f656e7420746f6b656e00000000000000000000000000000000000000000000006064820152608401610678565b60606000805b61013254811015610f0757836101328281548110610d8657610d86613785565b90600052602060002090600402016002015403610ef5576101328181548110610db157610db1613785565b6000918252602080832060408051608081018252600490940290910180546001600160a01b0316845260018101805483518186028101860190945280845294959194868501949192909184015b82821015610eaa578382906000526020600020018054610e1d9061374b565b80601f0160208091040260200160405190810160405280929190818152602001828054610e499061374b565b8015610e965780601f10610e6b57610100808354040283529160200191610e96565b820191906000526020600020905b815481529060010190602001808311610e7957829003601f168201915b505050505081526020019060010190610dfe565b505050908252506002820154602082015260039091015460ff1615156040909101528383610ed7816137b1565b945081518110610ee957610ee9613785565b60200260200101819052505b80610eff816137b1565b915050610d66565b5060005b610133548110156110ac57836101338281548110610f2b57610f2b613785565b9060005260206000209060040201600201540361109a576101338181548110610f5657610f56613785565b6000918252602080832060408051608081018252600490940290910180546001600160a01b0316845260018101805483518186028101860190945280845294959194868501949192909184015b8282101561104f578382906000526020600020018054610fc29061374b565b80601f0160208091040260200160405190810160405280929190818152602001828054610fee9061374b565b801561103b5780601f106110105761010080835404028352916020019161103b565b820191906000526020600020905b81548152906001019060200180831161101e57829003601f168201915b505050505081526020019060010190610fa3565b505050908252506002820154602082015260039091015460ff161515604090910152838361107c816137b1565b94508151811061108e5761108e613785565b60200260200101819052505b806110a4816137b1565b915050610f0b565b5050919050565b60006001600160a01b0382166111315760405162461bcd60e51b815260206004820152602a60248201527f4552433732313a2062616c616e636520717565727920666f7220746865207a6560448201527f726f2061646472657373000000000000000000000000000000000000000000006064820152608401610678565b506001600160a01b031660009081526068602052604090205490565b610132818154811061091757600080fd5b610131818154811061116f57600080fd5b600091825260209091200154905081565b600082815260fb6020526040812061119890836121c2565b9392505050565b60006111ab60016121ce565b905080156111c3576000805461ff0019166101001790555b6111cd8383612307565b6111dd61012d5461012e5461237c565b6111ea61012e54856123c7565b6111f761012d54856123c7565b61012f80546001600160a01b03191633179055801561124c576000805461ff0019169055604051600181527f7f26b83ff96e1f2b6a682f133852f6798a09c465da95921460cefb384740249890602001610cc7565b50505050565b6060606680546105809061374b565b61012d5461126e81612174565b4261013054116112c05760405162461bcd60e51b815260206004820152601c60248201527f63616e206e6f74207570646174652c706c65617365207375626d6974000000006044820152606401610678565b6101305460408051918252602082018490527fb688b57684741dbc5405699744de81ca211fd0892acf9d31b911bbacc1f5b65f910160405180910390a15061013055565b6109023383836123d1565b60606000805b610132548110156114c757836001600160a01b0316610132828154811061133e5761133e613785565b60009182526020909120600490910201546001600160a01b0316036114b557610132818154811061137157611371613785565b6000918252602080832060408051608081018252600490940290910180546001600160a01b0316845260018101805483518186028101860190945280845294959194868501949192909184015b8282101561146a5783829060005260206000200180546113dd9061374b565b80601f01602080910402602001604051908101604052809291908181526020018280546114099061374b565b80156114565780601f1061142b57610100808354040283529160200191611456565b820191906000526020600020905b81548152906001019060200180831161143957829003601f168201915b5050505050815260200190600101906113be565b505050908252506002820154602082015260039091015460ff1615156040909101528383611497816137b1565b9450815181106114a9576114a9613785565b60200260200101819052505b806114bf816137b1565b915050611315565b5060005b610133548110156110ac57836001600160a01b031661013382815481106114f4576114f4613785565b60009182526020909120600490910201546001600160a01b03160361166b57610133818154811061152757611527613785565b6000918252602080832060408051608081018252600490940290910180546001600160a01b0316845260018101805483518186028101860190945280845294959194868501949192909184015b828210156116205783829060005260206000200180546115939061374b565b80601f01602080910402602001604051908101604052809291908181526020018280546115bf9061374b565b801561160c5780601f106115e15761010080835404028352916020019161160c565b820191906000526020600020905b8154815290600101906020018083116115ef57829003601f168201915b505050505081526020019060010190611574565b505050908252506002820154602082015260039091015460ff161515604090910152838361164d816137b1565b94508151811061165f5761165f613785565b60200260200101819052505b80611675816137b1565b9150506114cb565b6116873383612036565b6116f95760405162461bcd60e51b815260206004820152603160248201527f4552433732313a207472616e736665722063616c6c6572206973206e6f74206f60448201527f776e6572206e6f7220617070726f7665640000000000000000000000000000006064820152608401610678565b61124c8484848461249f565b6000818152606760205260409020546060906001600160a01b03166117925760405162461bcd60e51b815260206004820152603160248201527f45524337323155524953746f726167653a2055524920717565727920666f722060448201527f6e6f6e6578697374656e7420746f6b656e0000000000000000000000000000006064820152608401610678565b600082815260976020526040812080546117ab9061374b565b80601f01602080910402602001604051908101604052809291908181526020018280546117d79061374b565b80156118245780601f106117f957610100808354040283529160200191611824565b820191906000526020600020905b81548152906001019060200180831161180757829003601f168201915b50505050509050600061184260408051602081019091526000815290565b90508051600003611854575092915050565b81511561188657808260405160200161186e929190613abd565b60405160208183030381529060405292505050919050565b61188f84612528565b949350505050565b600081815260fb6020526040812061056b9061261d565b61013254339015611b8a57426101326000815481106118cf576118cf613785565b90600052602060002090600402016002015411611b8a5760005b61013254811015611b8857816001600160a01b0316610132828154811061191257611912613785565b60009182526020909120600490910201546001600160a01b03161480156119615750610132818154811061194857611948613785565b600091825260209091206003600490920201015460ff16155b15611b76576001610132828154811061197c5761197c613785565b60009182526020822060049190910201600301805460ff1916921515929092179091555b61013282815481106119b4576119b4613785565b906000526020600020906004020160010180549050811015611b74576119dd8361013454612627565b6101348054611ac39160006119f1836137b1565b919050556101328481548110611a0957611a09613785565b90600052602060002090600402016001018381548110611a2b57611a2b613785565b906000526020600020018054611a409061374b565b80601f0160208091040260200160405190810160405280929190818152602001828054611a6c9061374b565b8015611ab95780601f10611a8e57610100808354040283529160200191611ab9565b820191906000526020600020905b815481529060010190602001808311611a9c57829003601f168201915b5050505050612769565b7f8ca0a277bd5317dd6be256a279f57797ef5d9b7456be573d5a26678121db602a836101328481548110611af957611af9613785565b90600052602060002090600402016001018381548110611b1b57611b1b613785565b906000526020600020016101328581548110611b3957611b39613785565b906000526020600020906004020160020154604051611b5a93929190613aec565b60405180910390a180611b6c816137b1565b9150506119a0565b505b80611b80816137b1565b9150506118e9565b505b60005b6101335481101561090257816001600160a01b03166101338281548110611bb657611bb6613785565b60009182526020909120600490910201546001600160a01b0316148015611c0557506101338181548110611bec57611bec613785565b600091825260209091206003600490920201015460ff16155b15611d605760016101338281548110611c2057611c20613785565b60009182526020822060049190910201600301805460ff1916921515929092179091555b6101338281548110611c5857611c58613785565b906000526020600020906004020160010180549050811015611d5e57611c818361013454612627565b6101348054611cad916000611c95836137b1565b919050556101338481548110611a0957611a09613785565b7f8ca0a277bd5317dd6be256a279f57797ef5d9b7456be573d5a26678121db602a836101338481548110611ce357611ce3613785565b90600052602060002090600402016001018381548110611d0557611d05613785565b906000526020600020016101338581548110611d2357611d23613785565b906000526020600020906004020160020154604051611d4493929190613aec565b60405180910390a180611d56816137b1565b915050611c44565b505b80611d6a816137b1565b915050611b8d565b600082815260c96020526040902060010154611d8d81612174565b6107c983836121a0565b61012f546001600160a01b03163314611df25760405162461bcd60e51b815260206004820152600860248201527f6e6f2061757468210000000000000000000000000000000000000000000000006044820152606401610678565b611e0c61012e54611e0761012e546000611180565b6121a0565b611e1961012e54826123c7565b611e2661012d54826123c7565b50565b6001600160a01b03163b151590565b600082815260c9602090815260408083206001600160a01b038516845290915290205460ff1661090257600082815260c9602090815260408083206001600160a01b03851684529091529020805460ff19166001179055611e963390565b6001600160a01b0316816001600160a01b0316837f2f8788117e7eff1d82e926ec794901d17c78024a50270940304540a733656f0d60405160405180910390a45050565b6000611198836001600160a01b038416612812565b60006001600160e01b031982167f80ac58cd000000000000000000000000000000000000000000000000000000001480611f5257506001600160e01b031982167f5b5e139f00000000000000000000000000000000000000000000000000000000145b8061056b57507f01ffc9a7000000000000000000000000000000000000000000000000000000006001600160e01b031983161461056b565b60006001600160e01b031982167f5a05180f00000000000000000000000000000000000000000000000000000000148061056b575061056b82612861565b600081815260696020526040902080546001600160a01b0319166001600160a01b0384169081179091558190611ffd82610cd5565b6001600160a01b03167f8c5be1e5ebec7d5bd14f71427d1e84f3dd0314c0f7b2291e5b200ac8c7c3b92560405160405180910390a45050565b6000818152606760205260408120546001600160a01b03166120af5760405162461bcd60e51b815260206004820152602c60248201527f4552433732313a206f70657261746f7220717565727920666f72206e6f6e657860448201526b34b9ba32b73a103a37b5b2b760a11b6064820152608401610678565b60006120ba83610cd5565b9050806001600160a01b0316846001600160a01b0316148061210157506001600160a01b038082166000908152606a602090815260408083209388168352929052205460ff165b8061188f5750836001600160a01b031661211a84610603565b6001600160a01b031614949350505050565b60405162461bcd60e51b815260206004820152601660248201527f206e667420697320756e7472616e7366657261626c65000000000000000000006044820152606401610678565b611e26813361289f565b6121888282611e38565b600082815260fb602052604090206107c99082611eda565b6121aa828261291f565b600082815260fb602052604090206107c990826129a2565b600061119883836129b7565b60008054610100900460ff161561226b578160ff1660011480156121f15750303b155b6122635760405162461bcd60e51b815260206004820152602e60248201527f496e697469616c697a61626c653a20636f6e747261637420697320616c72656160448201527f647920696e697469616c697a65640000000000000000000000000000000000006064820152608401610678565b506000919050565b60005460ff8084169116106122e85760405162461bcd60e51b815260206004820152602e60248201527f496e697469616c697a61626c653a20636f6e747261637420697320616c72656160448201527f647920696e697469616c697a65640000000000000000000000000000000000006064820152608401610678565b506000805460ff191660ff92909216919091179055600190565b919050565b600054610100900460ff166123725760405162461bcd60e51b815260206004820152602b60248201527f496e697469616c697a61626c653a20636f6e7472616374206973206e6f74206960448201526a6e697469616c697a696e6760a81b6064820152608401610678565b61090282826129e1565b600082815260c96020526040808220600101805490849055905190918391839186917fbd79b86ffe0ab8e8776151514217cd7cacd52c909f66475c3af44e129f0b00ff9190a4505050565b610902828261217e565b816001600160a01b0316836001600160a01b0316036124325760405162461bcd60e51b815260206004820152601960248201527f4552433732313a20617070726f766520746f2063616c6c6572000000000000006044820152606401610678565b6001600160a01b038381166000818152606a6020908152604080832094871680845294825291829020805460ff191686151590811790915591519182527f17307eab39ab6107e8899845ad3d59bd9653f200f220920489ca2b5937696c31910160405180910390a3505050565b6124aa84848461212c565b6124b684848484612a73565b61124c5760405162461bcd60e51b815260206004820152603260248201527f4552433732313a207472616e7366657220746f206e6f6e20455243373231526560448201527f63656976657220696d706c656d656e74657200000000000000000000000000006064820152608401610678565b6000818152606760205260409020546060906001600160a01b03166125b55760405162461bcd60e51b815260206004820152602f60248201527f4552433732314d657461646174613a2055524920717565727920666f72206e6f60448201527f6e6578697374656e7420746f6b656e00000000000000000000000000000000006064820152608401610678565b60006125cc60408051602081019091526000815290565b905060008151116125ec5760405180602001604052806000815250611198565b806125f684612bca565b604051602001612607929190613abd565b6040516020818303038152906040529392505050565b600061056b825490565b6001600160a01b03821661267d5760405162461bcd60e51b815260206004820181905260248201527f4552433732313a206d696e7420746f20746865207a65726f20616464726573736044820152606401610678565b6000818152606760205260409020546001600160a01b0316156126e25760405162461bcd60e51b815260206004820152601c60248201527f4552433732313a20746f6b656e20616c7265616479206d696e746564000000006044820152606401610678565b6001600160a01b038216600090815260686020526040812080546001929061270b908490613b1e565b909155505060008181526067602052604080822080546001600160a01b0319166001600160a01b03861690811790915590518392907fddf252ad1be2c89b69c2b068fc378daa952ba7f163c4a11628f55a4df523b3ef908290a45050565b6000828152606760205260409020546001600160a01b03166127f35760405162461bcd60e51b815260206004820152602e60248201527f45524337323155524953746f726167653a2055524920736574206f66206e6f6e60448201527f6578697374656e7420746f6b656e0000000000000000000000000000000000006064820152608401610678565b600082815260976020908152604090912082516107c992840190613057565b60008181526001830160205260408120546128595750815460018181018455600084815260208082209093018490558454848252828601909352604090209190915561056b565b50600061056b565b60006001600160e01b031982167f7965db0b00000000000000000000000000000000000000000000000000000000148061056b575061056b82611eef565b600082815260c9602090815260408083206001600160a01b038516845290915290205460ff16610902576128dd816001600160a01b03166014612ccb565b6128e8836020612ccb565b6040516020016128f9929190613b36565b60408051601f198184030181529082905262461bcd60e51b8252610678916004016132a8565b600082815260c9602090815260408083206001600160a01b038516845290915290205460ff161561090257600082815260c9602090815260408083206001600160a01b0385168085529252808320805460ff1916905551339285917ff6391f5c32d9c69d2a47ea670b442974b53935d1edc7fd64eb21e047a839171b9190a45050565b6000611198836001600160a01b038416612e90565b60008260000182815481106129ce576129ce613785565b9060005260206000200154905092915050565b600054610100900460ff16612a4c5760405162461bcd60e51b815260206004820152602b60248201527f496e697469616c697a61626c653a20636f6e7472616374206973206e6f74206960448201526a6e697469616c697a696e6760a81b6064820152608401610678565b8151612a5f906065906020850190613057565b5080516107c9906066906020840190613057565b60006001600160a01b0384163b15612bbf57604051630a85bd0160e11b81526001600160a01b0385169063150b7a0290612ab7903390899088908890600401613bb7565b6020604051808303816000875af1925050508015612af2575060408051601f3d908101601f19168201909252612aef91810190613bf3565b60015b612ba5573d808015612b20576040519150601f19603f3d011682016040523d82523d6000602084013e612b25565b606091505b508051600003612b9d5760405162461bcd60e51b815260206004820152603260248201527f4552433732313a207472616e7366657220746f206e6f6e20455243373231526560448201527f63656976657220696d706c656d656e74657200000000000000000000000000006064820152608401610678565b805181602001fd5b6001600160e01b031916630a85bd0160e11b14905061188f565b506001949350505050565b606081600003612bf15750506040805180820190915260018152600360fc1b602082015290565b8160005b8115612c1b5780612c05816137b1565b9150612c149050600a83613c26565b9150612bf5565b60008167ffffffffffffffff811115612c3657612c3661350f565b6040519080825280601f01601f191660200182016040528015612c60576020820181803683370190505b5090505b841561188f57612c75600183613c3a565b9150612c82600a86613c51565b612c8d906030613b1e565b60f81b818381518110612ca257612ca2613785565b60200101906001600160f81b031916908160001a905350612cc4600a86613c26565b9450612c64565b60606000612cda836002613c65565b612ce5906002613b1e565b67ffffffffffffffff811115612cfd57612cfd61350f565b6040519080825280601f01601f191660200182016040528015612d27576020820181803683370190505b509050600360fc1b81600081518110612d4257612d42613785565b60200101906001600160f81b031916908160001a9053507f780000000000000000000000000000000000000000000000000000000000000081600181518110612d8d57612d8d613785565b60200101906001600160f81b031916908160001a9053506000612db1846002613c65565b612dbc906001613b1e565b90505b6001811115612e41577f303132333435363738396162636465660000000000000000000000000000000085600f1660108110612dfd57612dfd613785565b1a60f81b828281518110612e1357612e13613785565b60200101906001600160f81b031916908160001a90535060049490941c93612e3a81613c84565b9050612dbf565b5083156111985760405162461bcd60e51b815260206004820181905260248201527f537472696e67733a20686578206c656e67746820696e73756666696369656e746044820152606401610678565b60008181526001830160205260408120548015612f79576000612eb4600183613c3a565b8554909150600090612ec890600190613c3a565b9050818114612f2d576000866000018281548110612ee857612ee8613785565b9060005260206000200154905080876000018481548110612f0b57612f0b613785565b6000918252602080832090910192909255918252600188019052604090208390555b8554869080612f3e57612f3e613c9b565b60019003818190600052602060002001600090559055856001016000868152602001908152602001600020600090556001935050505061056b565b600091505061056b565b828054828255906000526020600020908101928215612fd95760005260206000209182015b82811115612fd9578282908054612fbe9061374b565b612fc99291906130d7565b5091600101919060010190612fa8565b50612fe5929150613152565b5090565b5080546000825560040290600052602060002090810190611e26919061316f565b828054828255906000526020600020908101928215612fd9579160200282015b82811115612fd95782518051613047918491602090910190613057565b509160200191906001019061302a565b8280546130639061374b565b90600052602060002090601f01602090048101928261308557600085556130cb565b82601f1061309e57805160ff19168380011785556130cb565b828001600101855582156130cb579182015b828111156130cb5782518255916020019190600101906130b0565b50612fe59291506131b0565b8280546130e39061374b565b90600052602060002090601f01602090048101928261310557600085556130cb565b82601f1061311657805485556130cb565b828001600101855582156130cb57600052602060002091601f016020900482015b828111156130cb578254825591600101919060010190613137565b80821115612fe557600061316682826131c5565b50600101613152565b80821115612fe55780546001600160a01b0319168155600061319460018301826131ff565b506000600282015560038101805460ff1916905560040161316f565b5b80821115612fe557600081556001016131b1565b5080546131d19061374b565b6000825580601f106131e1575050565b601f016020900490600052602060002090810190611e2691906131b0565b5080546000825590600052602060002090810190611e269190613152565b6001600160e01b031981168114611e2657600080fd5b60006020828403121561324557600080fd5b81356111988161321d565b60005b8381101561326b578181015183820152602001613253565b8381111561124c5750506000910152565b60008151808452613294816020860160208601613250565b601f01601f19169290920160200192915050565b602081526000611198602083018461327c565b6000602082840312156132cd57600080fd5b5035919050565b80356001600160a01b038116811461230257600080fd5b600080604083850312156132fe57600080fd5b613307836132d4565b946020939093013593505050565b60008060006060848603121561332a57600080fd5b613333846132d4565b9250613341602085016132d4565b9150604084013590509250925092565b6000806040838503121561336457600080fd5b82359150613374602084016132d4565b90509250929050565b60008060006040848603121561339257600080fd5b833567ffffffffffffffff808211156133aa57600080fd5b818601915086601f8301126133be57600080fd5b8135818111156133cd57600080fd5b8760208260051b85010111156133e257600080fd5b6020928301989097509590910135949350505050565b602080825282518282018190526000919060409081850190600581811b8701840188860187805b858110156134c2578a8403603f19018752825180516001600160a01b031685528981015160808b8701819052815190870181905260a080880192828a1b890190910191908d0190865b8181101561349657609f198a850301855261348484845161327c565b948f01949350918e0191600101613468565b505050828b0151878c01526060928301511515929096019190915250958801959188019160010161341f565b50919a9950505050505050505050565b6000602082840312156134e457600080fd5b611198826132d4565b6000806040838503121561350057600080fd5b50508035926020909101359150565b634e487b7160e01b600052604160045260246000fd5b6040516080810167ffffffffffffffff811182821017156135485761354861350f565b60405290565b604051601f8201601f1916810167ffffffffffffffff811182821017156135775761357761350f565b604052919050565b600067ffffffffffffffff8311156135995761359961350f565b6135ac601f8401601f191660200161354e565b90508281528383830111156135c057600080fd5b828260208301376000602084830101529392505050565b600082601f8301126135e857600080fd5b6111988383356020850161357f565b60008060006060848603121561360c57600080fd5b613615846132d4565b9250602084013567ffffffffffffffff8082111561363257600080fd5b61363e878388016135d7565b9350604086013591508082111561365457600080fd5b50613661868287016135d7565b9150509250925092565b8035801515811461230257600080fd5b6000806040838503121561368e57600080fd5b613697836132d4565b91506133746020840161366b565b600080600080608085870312156136bb57600080fd5b6136c4856132d4565b93506136d2602086016132d4565b925060408501359150606085013567ffffffffffffffff8111156136f557600080fd5b8501601f8101871361370657600080fd5b6137158782356020840161357f565b91505092959194509250565b6000806040838503121561373457600080fd5b61373d836132d4565b9150613374602084016132d4565b600181811c9082168061375f57607f821691505b60208210810361377f57634e487b7160e01b600052602260045260246000fd5b50919050565b634e487b7160e01b600052603260045260246000fd5b634e487b7160e01b600052601160045260246000fd5b6000600182016137c3576137c361379b565b5060010190565b6000808335601e198436030181126137e157600080fd5b83018035915067ffffffffffffffff8211156137fc57600080fd5b60200191503681900382131561381157600080fd5b9250929050565b6000602080838503121561382b57600080fd5b823567ffffffffffffffff8082111561384357600080fd5b908401906080828703121561385757600080fd5b61385f613525565b613868836132d4565b8152838301358281111561387b57600080fd5b8301601f8101881361388c57600080fd5b80358381111561389e5761389e61350f565b8060051b6138ad87820161354e565b918252828101870191878101908b8411156138c757600080fd5b88850192505b83831015613903578235878111156138e55760008081fd5b6138f38d8b838901016135d7565b83525091880191908801906138cd565b8589015250505050604083810135908201526139216060840161366b565b60608201529695505050505050565b8054600090600181811c908083168061394a57607f831692505b6020808410820361396b57634e487b7160e01b600052602260045260246000fd5b8388528180156139825760018114613996576139c4565b60ff198616898301526040890196506139c4565b876000528160002060005b868110156139bc5781548b82018501529085019083016139a1565b8a0183019750505b50505050505092915050565b6000604080830181845280865480835260609250828601915060058382821b88010160008a81526020808220825b86811015613aa6578b8503605f1901885281546001600160a01b03168552608083860181905260018084018054928801839052865284862060a080890193808b1b8a01909101929190885b81811015613a75578a8503609f19018652613a648584613930565b958901959450918301918301613a49565b5050505060028401548c880152600384015460ff161515968b019690965250968201966004909101906001016139fe565b505098909801989098525095979650505050505050565b60008351613acf818460208801613250565b835190830190613ae3818360208801613250565b01949350505050565b6001600160a01b0384168152606060208201526000613b0e6060830185613930565b9050826040830152949350505050565b60008219821115613b3157613b3161379b565b500190565b7f416363657373436f6e74726f6c3a206163636f756e7420000000000000000000815260008351613b6e816017850160208801613250565b7f206973206d697373696e6720726f6c65200000000000000000000000000000006017918401918201528351613bab816028840160208801613250565b01602801949350505050565b60006001600160a01b03808716835280861660208401525083604083015260806060830152613be9608083018461327c565b9695505050505050565b600060208284031215613c0557600080fd5b81516111988161321d565b634e487b7160e01b600052601260045260246000fd5b600082613c3557613c35613c10565b500490565b600082821015613c4c57613c4c61379b565b500390565b600082613c6057613c60613c10565b500690565b6000816000190483118215151615613c7f57613c7f61379b565b500290565b600081613c9357613c9361379b565b506000190190565b634e487b7160e01b600052603160045260246000fdfea2646970667358221220720962a1dc81c74b62f5c925d45ddec25a32d565d1ce910e3eac74ae53f5a35064736f6c634300080e0033496e697469616c697a61626c653a20636f6e747261637420697320616c726561496e697469616c697a61626c653a20636f6e7472616374206973206e6f742069",
  "linkReferences": {},
  "deployedLinkReferences": {}
}