{
  "_format": "hh-sol-artifact-1",
  "contractName": "NFT",
  "sourceName": "contracts/Module/NFT.sol",
  "abi": [
    {
      "anonymous": false,
      "inputs": [
        {
          "indexed": true,
          "internalType": "address",
          "name": "owner",
          "type": "address"
        },
        {
          "indexed": true,
          "internalType": "address",
          "name": "approved",
          "type": "address"
        },
        {
          "indexed": true,
          "internalType": "uint256",
          "name": "tokenId",
          "type": "uint256"
        }
      ],
      "name": "Approval",
      "type": "event"
    },
    {
      "anonymous": false,
      "inputs": [
        {
          "indexed": true,
          "internalType": "address",
          "name": "owner",
          "type": "address"
        },
        {
          "indexed": true,
          "internalType": "address",
          "name": "operator",
          "type": "address"
        },
        {
          "indexed": false,
          "internalType": "bool",
          "name": "approved",
          "type": "bool"
        }
      ],
      "name": "ApprovalForAll",
      "type": "event"
    },
    {
      "anonymous": false,
      "inputs": [
        {
          "indexed": false,
          "internalType": "uint8",
          "name": "version",
          "type": "uint8"
        }
      ],
      "name": "Initialized",
      "type": "event"
    },
    {
      "anonymous": false,
      "inputs": [
        {
          "indexed": false,
          "internalType": "uint256",
          "name": "oldTimestamp",
          "type": "uint256"
        },
        {
          "indexed": false,
          "internalType": "uint256",
          "name": "newTimestamp",
          "type": "uint256"
        }
      ],
      "name": "LogClaimTimestampUpdated",
      "type": "event"
    },
    {
      "anonymous": false,
      "inputs": [
        {
          "indexed": false,
          "internalType": "address",
          "name": "user",
          "type": "address"
        },
        {
          "indexed": false,
          "internalType": "string",
          "name": "cid",
          "type": "string"
        },
        {
          "indexed": false,
          "internalType": "uint256",
          "name": "timestamp",
          "type": "uint256"
        }
      ],
      "name": "LogClaimed",
      "type": "event"
    },
    {
      "anonymous": false,
      "inputs": [
        {
          "components": [
            {
              "internalType": "address",
              "name": "user",
              "type": "address"
            },
            {
              "internalType": "string[]",
              "name": "ipfs",
              "type": "string[]"
            },
            {
              "internalType": "uint256",
              "name": "timestamp",
              "type": "uint256"
            },
            {
              "internalType": "bool",
              "name": "isClaimed",
              "type": "bool"
            }
          ],
          "indexed": false,
          "internalType": "struct INFTLogic.UserWhitelist[]",
          "name": "whitelist",
          "type": "tuple[]"
        },
        {
          "indexed": false,
          "internalType": "uint256",
          "name": "startClaimTimestamp",
          "type": "uint256"
        }
      ],
      "name": "LogWhitelistSubmited",
      "type": "event"
    },
    {
      "anonymous": false,
      "inputs": [
        {
          "indexed": true,
          "internalType": "bytes32",
          "name": "role",
          "type": "bytes32"
        },
        {
          "indexed": true,
          "internalType": "bytes32",
          "name": "previousAdminRole",
          "type": "bytes32"
        },
        {
          "indexed": true,
          "internalType": "bytes32",
          "name": "newAdminRole",
          "type": "bytes32"
        }
      ],
      "name": "RoleAdminChanged",
      "type": "event"
    },
    {
      "anonymous": false,
      "inputs": [
        {
          "indexed": true,
          "internalType": "bytes32",
          "name": "role",
          "type": "bytes32"
        },
        {
          "indexed": true,
          "internalType": "address",
          "name": "account",
          "type": "address"
        },
        {
          "indexed": true,
          "internalType": "address",
          "name": "sender",
          "type": "address"
        }
      ],
      "name": "RoleGranted",
      "type": "event"
    },
    {
      "anonymous": false,
      "inputs": [
        {
          "indexed": true,
          "internalType": "bytes32",
          "name": "role",
          "type": "bytes32"
        },
        {
          "indexed": true,
          "internalType": "address",
          "name": "account",
          "type": "address"
        },
        {
          "indexed": true,
          "internalType": "address",
          "name": "sender",
          "type": "address"
        }
      ],
      "name": "RoleRevoked",
      "type": "event"
    },
    {
      "anonymous": false,
      "inputs": [
        {
          "indexed": true,
          "internalType": "address",
          "name": "from",
          "type": "address"
        },
        {
          "indexed": true,
          "internalType": "address",
          "name": "to",
          "type": "address"
        },
        {
          "indexed": true,
          "internalType": "uint256",
          "name": "tokenId",
          "type": "uint256"
        }
      ],
      "name": "Transfer",
      "type": "event"
    },
    {
      "stateMutability": "nonpayable",
      "type": "fallback"
    },
    {
      "inputs": [],
      "name": "DEFAULT_ADMIN_ROLE",
      "outputs": [
        {
          "internalType": "bytes32",
          "name": "",
          "type": "bytes32"
        }
      ],
      "stateMutability": "view",
      "type": "function"
    },
    {
      "inputs": [],
      "name": "WHITELIST_ROLE",
      "outputs": [
        {
          "internalType": "bytes32",
          "name": "",
          "type": "bytes32"
        }
      ],
      "stateMutability": "view",
      "type": "function"
    },
    {
      "inputs": [],
      "name": "WHITELIST_ROLE_ADMIN",
      "outputs": [
        {
          "internalType": "bytes32",
          "name": "",
          "type": "bytes32"
        }
      ],
      "stateMutability": "view",
      "type": "function"
    },
    {
      "inputs": [
        {
          "internalType": "address",
          "name": "newOwner",
          "type": "address"
        }
      ],
      "name": "afterControllerTransferOwnership",
      "outputs": [],
      "stateMutability": "nonpayable",
      "type": "function"
    },
    {
      "inputs": [
        {
          "internalType": "address",
          "name": "to",
          "type": "address"
        },
        {
          "internalType": "uint256",
          "name": "tokenId",
          "type": "uint256"
        }
      ],
      "name": "approve",
      "outputs": [],
      "stateMutability": "nonpayable",
      "type": "function"
    },
    {
      "inputs": [
        {
          "internalType": "address",
          "name": "owner",
          "type": "address"
        }
      ],
      "name": "balanceOf",
      "outputs": [
        {
          "internalType": "uint256",
          "name": "",
          "type": "uint256"
        }
      ],
      "stateMutability": "view",
      "type": "function"
    },
    {
      "inputs": [],
      "name": "claimAll",
      "outputs": [],
      "stateMutability": "nonpayable",
      "type": "function"
    },
    {
      "inputs": [
        {
          "internalType": "uint256",
          "name": "",
          "type": "uint256"
        }
      ],
      "name": "claimableList",
      "outputs": [
        {
          "internalType": "address",
          "name": "user",
          "type": "address"
        },
        {
          "internalType": "uint256",
          "name": "timestamp",
          "type": "uint256"
        },
        {
          "internalType": "bool",
          "name": "isClaimed",
          "type": "bool"
        }
      ],
      "stateMutability": "view",
      "type": "function"
    },
    {
      "inputs": [],
      "name": "currentTimestamp",
      "outputs": [
        {
          "internalType": "uint256",
          "name": "",
          "type": "uint256"
        }
      ],
      "stateMutability": "view",
      "type": "function"
    },
    {
      "inputs": [
        {
          "internalType": "uint256",
          "name": "",
          "type": "uint256"
        }
      ],
      "name": "currentWhitelist",
      "outputs": [
        {
          "internalType": "address",
          "name": "user",
          "type": "address"
        },
        {
          "internalType": "uint256",
          "name": "timestamp",
          "type": "uint256"
        },
        {
          "internalType": "bool",
          "name": "isClaimed",
          "type": "bool"
        }
      ],
      "stateMutability": "view",
      "type": "function"
    },
    {
      "inputs": [
        {
          "internalType": "uint256",
          "name": "tokenId",
          "type": "uint256"
        }
      ],
      "name": "getApproved",
      "outputs": [
        {
          "internalType": "address",
          "name": "",
          "type": "address"
        }
      ],
      "stateMutability": "view",
      "type": "function"
    },
    {
      "inputs": [
        {
          "internalType": "uint256",
          "name": "timestamp",
          "type": "uint256"
        }
      ],
      "name": "getClaimTimestampAllNft",
      "outputs": [
        {
          "components": [
            {
              "internalType": "address",
              "name": "user",
              "type": "address"
            },
            {
              "internalType": "string[]",
              "name": "ipfs",
              "type": "string[]"
            },
            {
              "internalType": "uint256",
              "name": "timestamp",
              "type": "uint256"
            },
            {
              "internalType": "bool",
              "name": "isClaimed",
              "type": "bool"
            }
          ],
          "internalType": "struct INFTLogic.UserWhitelist[]",
          "name": "list",
          "type": "tuple[]"
        }
      ],
      "stateMutability": "view",
      "type": "function"
    },
    {
      "inputs": [],
      "name": "getControllerAddr",
      "outputs": [
        {
          "internalType": "address",
          "name": "addr",
          "type": "address"
        }
      ],
      "stateMutability": "view",
      "type": "function"
    },
    {
      "inputs": [
        {
          "internalType": "bytes32",
          "name": "role",
          "type": "bytes32"
        }
      ],
      "name": "getRoleAdmin",
      "outputs": [
        {
          "internalType": "bytes32",
          "name": "",
          "type": "bytes32"
        }
      ],
      "stateMutability": "view",
      "type": "function"
    },
    {
      "inputs": [
        {
          "internalType": "bytes32",
          "name": "role",
          "type": "bytes32"
        },
        {
          "internalType": "uint256",
          "name": "index",
          "type": "uint256"
        }
      ],
      "name": "getRoleMember",
      "outputs": [
        {
          "internalType": "address",
          "name": "",
          "type": "address"
        }
      ],
      "stateMutability": "view",
      "type": "function"
    },
    {
      "inputs": [
        {
          "internalType": "bytes32",
          "name": "role",
          "type": "bytes32"
        }
      ],
      "name": "getRoleMemberCount",
      "outputs": [
        {
          "internalType": "uint256",
          "name": "",
          "type": "uint256"
        }
      ],
      "stateMutability": "view",
      "type": "function"
    },
    {
      "inputs": [
        {
          "internalType": "address",
          "name": "user",
          "type": "address"
        }
      ],
      "name": "getUserAllNft",
      "outputs": [
        {
          "components": [
            {
              "internalType": "address",
              "name": "user",
              "type": "address"
            },
            {
              "internalType": "string[]",
              "name": "ipfs",
              "type": "string[]"
            },
            {
              "internalType": "uint256",
              "name": "timestamp",
              "type": "uint256"
            },
            {
              "internalType": "bool",
              "name": "isClaimed",
              "type": "bool"
            }
          ],
          "internalType": "struct INFTLogic.UserWhitelist[]",
          "name": "list",
          "type": "tuple[]"
        }
      ],
      "stateMutability": "view",
      "type": "function"
    },
    {
      "inputs": [
        {
          "internalType": "bytes32",
          "name": "role",
          "type": "bytes32"
        },
        {
          "internalType": "address",
          "name": "account",
          "type": "address"
        }
      ],
      "name": "grantRole",
      "outputs": [],
      "stateMutability": "nonpayable",
      "type": "function"
    },
    {
      "inputs": [
        {
          "internalType": "bytes32",
          "name": "role",
          "type": "bytes32"
        },
        {
          "internalType": "address",
          "name": "account",
          "type": "address"
        }
      ],
      "name": "hasRole",
      "outputs": [
        {
          "internalType": "bool",
          "name": "",
          "type": "bool"
        }
      ],
      "stateMutability": "view",
      "type": "function"
    },
    {
      "inputs": [
        {
          "internalType": "address",
          "name": "owner",
          "type": "address"
        },
        {
          "internalType": "string",
          "name": "name_",
          "type": "string"
        },
        {
          "internalType": "string",
          "name": "symbol_",
          "type": "string"
        }
      ],
      "name": "initialize",
      "outputs": [],
      "stateMutability": "nonpayable",
      "type": "function"
    },
    {
      "inputs": [
        {
          "internalType": "address",
          "name": "owner",
          "type": "address"
        },
        {
          "internalType": "address",
          "name": "operator",
          "type": "address"
        }
      ],
      "name": "isApprovedForAll",
      "outputs": [
        {
          "internalType": "bool",
          "name": "",
          "type": "bool"
        }
      ],
      "stateMutability": "view",
      "type": "function"
    },
    {
      "inputs": [],
      "name": "name",
      "outputs": [
        {
          "internalType": "string",
          "name": "",
          "type": "string"
        }
      ],
      "stateMutability": "view",
      "type": "function"
    },
    {
      "inputs": [
        {
          "internalType": "uint256",
          "name": "tokenId",
          "type": "uint256"
        }
      ],
      "name": "ownerOf",
      "outputs": [
        {
          "internalType": "address",
          "name": "",
          "type": "address"
        }
      ],
      "stateMutability": "view",
      "type": "function"
    },
    {
      "inputs": [
        {
          "internalType": "bytes32",
          "name": "role",
          "type": "bytes32"
        },
        {
          "internalType": "address",
          "name": "account",
          "type": "address"
        }
      ],
      "name": "renounceRole",
      "outputs": [],
      "stateMutability": "nonpayable",
      "type": "function"
    },
    {
      "inputs": [
        {
          "internalType": "bytes32",
          "name": "role",
          "type": "bytes32"
        },
        {
          "internalType": "address",
          "name": "account",
          "type": "address"
        }
      ],
      "name": "revokeRole",
      "outputs": [],
      "stateMutability": "nonpayable",
      "type": "function"
    },
    {
      "inputs": [
        {
          "internalType": "address",
          "name": "from",
          "type": "address"
        },
        {
          "internalType": "address",
          "name": "to",
          "type": "address"
        },
        {
          "internalType": "uint256",
          "name": "tokenId",
          "type": "uint256"
        }
      ],
      "name": "safeTransferFrom",
      "outputs": [],
      "stateMutability": "nonpayable",
      "type": "function"
    },
    {
      "inputs": [
        {
          "internalType": "address",
          "name": "from",
          "type": "address"
        },
        {
          "internalType": "address",
          "name": "to",
          "type": "address"
        },
        {
          "internalType": "uint256",
          "name": "tokenId",
          "type": "uint256"
        },
        {
          "internalType": "bytes",
          "name": "_data",
          "type": "bytes"
        }
      ],
      "name": "safeTransferFrom",
      "outputs": [],
      "stateMutability": "nonpayable",
      "type": "function"
    },
    {
      "inputs": [
        {
          "internalType": "address",
          "name": "operator",
          "type": "address"
        },
        {
          "internalType": "bool",
          "name": "approved",
          "type": "bool"
        }
      ],
      "name": "setApprovalForAll",
      "outputs": [],
      "stateMutability": "nonpayable",
      "type": "function"
    },
    {
      "inputs": [
        {
          "internalType": "bytes[]",
          "name": "whitelist",
          "type": "bytes[]"
        },
        {
          "internalType": "uint256",
          "name": "startClaimTimestamp",
          "type": "uint256"
        }
      ],
      "name": "submitWhitelist",
      "outputs": [],
      "stateMutability": "nonpayable",
      "type": "function"
    },
    {
      "inputs": [
        {
          "internalType": "bytes4",
          "name": "interfaceId",
          "type": "bytes4"
        }
      ],
      "name": "supportsInterface",
      "outputs": [
        {
          "internalType": "bool",
          "name": "",
          "type": "bool"
        }
      ],
      "stateMutability": "view",
      "type": "function"
    },
    {
      "inputs": [],
      "name": "symbol",
      "outputs": [
        {
          "internalType": "string",
          "name": "",
          "type": "string"
        }
      ],
      "stateMutability": "view",
      "type": "function"
    },
    {
      "inputs": [
        {
          "internalType": "uint256",
          "name": "",
          "type": "uint256"
        }
      ],
      "name": "timestampHistory",
      "outputs": [
        {
          "internalType": "uint256",
          "name": "",
          "type": "uint256"
        }
      ],
      "stateMutability": "view",
      "type": "function"
    },
    {
      "inputs": [
        {
          "internalType": "uint256",
          "name": "tokenId",
          "type": "uint256"
        }
      ],
      "name": "tokenURI",
      "outputs": [
        {
          "internalType": "string",
          "name": "",
          "type": "string"
        }
      ],
      "stateMutability": "view",
      "type": "function"
    },
    {
      "inputs": [
        {
          "internalType": "address",
          "name": "from",
          "type": "address"
        },
        {
          "internalType": "address",
          "name": "to",
          "type": "address"
        },
        {
          "internalType": "uint256",
          "name": "tokenId",
          "type": "uint256"
        }
      ],
      "name": "transferFrom",
      "outputs": [],
      "stateMutability": "nonpayable",
      "type": "function"
    },
    {
      "inputs": [
        {
          "internalType": "uint256",
          "name": "newTimestamp",
          "type": "uint256"
        }
      ],
      "name": "updateClaimTimestamp",
      "outputs": [],
      "stateMutability": "nonpayable",
      "type": "function"
    }
  ],
  "bytecode": "0x60806040527fbebcb5420f0f627e11f01d229c07e3b3ad8b398e79591a20fdda11560e10086a61012d557fc4dba14120de8271d98813bbab5664de0d6175797e91f6e46156293e554ff90a61012e5534801561005a57600080fd5b50613cd88061006a6000396000f3fe608060405234801561001057600080fd5b50600436106102235760003560e01c80637a997ab711610133578063a2abac72116100b4578063ca15c87311610086578063d547741f1161006e578063d547741f146104ef578063e985e9c514610502578063fcac77631461053e57005b8063ca15c873146104d4578063d1058e59146104e757005b8063a2abac7214610491578063a970cbf6146104a4578063b88d4fde146104ae578063c87b56dd146104c157005b806391d1485411610105578063964ddbb2116100ed578063964ddbb214610463578063a217fddf14610476578063a22cb4651461047e57005b806391d148541461042257806395d89b411461045b57005b80637a997ab7146103df5780638c7c02d9146103e95780639010d07c146103fc578063906571471461040f57005b806336568abe116101bd5780635f7822ba1161018f5780636c930bf1116101775780636c930bf11461039957806370a08231146103b95780637821b844146103cc57005b80635f7822ba146103745780636352211e1461038657005b806336568abe146103015780633da210721461031457806342842e0e1461034e5780635d4930481461036157005b80631e2ff94f116101f65780631e2ff94f146102a057806323b872dd146102b8578063248a9ca3146102cb5780632f2ff15d146102ee57005b806301ffc9a71461022557806306fdde031461024d578063081812fc14610262578063095ea7b31461028d575b005b610238610233366004613224565b610551565b60405190151581526020015b60405180910390f35b610255610571565b6040516102449190613299565b6102756102703660046132ac565b610603565b6040516001600160a01b039091168152602001610244565b61022361029b3660046132dc565b61069d565b6102aa6101305481565b604051908152602001610244565b6102236102c6366004613306565b6107ce565b6102aa6102d93660046132ac565b600090815260c9602052604090206001015490565b6102236102fc366004613342565b610855565b61022361030f366004613342565b61087a565b6103276103223660046132ac565b610906565b604080516001600160a01b0390941684526020840192909252151590820152606001610244565b61022361035c366004613306565b610947565b61022361036f36600461336e565b610962565b61012f546001600160a01b0316610275565b6102756103943660046132ac565b610cd5565b6103ac6103a73660046132ac565b610d60565b60405161024491906133e9565b6102aa6103c73660046134c3565b6110b3565b6103276103da3660046132ac565b61114d565b6102aa61012d5481565b6102aa6103f73660046132ac565b61115e565b61027561040a3660046134de565b611180565b61022361041d3660046135e8565b61119f565b610238610430366004613342565b600091825260c9602090815260408084206001600160a01b0393909316845291905290205460ff1690565b610255611252565b6102236104713660046132ac565b611261565b6102aa600081565b61022361048c36600461366c565b611304565b6103ac61049f3660046134c3565b61130f565b6102aa61012e5481565b6102236104bc366004613696565b61167d565b6102556104cf3660046132ac565b611705565b6102aa6104e23660046132ac565b611897565b6102236118ae565b6102236104fd366004613342565b611d72565b610238610510366004613712565b6001600160a01b039182166000908152606a6020908152604080832093909416825291909152205460ff1690565b61022361054c3660046134c3565b611d97565b600061055c82611e29565b8061056b575061056b82611ec4565b92915050565b6060606580546105809061373c565b80601f01602080910402602001604051908101604052809291908181526020018280546105ac9061373c565b80156105f95780601f106105ce576101008083540402835291602001916105f9565b820191906000526020600020905b8154815290600101906020018083116105dc57829003601f168201915b5050505050905090565b6000818152606760205260408120546001600160a01b03166106815760405162461bcd60e51b815260206004820152602c60248201527f4552433732313a20617070726f76656420717565727920666f72206e6f6e657860448201526b34b9ba32b73a103a37b5b2b760a11b60648201526084015b60405180910390fd5b506000908152606960205260409020546001600160a01b031690565b60006106a882610cd5565b9050806001600160a01b0316836001600160a01b0316036107315760405162461bcd60e51b815260206004820152602160248201527f4552433732313a20617070726f76616c20746f2063757272656e74206f776e6560448201527f72000000000000000000000000000000000000000000000000000000000000006064820152608401610678565b336001600160a01b038216148061074d575061074d8133610510565b6107bf5760405162461bcd60e51b815260206004820152603860248201527f4552433732313a20617070726f76652063616c6c6572206973206e6f74206f7760448201527f6e6572206e6f7220617070726f76656420666f7220616c6c00000000000000006064820152608401610678565b6107c98383611f02565b505050565b6107d83382611f70565b61084a5760405162461bcd60e51b815260206004820152603160248201527f4552433732313a207472616e736665722063616c6c6572206973206e6f74206f60448201527f776e6572206e6f7220617070726f7665640000000000000000000000000000006064820152608401610678565b6107c9838383612066565b600082815260c96020526040902060010154610870816120ae565b6107c983836120b8565b6001600160a01b03811633146108f85760405162461bcd60e51b815260206004820152602f60248201527f416363657373436f6e74726f6c3a2063616e206f6e6c792072656e6f756e636560448201527f20726f6c657320666f722073656c6600000000000000000000000000000000006064820152608401610678565b61090282826120da565b5050565b610133818154811061091757600080fd5b60009182526020909120600490910201805460028201546003909201546001600160a01b03909116925060ff1683565b6107c98383836040518060200160405280600081525061167d565b61012d5461096f816120ae565b6101305442118061098257508161013054145b6109f45760405162461bcd60e51b815260206004820152603960248201527f63616e206e6f74207375626d69742061206e6577206c6973742c706c6561736560448201527f2075736520757064617465436c61696d54696d657374616d70000000000000006064820152608401610678565b61013054821115610af75760005b61013254811015610ab9576101336101328281548110610a2457610a24613776565b6000918252602080832084546001818101875595855291909320600492830290930180549190920290920180546001600160a01b0319166001600160a01b0390931692909217825582810180549193610a81929084019190612f74565b50600282810154908201556003918201549101805460ff191660ff909216151591909117905580610ab1816137a2565b915050610a02565b5061013082905561013180546001810182556000919091527fbd987ad6ccdb7c7567f7335ea839f95dc944431abcf935b6924f70215963db73018290555b428211610b6c5760405162461bcd60e51b815260206004820152603160248201527f737461727420636c61696d2074696d657374616d70206d75737420626568696e60448201527f6420626c6f636b2074696d657374616d700000000000000000000000000000006064820152608401610678565b610b796101326000612fda565b60005b83811015610c93576000858583818110610b9857610b98613776565b9050602002810190610baa91906137bb565b810190610bb79190613809565b6000606082018190526040820186905261013280546001810182559152815160049091027fc53bdfd4aa1ab65dfdaf681ca6bda958ae4a123d4ed68c4277796592280e7835810180546001600160a01b039093166001600160a01b031990931692909217825560208084015180519495508594610c5b937fc53bdfd4aa1ab65dfdaf681ca6bda958ae4a123d4ed68c4277796592280e783601929190910190612ffb565b50604082015160028201556060909101516003909101805460ff19169115159190911790555080610c8b816137a2565b915050610b7c565b507f0de9b52db718f858cd6ce50363fbc3cd5010501a168bf9a89ccbfcb73686a62f61013283604051610cc79291906139c1565b60405180910390a150505050565b6000818152606760205260408120546001600160a01b03168061056b5760405162461bcd60e51b815260206004820152602960248201527f4552433732313a206f776e657220717565727920666f72206e6f6e657869737460448201527f656e7420746f6b656e00000000000000000000000000000000000000000000006064820152608401610678565b60606000805b61013254811015610f0757836101328281548110610d8657610d86613776565b90600052602060002090600402016002015403610ef5576101328181548110610db157610db1613776565b6000918252602080832060408051608081018252600490940290910180546001600160a01b0316845260018101805483518186028101860190945280845294959194868501949192909184015b82821015610eaa578382906000526020600020018054610e1d9061373c565b80601f0160208091040260200160405190810160405280929190818152602001828054610e499061373c565b8015610e965780601f10610e6b57610100808354040283529160200191610e96565b820191906000526020600020905b815481529060010190602001808311610e7957829003601f168201915b505050505081526020019060010190610dfe565b505050908252506002820154602082015260039091015460ff1615156040909101528383610ed7816137a2565b945081518110610ee957610ee9613776565b60200260200101819052505b80610eff816137a2565b915050610d66565b5060005b610133548110156110ac57836101338281548110610f2b57610f2b613776565b9060005260206000209060040201600201540361109a576101338181548110610f5657610f56613776565b6000918252602080832060408051608081018252600490940290910180546001600160a01b0316845260018101805483518186028101860190945280845294959194868501949192909184015b8282101561104f578382906000526020600020018054610fc29061373c565b80601f0160208091040260200160405190810160405280929190818152602001828054610fee9061373c565b801561103b5780601f106110105761010080835404028352916020019161103b565b820191906000526020600020905b81548152906001019060200180831161101e57829003601f168201915b505050505081526020019060010190610fa3565b505050908252506002820154602082015260039091015460ff161515604090910152838361107c816137a2565b94508151811061108e5761108e613776565b60200260200101819052505b806110a4816137a2565b915050610f0b565b5050919050565b60006001600160a01b0382166111315760405162461bcd60e51b815260206004820152602a60248201527f4552433732313a2062616c616e636520717565727920666f7220746865207a6560448201527f726f2061646472657373000000000000000000000000000000000000000000006064820152608401610678565b506001600160a01b031660009081526068602052604090205490565b610132818154811061091757600080fd5b610131818154811061116f57600080fd5b600091825260209091200154905081565b600082815260fb6020526040812061119890836120fc565b9392505050565b60006111ab6001612108565b905080156111c3576000805461ff0019166101001790555b6111cd8383612241565b6111dd61012d5461012e546122b6565b6111ea61012e5485612301565b6111f761012d5485612301565b61012f80546001600160a01b03191633179055801561124c576000805461ff0019169055604051600181527f7f26b83ff96e1f2b6a682f133852f6798a09c465da95921460cefb384740249890602001610cc7565b50505050565b6060606680546105809061373c565b61012d5461126e816120ae565b4261013054116112c05760405162461bcd60e51b815260206004820152601c60248201527f63616e206e6f74207570646174652c706c65617365207375626d6974000000006044820152606401610678565b6101305460408051918252602082018490527fb688b57684741dbc5405699744de81ca211fd0892acf9d31b911bbacc1f5b65f910160405180910390a15061013055565b61090233838361230b565b60606000805b610132548110156114c757836001600160a01b0316610132828154811061133e5761133e613776565b60009182526020909120600490910201546001600160a01b0316036114b557610132818154811061137157611371613776565b6000918252602080832060408051608081018252600490940290910180546001600160a01b0316845260018101805483518186028101860190945280845294959194868501949192909184015b8282101561146a5783829060005260206000200180546113dd9061373c565b80601f01602080910402602001604051908101604052809291908181526020018280546114099061373c565b80156114565780601f1061142b57610100808354040283529160200191611456565b820191906000526020600020905b81548152906001019060200180831161143957829003601f168201915b5050505050815260200190600101906113be565b505050908252506002820154602082015260039091015460ff1615156040909101528383611497816137a2565b9450815181106114a9576114a9613776565b60200260200101819052505b806114bf816137a2565b915050611315565b5060005b610133548110156110ac57836001600160a01b031661013382815481106114f4576114f4613776565b60009182526020909120600490910201546001600160a01b03160361166b57610133818154811061152757611527613776565b6000918252602080832060408051608081018252600490940290910180546001600160a01b0316845260018101805483518186028101860190945280845294959194868501949192909184015b828210156116205783829060005260206000200180546115939061373c565b80601f01602080910402602001604051908101604052809291908181526020018280546115bf9061373c565b801561160c5780601f106115e15761010080835404028352916020019161160c565b820191906000526020600020905b8154815290600101906020018083116115ef57829003601f168201915b505050505081526020019060010190611574565b505050908252506002820154602082015260039091015460ff161515604090910152838361164d816137a2565b94508151811061165f5761165f613776565b60200260200101819052505b80611675816137a2565b9150506114cb565b6116873383611f70565b6116f95760405162461bcd60e51b815260206004820152603160248201527f4552433732313a207472616e736665722063616c6c6572206973206e6f74206f60448201527f776e6572206e6f7220617070726f7665640000000000000000000000000000006064820152608401610678565b61124c848484846123d9565b6000818152606760205260409020546060906001600160a01b03166117925760405162461bcd60e51b815260206004820152603160248201527f45524337323155524953746f726167653a2055524920717565727920666f722060448201527f6e6f6e6578697374656e7420746f6b656e0000000000000000000000000000006064820152608401610678565b600082815260976020526040812080546117ab9061373c565b80601f01602080910402602001604051908101604052809291908181526020018280546117d79061373c565b80156118245780601f106117f957610100808354040283529160200191611824565b820191906000526020600020905b81548152906001019060200180831161180757829003601f168201915b50505050509050600061184260408051602081019091526000815290565b90508051600003611854575092915050565b81511561188657808260405160200161186e929190613aae565b60405160208183030381529060405292505050919050565b61188f84612462565b949350505050565b600081815260fb6020526040812061056b90612557565b61013254339015611b8a57426101326000815481106118cf576118cf613776565b90600052602060002090600402016002015411611b8a5760005b61013254811015611b8857816001600160a01b0316610132828154811061191257611912613776565b60009182526020909120600490910201546001600160a01b03161480156119615750610132818154811061194857611948613776565b600091825260209091206003600490920201015460ff16155b15611b76576001610132828154811061197c5761197c613776565b60009182526020822060049190910201600301805460ff1916921515929092179091555b61013282815481106119b4576119b4613776565b906000526020600020906004020160010180549050811015611b74576119dd8361013454612561565b6101348054611ac39160006119f1836137a2565b919050556101328481548110611a0957611a09613776565b90600052602060002090600402016001018381548110611a2b57611a2b613776565b906000526020600020018054611a409061373c565b80601f0160208091040260200160405190810160405280929190818152602001828054611a6c9061373c565b8015611ab95780601f10611a8e57610100808354040283529160200191611ab9565b820191906000526020600020905b815481529060010190602001808311611a9c57829003601f168201915b50505050506126a3565b7f8ca0a277bd5317dd6be256a279f57797ef5d9b7456be573d5a26678121db602a836101328481548110611af957611af9613776565b90600052602060002090600402016001018381548110611b1b57611b1b613776565b906000526020600020016101328581548110611b3957611b39613776565b906000526020600020906004020160020154604051611b5a93929190613add565b60405180910390a180611b6c816137a2565b9150506119a0565b505b80611b80816137a2565b9150506118e9565b505b60005b6101335481101561090257816001600160a01b03166101338281548110611bb657611bb6613776565b60009182526020909120600490910201546001600160a01b0316148015611c0557506101338181548110611bec57611bec613776565b600091825260209091206003600490920201015460ff16155b15611d605760016101338281548110611c2057611c20613776565b60009182526020822060049190910201600301805460ff1916921515929092179091555b6101338281548110611c5857611c58613776565b906000526020600020906004020160010180549050811015611d5e57611c818361013454612561565b6101348054611cad916000611c95836137a2565b919050556101338481548110611a0957611a09613776565b7f8ca0a277bd5317dd6be256a279f57797ef5d9b7456be573d5a26678121db602a836101338481548110611ce357611ce3613776565b90600052602060002090600402016001018381548110611d0557611d05613776565b906000526020600020016101338581548110611d2357611d23613776565b906000526020600020906004020160020154604051611d4493929190613add565b60405180910390a180611d56816137a2565b915050611c44565b505b80611d6a816137a2565b915050611b8d565b600082815260c96020526040902060010154611d8d816120ae565b6107c983836120da565b61012f546001600160a01b03163314611df25760405162461bcd60e51b815260206004820152600860248201527f6e6f2061757468210000000000000000000000000000000000000000000000006044820152606401610678565b611e0c61012e54611e0761012e546000611180565b6120da565b611e1961012e5482612301565b611e2661012d5482612301565b50565b60006001600160e01b031982167f80ac58cd000000000000000000000000000000000000000000000000000000001480611e8c57506001600160e01b031982167f5b5e139f00000000000000000000000000000000000000000000000000000000145b8061056b57507f01ffc9a7000000000000000000000000000000000000000000000000000000006001600160e01b031983161461056b565b60006001600160e01b031982167f5a05180f00000000000000000000000000000000000000000000000000000000148061056b575061056b8261274c565b600081815260696020526040902080546001600160a01b0319166001600160a01b0384169081179091558190611f3782610cd5565b6001600160a01b03167f8c5be1e5ebec7d5bd14f71427d1e84f3dd0314c0f7b2291e5b200ac8c7c3b92560405160405180910390a45050565b6000818152606760205260408120546001600160a01b0316611fe95760405162461bcd60e51b815260206004820152602c60248201527f4552433732313a206f70657261746f7220717565727920666f72206e6f6e657860448201526b34b9ba32b73a103a37b5b2b760a11b6064820152608401610678565b6000611ff483610cd5565b9050806001600160a01b0316846001600160a01b0316148061203b57506001600160a01b038082166000908152606a602090815260408083209388168352929052205460ff165b8061188f5750836001600160a01b031661205484610603565b6001600160a01b031614949350505050565b60405162461bcd60e51b815260206004820152601660248201527f206e667420697320756e7472616e7366657261626c65000000000000000000006044820152606401610678565b611e26813361278a565b6120c2828261280a565b600082815260fb602052604090206107c990826128ac565b6120e482826128c1565b600082815260fb602052604090206107c99082612944565b60006111988383612959565b60008054610100900460ff16156121a5578160ff16600114801561212b5750303b155b61219d5760405162461bcd60e51b815260206004820152602e60248201527f496e697469616c697a61626c653a20636f6e747261637420697320616c72656160448201527f647920696e697469616c697a65640000000000000000000000000000000000006064820152608401610678565b506000919050565b60005460ff8084169116106122225760405162461bcd60e51b815260206004820152602e60248201527f496e697469616c697a61626c653a20636f6e747261637420697320616c72656160448201527f647920696e697469616c697a65640000000000000000000000000000000000006064820152608401610678565b506000805460ff191660ff92909216919091179055600190565b919050565b600054610100900460ff166122ac5760405162461bcd60e51b815260206004820152602b60248201527f496e697469616c697a61626c653a20636f6e7472616374206973206e6f74206960448201526a6e697469616c697a696e6760a81b6064820152608401610678565b6109028282612983565b600082815260c96020526040808220600101805490849055905190918391839186917fbd79b86ffe0ab8e8776151514217cd7cacd52c909f66475c3af44e129f0b00ff9190a4505050565b61090282826120b8565b816001600160a01b0316836001600160a01b03160361236c5760405162461bcd60e51b815260206004820152601960248201527f4552433732313a20617070726f766520746f2063616c6c6572000000000000006044820152606401610678565b6001600160a01b038381166000818152606a6020908152604080832094871680845294825291829020805460ff191686151590811790915591519182527f17307eab39ab6107e8899845ad3d59bd9653f200f220920489ca2b5937696c31910160405180910390a3505050565b6123e4848484612066565b6123f084848484612a15565b61124c5760405162461bcd60e51b815260206004820152603260248201527f4552433732313a207472616e7366657220746f206e6f6e20455243373231526560448201527f63656976657220696d706c656d656e74657200000000000000000000000000006064820152608401610678565b6000818152606760205260409020546060906001600160a01b03166124ef5760405162461bcd60e51b815260206004820152602f60248201527f4552433732314d657461646174613a2055524920717565727920666f72206e6f60448201527f6e6578697374656e7420746f6b656e00000000000000000000000000000000006064820152608401610678565b600061250660408051602081019091526000815290565b905060008151116125265760405180602001604052806000815250611198565b8061253084612b6c565b604051602001612541929190613aae565b6040516020818303038152906040529392505050565b600061056b825490565b6001600160a01b0382166125b75760405162461bcd60e51b815260206004820181905260248201527f4552433732313a206d696e7420746f20746865207a65726f20616464726573736044820152606401610678565b6000818152606760205260409020546001600160a01b03161561261c5760405162461bcd60e51b815260206004820152601c60248201527f4552433732313a20746f6b656e20616c7265616479206d696e746564000000006044820152606401610678565b6001600160a01b0382166000908152606860205260408120805460019290612645908490613b0f565b909155505060008181526067602052604080822080546001600160a01b0319166001600160a01b03861690811790915590518392907fddf252ad1be2c89b69c2b068fc378daa952ba7f163c4a11628f55a4df523b3ef908290a45050565b6000828152606760205260409020546001600160a01b031661272d5760405162461bcd60e51b815260206004820152602e60248201527f45524337323155524953746f726167653a2055524920736574206f66206e6f6e60448201527f6578697374656e7420746f6b656e0000000000000000000000000000000000006064820152608401610678565b600082815260976020908152604090912082516107c992840190613048565b60006001600160e01b031982167f7965db0b00000000000000000000000000000000000000000000000000000000148061056b575061056b82611e29565b600082815260c9602090815260408083206001600160a01b038516845290915290205460ff16610902576127c8816001600160a01b03166014612c6d565b6127d3836020612c6d565b6040516020016127e4929190613b27565b60408051601f198184030181529082905262461bcd60e51b825261067891600401613299565b600082815260c9602090815260408083206001600160a01b038516845290915290205460ff1661090257600082815260c9602090815260408083206001600160a01b03851684529091529020805460ff191660011790556128683390565b6001600160a01b0316816001600160a01b0316837f2f8788117e7eff1d82e926ec794901d17c78024a50270940304540a733656f0d60405160405180910390a45050565b6000611198836001600160a01b038416612e32565b600082815260c9602090815260408083206001600160a01b038516845290915290205460ff161561090257600082815260c9602090815260408083206001600160a01b0385168085529252808320805460ff1916905551339285917ff6391f5c32d9c69d2a47ea670b442974b53935d1edc7fd64eb21e047a839171b9190a45050565b6000611198836001600160a01b038416612e81565b600082600001828154811061297057612970613776565b9060005260206000200154905092915050565b600054610100900460ff166129ee5760405162461bcd60e51b815260206004820152602b60248201527f496e697469616c697a61626c653a20636f6e7472616374206973206e6f74206960448201526a6e697469616c697a696e6760a81b6064820152608401610678565b8151612a01906065906020850190613048565b5080516107c9906066906020840190613048565b60006001600160a01b0384163b15612b6157604051630a85bd0160e11b81526001600160a01b0385169063150b7a0290612a59903390899088908890600401613ba8565b6020604051808303816000875af1925050508015612a94575060408051601f3d908101601f19168201909252612a9191810190613be4565b60015b612b47573d808015612ac2576040519150601f19603f3d011682016040523d82523d6000602084013e612ac7565b606091505b508051600003612b3f5760405162461bcd60e51b815260206004820152603260248201527f4552433732313a207472616e7366657220746f206e6f6e20455243373231526560448201527f63656976657220696d706c656d656e74657200000000000000000000000000006064820152608401610678565b805181602001fd5b6001600160e01b031916630a85bd0160e11b14905061188f565b506001949350505050565b606081600003612b935750506040805180820190915260018152600360fc1b602082015290565b8160005b8115612bbd5780612ba7816137a2565b9150612bb69050600a83613c17565b9150612b97565b60008167ffffffffffffffff811115612bd857612bd8613500565b6040519080825280601f01601f191660200182016040528015612c02576020820181803683370190505b5090505b841561188f57612c17600183613c2b565b9150612c24600a86613c42565b612c2f906030613b0f565b60f81b818381518110612c4457612c44613776565b60200101906001600160f81b031916908160001a905350612c66600a86613c17565b9450612c06565b60606000612c7c836002613c56565b612c87906002613b0f565b67ffffffffffffffff811115612c9f57612c9f613500565b6040519080825280601f01601f191660200182016040528015612cc9576020820181803683370190505b509050600360fc1b81600081518110612ce457612ce4613776565b60200101906001600160f81b031916908160001a9053507f780000000000000000000000000000000000000000000000000000000000000081600181518110612d2f57612d2f613776565b60200101906001600160f81b031916908160001a9053506000612d53846002613c56565b612d5e906001613b0f565b90505b6001811115612de3577f303132333435363738396162636465660000000000000000000000000000000085600f1660108110612d9f57612d9f613776565b1a60f81b828281518110612db557612db5613776565b60200101906001600160f81b031916908160001a90535060049490941c93612ddc81613c75565b9050612d61565b5083156111985760405162461bcd60e51b815260206004820181905260248201527f537472696e67733a20686578206c656e67746820696e73756666696369656e746044820152606401610678565b6000818152600183016020526040812054612e795750815460018181018455600084815260208082209093018490558454848252828601909352604090209190915561056b565b50600061056b565b60008181526001830160205260408120548015612f6a576000612ea5600183613c2b565b8554909150600090612eb990600190613c2b565b9050818114612f1e576000866000018281548110612ed957612ed9613776565b9060005260206000200154905080876000018481548110612efc57612efc613776565b6000918252602080832090910192909255918252600188019052604090208390555b8554869080612f2f57612f2f613c8c565b60019003818190600052602060002001600090559055856001016000868152602001908152602001600020600090556001935050505061056b565b600091505061056b565b828054828255906000526020600020908101928215612fca5760005260206000209182015b82811115612fca578282908054612faf9061373c565b612fba9291906130c8565b5091600101919060010190612f99565b50612fd6929150613143565b5090565b5080546000825560040290600052602060002090810190611e269190613160565b828054828255906000526020600020908101928215612fca579160200282015b82811115612fca5782518051613038918491602090910190613048565b509160200191906001019061301b565b8280546130549061373c565b90600052602060002090601f01602090048101928261307657600085556130bc565b82601f1061308f57805160ff19168380011785556130bc565b828001600101855582156130bc579182015b828111156130bc5782518255916020019190600101906130a1565b50612fd69291506131a1565b8280546130d49061373c565b90600052602060002090601f0160209004810192826130f657600085556130bc565b82601f1061310757805485556130bc565b828001600101855582156130bc57600052602060002091601f016020900482015b828111156130bc578254825591600101919060010190613128565b80821115612fd657600061315782826131b6565b50600101613143565b80821115612fd65780546001600160a01b0319168155600061318560018301826131f0565b506000600282015560038101805460ff19169055600401613160565b5b80821115612fd657600081556001016131a2565b5080546131c29061373c565b6000825580601f106131d2575050565b601f016020900490600052602060002090810190611e2691906131a1565b5080546000825590600052602060002090810190611e269190613143565b6001600160e01b031981168114611e2657600080fd5b60006020828403121561323657600080fd5b81356111988161320e565b60005b8381101561325c578181015183820152602001613244565b8381111561124c5750506000910152565b60008151808452613285816020860160208601613241565b601f01601f19169290920160200192915050565b602081526000611198602083018461326d565b6000602082840312156132be57600080fd5b5035919050565b80356001600160a01b038116811461223c57600080fd5b600080604083850312156132ef57600080fd5b6132f8836132c5565b946020939093013593505050565b60008060006060848603121561331b57600080fd5b613324846132c5565b9250613332602085016132c5565b9150604084013590509250925092565b6000806040838503121561335557600080fd5b82359150613365602084016132c5565b90509250929050565b60008060006040848603121561338357600080fd5b833567ffffffffffffffff8082111561339b57600080fd5b818601915086601f8301126133af57600080fd5b8135818111156133be57600080fd5b8760208260051b85010111156133d357600080fd5b6020928301989097509590910135949350505050565b602080825282518282018190526000919060409081850190600581811b8701840188860187805b858110156134b3578a8403603f19018752825180516001600160a01b031685528981015160808b8701819052815190870181905260a080880192828a1b890190910191908d0190865b8181101561348757609f198a850301855261347584845161326d565b948f01949350918e0191600101613459565b505050828b0151878c015260609283015115159290960191909152509588019591880191600101613410565b50919a9950505050505050505050565b6000602082840312156134d557600080fd5b611198826132c5565b600080604083850312156134f157600080fd5b50508035926020909101359150565b634e487b7160e01b600052604160045260246000fd5b6040516080810167ffffffffffffffff8111828210171561353957613539613500565b60405290565b604051601f8201601f1916810167ffffffffffffffff8111828210171561356857613568613500565b604052919050565b600067ffffffffffffffff83111561358a5761358a613500565b61359d601f8401601f191660200161353f565b90508281528383830111156135b157600080fd5b828260208301376000602084830101529392505050565b600082601f8301126135d957600080fd5b61119883833560208501613570565b6000806000606084860312156135fd57600080fd5b613606846132c5565b9250602084013567ffffffffffffffff8082111561362357600080fd5b61362f878388016135c8565b9350604086013591508082111561364557600080fd5b50613652868287016135c8565b9150509250925092565b8035801515811461223c57600080fd5b6000806040838503121561367f57600080fd5b613688836132c5565b91506133656020840161365c565b600080600080608085870312156136ac57600080fd5b6136b5856132c5565b93506136c3602086016132c5565b925060408501359150606085013567ffffffffffffffff8111156136e657600080fd5b8501601f810187136136f757600080fd5b61370687823560208401613570565b91505092959194509250565b6000806040838503121561372557600080fd5b61372e836132c5565b9150613365602084016132c5565b600181811c9082168061375057607f821691505b60208210810361377057634e487b7160e01b600052602260045260246000fd5b50919050565b634e487b7160e01b600052603260045260246000fd5b634e487b7160e01b600052601160045260246000fd5b6000600182016137b4576137b461378c565b5060010190565b6000808335601e198436030181126137d257600080fd5b83018035915067ffffffffffffffff8211156137ed57600080fd5b60200191503681900382131561380257600080fd5b9250929050565b6000602080838503121561381c57600080fd5b823567ffffffffffffffff8082111561383457600080fd5b908401906080828703121561384857600080fd5b613850613516565b613859836132c5565b8152838301358281111561386c57600080fd5b8301601f8101881361387d57600080fd5b80358381111561388f5761388f613500565b8060051b61389e87820161353f565b918252828101870191878101908b8411156138b857600080fd5b88850192505b838310156138f4578235878111156138d65760008081fd5b6138e48d8b838901016135c8565b83525091880191908801906138be565b8589015250505050604083810135908201526139126060840161365c565b60608201529695505050505050565b8054600090600181811c908083168061393b57607f831692505b6020808410820361395c57634e487b7160e01b600052602260045260246000fd5b8388528180156139735760018114613987576139b5565b60ff198616898301526040890196506139b5565b876000528160002060005b868110156139ad5781548b8201850152908501908301613992565b8a0183019750505b50505050505092915050565b6000604080830181845280865480835260609250828601915060058382821b88010160008a81526020808220825b86811015613a97578b8503605f1901885281546001600160a01b03168552608083860181905260018084018054928801839052865284862060a080890193808b1b8a01909101929190885b81811015613a66578a8503609f19018652613a558584613921565b958901959450918301918301613a3a565b5050505060028401548c880152600384015460ff161515968b019690965250968201966004909101906001016139ef565b505098909801989098525095979650505050505050565b60008351613ac0818460208801613241565b835190830190613ad4818360208801613241565b01949350505050565b6001600160a01b0384168152606060208201526000613aff6060830185613921565b9050826040830152949350505050565b60008219821115613b2257613b2261378c565b500190565b7f416363657373436f6e74726f6c3a206163636f756e7420000000000000000000815260008351613b5f816017850160208801613241565b7f206973206d697373696e6720726f6c65200000000000000000000000000000006017918401918201528351613b9c816028840160208801613241565b01602801949350505050565b60006001600160a01b03808716835280861660208401525083604083015260806060830152613bda608083018461326d565b9695505050505050565b600060208284031215613bf657600080fd5b81516111988161320e565b634e487b7160e01b600052601260045260246000fd5b600082613c2657613c26613c01565b500490565b600082821015613c3d57613c3d61378c565b500390565b600082613c5157613c51613c01565b500690565b6000816000190483118215151615613c7057613c7061378c565b500290565b600081613c8457613c8461378c565b506000190190565b634e487b7160e01b600052603160045260246000fdfea26469706673582212205b7c6230aeb693e9c4038e5f1cb446f69fcd77649ef094f5b992c8adbf77890164736f6c634300080e0033",
  "linkReferences": {},
  "deployedLinkReferences": {}
}