{
  "_format": "hh-sol-artifact-1",
  "contractName": "GovernorBravoDelegateStorageV2",
  "sourceName": "contracts/Module/interfaces/IGovernorModule.sol",
  "abi": [
    {
      "inputs": [],
      "name": "admin",
      "outputs": [
        {
          "internalType": "address",
          "name": "",
          "type": "address"
        }
      ],
      "stateMutability": "view",
      "type": "function"
    },
    {
      "inputs": [],
      "name": "implementation",
      "outputs": [
        {
          "internalType": "address",
          "name": "",
          "type": "address"
        }
      ],
      "stateMutability": "view",
      "type": "function"
    },
    {
      "inputs": [],
      "name": "initialProposalId",
      "outputs": [
        {
          "internalType": "uint256",
          "name": "",
          "type": "uint256"
        }
      ],
      "stateMutability": "view",
      "type": "function"
    },
    {
      "inputs": [
        {
          "internalType": "address",
          "name": "",
          "type": "address"
        }
      ],
      "name": "latestProposalIds",
      "outputs": [
        {
          "internalType": "uint256",
          "name": "",
          "type": "uint256"
        }
      ],
      "stateMutability": "view",
      "type": "function"
    },
    {
      "inputs": [],
      "name": "pendingAdmin",
      "outputs": [
        {
          "internalType": "address",
          "name": "",
          "type": "address"
        }
      ],
      "stateMutability": "view",
      "type": "function"
    },
    {
      "inputs": [],
      "name": "proposalCount",
      "outputs": [
        {
          "internalType": "uint256",
          "name": "",
          "type": "uint256"
        }
      ],
      "stateMutability": "view",
      "type": "function"
    },
    {
      "inputs": [
        {
          "internalType": "uint256",
          "name": "",
          "type": "uint256"
        }
      ],
      "name": "proposals",
      "outputs": [
        {
          "internalType": "uint256",
          "name": "id",
          "type": "uint256"
        },
        {
          "internalType": "address",
          "name": "proposer",
          "type": "address"
        },
        {
          "internalType": "uint256",
          "name": "eta",
          "type": "uint256"
        },
        {
          "internalType": "uint256",
          "name": "startBlock",
          "type": "uint256"
        },
        {
          "internalType": "uint256",
          "name": "endBlock",
          "type": "uint256"
        },
        {
          "internalType": "uint256",
          "name": "forVotes",
          "type": "uint256"
        },
        {
          "internalType": "uint256",
          "name": "againstVotes",
          "type": "uint256"
        },
        {
          "internalType": "uint256",
          "name": "abstainVotes",
          "type": "uint256"
        },
        {
          "internalType": "bool",
          "name": "canceled",
          "type": "bool"
        },
        {
          "internalType": "bool",
          "name": "executed",
          "type": "bool"
        },
        {
          "internalType": "string",
          "name": "description",
          "type": "string"
        },
        {
          "components": [
            {
              "internalType": "uint256",
              "name": "votingPeriod",
              "type": "uint256"
            },
            {
              "internalType": "uint256",
              "name": "votingDelay",
              "type": "uint256"
            },
            {
              "internalType": "uint256",
              "name": "proposalThreshold",
              "type": "uint256"
            },
            {
              "internalType": "uint256",
              "name": "quorumVotes",
              "type": "uint256"
            },
            {
              "internalType": "address",
              "name": "addr",
              "type": "address"
            },
            {
              "internalType": "address",
              "name": "strategyReference",
              "type": "address"
            }
          ],
          "internalType": "struct GovernorBravoDelegateStorageV1.Strategy",
          "name": "strategy",
          "type": "tuple"
        }
      ],
      "stateMutability": "view",
      "type": "function"
    },
    {
      "inputs": [],
      "name": "strategy",
      "outputs": [
        {
          "internalType": "uint256",
          "name": "votingPeriod",
          "type": "uint256"
        },
        {
          "internalType": "uint256",
          "name": "votingDelay",
          "type": "uint256"
        },
        {
          "internalType": "uint256",
          "name": "proposalThreshold",
          "type": "uint256"
        },
        {
          "internalType": "uint256",
          "name": "quorumVotes",
          "type": "uint256"
        },
        {
          "internalType": "address",
          "name": "addr",
          "type": "address"
        },
        {
          "internalType": "address",
          "name": "strategyReference",
          "type": "address"
        }
      ],
      "stateMutability": "view",
      "type": "function"
    },
    {
      "inputs": [],
      "name": "timelock",
      "outputs": [
        {
          "internalType": "contract TimelockInterface",
          "name": "",
          "type": "address"
        }
      ],
      "stateMutability": "view",
      "type": "function"
    },
    {
      "inputs": [
        {
          "internalType": "address",
          "name": "",
          "type": "address"
        }
      ],
      "name": "whitelistAccountExpirations",
      "outputs": [
        {
          "internalType": "uint256",
          "name": "",
          "type": "uint256"
        }
      ],
      "stateMutability": "view",
      "type": "function"
    },
    {
      "inputs": [],
      "name": "whitelistGuardian",
      "outputs": [
        {
          "internalType": "address",
          "name": "",
          "type": "address"
        }
      ],
      "stateMutability": "view",
      "type": "function"
    }
  ],
  "bytecode": "0x608060405234801561001057600080fd5b50610556806100206000396000f3fe608060405234801561001057600080fd5b50600436106100c95760003560e01c8063a8c62e7611610081578063da35c6641161005b578063da35c66414610217578063f851a44014610220578063fc4eee421461023357600080fd5b8063a8c62e761461018e578063c5a8425d146101f1578063d33219b41461020457600080fd5b806326782247116100b2578063267822471461013057806338bd0dda1461015b5780635c60da1b1461017b57600080fd5b8063013cf08b146100ce57806317977c6114610102575b600080fd5b6100e16100dc366004610388565b61023c565b6040516100f99c9b9a999897969594939291906103a1565b60405180910390f35b61012261011036600461049d565b60076020526000908152604090205481565b6040519081526020016100f9565b600154610143906001600160a01b031681565b6040516001600160a01b0390911681526020016100f9565b61012261016936600461049d565b60086020526000908152604090205481565b600254610143906001600160a01b031681565b600f546010546011546012546013546014546101b895949392916001600160a01b03908116911686565b6040805196875260208701959095529385019290925260608401526001600160a01b0390811660808401521660a082015260c0016100f9565b600954610143906001600160a01b031681565b600554610143906001600160a01b031681565b61012260045481565b600054610143906001600160a01b031681565b61012260035481565b60066020819052600091825260409091208054600182015460028301546003840154600485015460058601549686015460078701546008880154600989018054989a6001600160a01b039098169996989597949694959394929360ff80841694610100909404169291906102af906104cd565b80601f01602080910402602001604051908101604052809291908181526020018280546102db906104cd565b80156103285780601f106102fd57610100808354040283529160200191610328565b820191906000526020600020905b81548152906001019060200180831161030b57829003601f168201915b50506040805160c081018252600a8701548152600b8701546020820152600c87015491810191909152600d8601546060820152600e8601546001600160a01b039081166080830152600f9096015490951660a086015250919291508d9050565b60006020828403121561039a57600080fd5b5035919050565b60006102208e835260206001600160a01b038f16818501528d60408501528c60608501528b60808501528a60a08501528960c08501528860e0850152871515610100850152861515610120850152816101408501528551808386015260005b8181101561041d5787810183015186820185018401528201610400565b8181111561043057600083858489010101525b508551610160860152602086015161018086015260408601516101a086015260608601516101c086015260808601516001600160a01b039081166101e087015260a087015116610200860152601f01601f19168401919091010190509d9c50505050505050505050505050565b6000602082840312156104af57600080fd5b81356001600160a01b03811681146104c657600080fd5b9392505050565b600181811c908216806104e157607f821691505b60208210810361051a577f4e487b7100000000000000000000000000000000000000000000000000000000600052602260045260246000fd5b5091905056fea264697066735822122075fc52b203a7e52cf728be21ad19c469d8168ee8b1d7b53c3b66571408fd99c464736f6c634300080e0033",
  "linkReferences": {},
  "deployedLinkReferences": {}
}