{
  "_format": "hh-sol-artifact-1",
  "contractName": "GovernorBravoDelegateStorageV1",
  "sourceName": "contracts/Module/interfaces/IGovernorModule.sol",
  "abi": [
    {
      "inputs": [],
      "name": "admin",
      "outputs": [
        {
          "internalType": "address",
          "name": "",
          "type": "address"
        }
      ],
      "stateMutability": "view",
      "type": "function"
    },
    {
      "inputs": [],
      "name": "implementation",
      "outputs": [
        {
          "internalType": "address",
          "name": "",
          "type": "address"
        }
      ],
      "stateMutability": "view",
      "type": "function"
    },
    {
      "inputs": [],
      "name": "initialProposalId",
      "outputs": [
        {
          "internalType": "uint256",
          "name": "",
          "type": "uint256"
        }
      ],
      "stateMutability": "view",
      "type": "function"
    },
    {
      "inputs": [
        {
          "internalType": "address",
          "name": "",
          "type": "address"
        }
      ],
      "name": "latestProposalIds",
      "outputs": [
        {
          "internalType": "uint256",
          "name": "",
          "type": "uint256"
        }
      ],
      "stateMutability": "view",
      "type": "function"
    },
    {
      "inputs": [],
      "name": "pendingAdmin",
      "outputs": [
        {
          "internalType": "address",
          "name": "",
          "type": "address"
        }
      ],
      "stateMutability": "view",
      "type": "function"
    },
    {
      "inputs": [],
      "name": "proposalCount",
      "outputs": [
        {
          "internalType": "uint256",
          "name": "",
          "type": "uint256"
        }
      ],
      "stateMutability": "view",
      "type": "function"
    },
    {
      "inputs": [
        {
          "internalType": "uint256",
          "name": "",
          "type": "uint256"
        }
      ],
      "name": "proposals",
      "outputs": [
        {
          "internalType": "uint256",
          "name": "id",
          "type": "uint256"
        },
        {
          "internalType": "address",
          "name": "proposer",
          "type": "address"
        },
        {
          "internalType": "uint256",
          "name": "eta",
          "type": "uint256"
        },
        {
          "internalType": "uint256",
          "name": "startBlock",
          "type": "uint256"
        },
        {
          "internalType": "uint256",
          "name": "endBlock",
          "type": "uint256"
        },
        {
          "internalType": "uint256",
          "name": "forVotes",
          "type": "uint256"
        },
        {
          "internalType": "uint256",
          "name": "againstVotes",
          "type": "uint256"
        },
        {
          "internalType": "uint256",
          "name": "abstainVotes",
          "type": "uint256"
        },
        {
          "internalType": "bool",
          "name": "canceled",
          "type": "bool"
        },
        {
          "internalType": "bool",
          "name": "executed",
          "type": "bool"
        },
        {
          "internalType": "string",
          "name": "description",
          "type": "string"
        },
        {
          "components": [
            {
              "internalType": "uint256",
              "name": "votingPeriod",
              "type": "uint256"
            },
            {
              "internalType": "uint256",
              "name": "votingDelay",
              "type": "uint256"
            },
            {
              "internalType": "uint256",
              "name": "proposalThreshold",
              "type": "uint256"
            },
            {
              "internalType": "uint256",
              "name": "quorumVotes",
              "type": "uint256"
            },
            {
              "internalType": "address",
              "name": "addr",
              "type": "address"
            },
            {
              "internalType": "address",
              "name": "strategyReference",
              "type": "address"
            }
          ],
          "internalType": "struct GovernorBravoDelegateStorageV1.Strategy",
          "name": "strategy",
          "type": "tuple"
        }
      ],
      "stateMutability": "view",
      "type": "function"
    },
    {
      "inputs": [],
      "name": "timelock",
      "outputs": [
        {
          "internalType": "contract TimelockInterface",
          "name": "",
          "type": "address"
        }
      ],
      "stateMutability": "view",
      "type": "function"
    }
  ],
  "bytecode": "0x608060405234801561001057600080fd5b5061047f806100206000396000f3fe608060405234801561001057600080fd5b50600436106100885760003560e01c8063d33219b41161005b578063d33219b41461012d578063da35c66414610140578063f851a44014610149578063fc4eee421461015c57600080fd5b8063013cf08b1461008d57806317977c61146100c157806326782247146100ef5780635c60da1b1461011a575b600080fd5b6100a061009b3660046102b1565b610165565b6040516100b89c9b9a999897969594939291906102ca565b60405180910390f35b6100e16100cf3660046103c6565b60076020526000908152604090205481565b6040519081526020016100b8565b600154610102906001600160a01b031681565b6040516001600160a01b0390911681526020016100b8565b600254610102906001600160a01b031681565b600554610102906001600160a01b031681565b6100e160045481565b600054610102906001600160a01b031681565b6100e160035481565b60066020819052600091825260409091208054600182015460028301546003840154600485015460058601549686015460078701546008880154600989018054989a6001600160a01b039098169996989597949694959394929360ff80841694610100909404169291906101d8906103f6565b80601f0160208091040260200160405190810160405280929190818152602001828054610204906103f6565b80156102515780601f1061022657610100808354040283529160200191610251565b820191906000526020600020905b81548152906001019060200180831161023457829003601f168201915b50506040805160c081018252600a8701548152600b8701546020820152600c87015491810191909152600d8601546060820152600e8601546001600160a01b039081166080830152600f9096015490951660a086015250919291508d9050565b6000602082840312156102c357600080fd5b5035919050565b60006102208e835260206001600160a01b038f16818501528d60408501528c60608501528b60808501528a60a08501528960c08501528860e0850152871515610100850152861515610120850152816101408501528551808386015260005b818110156103465787810183015186820185018401528201610329565b8181111561035957600083858489010101525b508551610160860152602086015161018086015260408601516101a086015260608601516101c086015260808601516001600160a01b039081166101e087015260a087015116610200860152601f01601f19168401919091010190509d9c50505050505050505050505050565b6000602082840312156103d857600080fd5b81356001600160a01b03811681146103ef57600080fd5b9392505050565b600181811c9082168061040a57607f821691505b602082108103610443577f4e487b7100000000000000000000000000000000000000000000000000000000600052602260045260246000fd5b5091905056fea2646970667358221220fb94302be068f9cf282fc95fd8b5de34467e5ab55a373352d706cc20ee39c96d64736f6c634300080e0033",
  "linkReferences": {},
  "deployedLinkReferences": {}
}