{
  "_format": "hh-sol-artifact-1",
  "contractName": "TestErc20",
  "sourceName": "contracts/Test/TestERC20.sol",
  "abi": [
    {
      "inputs": [],
      "stateMutability": "nonpayable",
      "type": "constructor"
    },
    {
      "anonymous": false,
      "inputs": [
        {
          "indexed": true,
          "internalType": "address",
          "name": "owner",
          "type": "address"
        },
        {
          "indexed": true,
          "internalType": "address",
          "name": "spender",
          "type": "address"
        },
        {
          "indexed": false,
          "internalType": "uint256",
          "name": "value",
          "type": "uint256"
        }
      ],
      "name": "Approval",
      "type": "event"
    },
    {
      "anonymous": false,
      "inputs": [
        {
          "indexed": true,
          "internalType": "address",
          "name": "delegator",
          "type": "address"
        },
        {
          "indexed": true,
          "internalType": "address",
          "name": "fromDelegate",
          "type": "address"
        },
        {
          "indexed": true,
          "internalType": "address",
          "name": "toDelegate",
          "type": "address"
        }
      ],
      "name": "DelegateChanged",
      "type": "event"
    },
    {
      "anonymous": false,
      "inputs": [
        {
          "indexed": true,
          "internalType": "address",
          "name": "delegate",
          "type": "address"
        },
        {
          "indexed": false,
          "internalType": "uint256",
          "name": "previousBalance",
          "type": "uint256"
        },
        {
          "indexed": false,
          "internalType": "uint256",
          "name": "newBalance",
          "type": "uint256"
        }
      ],
      "name": "DelegateVotesChanged",
      "type": "event"
    },
    {
      "anonymous": false,
      "inputs": [
        {
          "indexed": true,
          "internalType": "address",
          "name": "from",
          "type": "address"
        },
        {
          "indexed": true,
          "internalType": "address",
          "name": "to",
          "type": "address"
        },
        {
          "indexed": false,
          "internalType": "uint256",
          "name": "value",
          "type": "uint256"
        }
      ],
      "name": "Transfer",
      "type": "event"
    },
    {
      "inputs": [],
      "name": "DOMAIN_SEPARATOR",
      "outputs": [
        {
          "internalType": "bytes32",
          "name": "",
          "type": "bytes32"
        }
      ],
      "stateMutability": "view",
      "type": "function"
    },
    {
      "inputs": [
        {
          "internalType": "address",
          "name": "owner",
          "type": "address"
        },
        {
          "internalType": "address",
          "name": "spender",
          "type": "address"
        }
      ],
      "name": "allowance",
      "outputs": [
        {
          "internalType": "uint256",
          "name": "",
          "type": "uint256"
        }
      ],
      "stateMutability": "view",
      "type": "function"
    },
    {
      "inputs": [
        {
          "internalType": "address",
          "name": "spender",
          "type": "address"
        },
        {
          "internalType": "uint256",
          "name": "amount",
          "type": "uint256"
        }
      ],
      "name": "approve",
      "outputs": [
        {
          "internalType": "bool",
          "name": "",
          "type": "bool"
        }
      ],
      "stateMutability": "nonpayable",
      "type": "function"
    },
    {
      "inputs": [
        {
          "internalType": "address",
          "name": "account",
          "type": "address"
        }
      ],
      "name": "balanceOf",
      "outputs": [
        {
          "internalType": "uint256",
          "name": "",
          "type": "uint256"
        }
      ],
      "stateMutability": "view",
      "type": "function"
    },
    {
      "inputs": [
        {
          "internalType": "address",
          "name": "account",
          "type": "address"
        },
        {
          "internalType": "uint32",
          "name": "pos",
          "type": "uint32"
        }
      ],
      "name": "checkpoints",
      "outputs": [
        {
          "components": [
            {
              "internalType": "uint32",
              "name": "fromBlock",
              "type": "uint32"
            },
            {
              "internalType": "uint224",
              "name": "votes",
              "type": "uint224"
            }
          ],
          "internalType": "struct ERC20Votes.Checkpoint",
          "name": "",
          "type": "tuple"
        }
      ],
      "stateMutability": "view",
      "type": "function"
    },
    {
      "inputs": [],
      "name": "decimals",
      "outputs": [
        {
          "internalType": "uint8",
          "name": "",
          "type": "uint8"
        }
      ],
      "stateMutability": "view",
      "type": "function"
    },
    {
      "inputs": [
        {
          "internalType": "address",
          "name": "spender",
          "type": "address"
        },
        {
          "internalType": "uint256",
          "name": "subtractedValue",
          "type": "uint256"
        }
      ],
      "name": "decreaseAllowance",
      "outputs": [
        {
          "internalType": "bool",
          "name": "",
          "type": "bool"
        }
      ],
      "stateMutability": "nonpayable",
      "type": "function"
    },
    {
      "inputs": [
        {
          "internalType": "address",
          "name": "delegatee",
          "type": "address"
        }
      ],
      "name": "delegate",
      "outputs": [],
      "stateMutability": "nonpayable",
      "type": "function"
    },
    {
      "inputs": [
        {
          "internalType": "address",
          "name": "delegatee",
          "type": "address"
        },
        {
          "internalType": "uint256",
          "name": "nonce",
          "type": "uint256"
        },
        {
          "internalType": "uint256",
          "name": "expiry",
          "type": "uint256"
        },
        {
          "internalType": "uint8",
          "name": "v",
          "type": "uint8"
        },
        {
          "internalType": "bytes32",
          "name": "r",
          "type": "bytes32"
        },
        {
          "internalType": "bytes32",
          "name": "s",
          "type": "bytes32"
        }
      ],
      "name": "delegateBySig",
      "outputs": [],
      "stateMutability": "nonpayable",
      "type": "function"
    },
    {
      "inputs": [
        {
          "internalType": "address",
          "name": "account",
          "type": "address"
        }
      ],
      "name": "delegates",
      "outputs": [
        {
          "internalType": "address",
          "name": "",
          "type": "address"
        }
      ],
      "stateMutability": "view",
      "type": "function"
    },
    {
      "inputs": [
        {
          "internalType": "address",
          "name": "account",
          "type": "address"
        }
      ],
      "name": "getCurrentVotes",
      "outputs": [
        {
          "internalType": "uint96",
          "name": "",
          "type": "uint96"
        }
      ],
      "stateMutability": "view",
      "type": "function"
    },
    {
      "inputs": [
        {
          "internalType": "uint256",
          "name": "blockNumber",
          "type": "uint256"
        }
      ],
      "name": "getPastTotalSupply",
      "outputs": [
        {
          "internalType": "uint256",
          "name": "",
          "type": "uint256"
        }
      ],
      "stateMutability": "view",
      "type": "function"
    },
    {
      "inputs": [
        {
          "internalType": "address",
          "name": "account",
          "type": "address"
        },
        {
          "internalType": "uint256",
          "name": "blockNumber",
          "type": "uint256"
        }
      ],
      "name": "getPastVotes",
      "outputs": [
        {
          "internalType": "uint256",
          "name": "",
          "type": "uint256"
        }
      ],
      "stateMutability": "view",
      "type": "function"
    },
    {
      "inputs": [
        {
          "internalType": "address",
          "name": "account",
          "type": "address"
        },
        {
          "internalType": "uint256",
          "name": "blockNumber",
          "type": "uint256"
        }
      ],
      "name": "getPriorVotes",
      "outputs": [
        {
          "internalType": "uint96",
          "name": "",
          "type": "uint96"
        }
      ],
      "stateMutability": "view",
      "type": "function"
    },
    {
      "inputs": [
        {
          "internalType": "address",
          "name": "account",
          "type": "address"
        }
      ],
      "name": "getVotes",
      "outputs": [
        {
          "internalType": "uint256",
          "name": "",
          "type": "uint256"
        }
      ],
      "stateMutability": "view",
      "type": "function"
    },
    {
      "inputs": [
        {
          "internalType": "address",
          "name": "spender",
          "type": "address"
        },
        {
          "internalType": "uint256",
          "name": "addedValue",
          "type": "uint256"
        }
      ],
      "name": "increaseAllowance",
      "outputs": [
        {
          "internalType": "bool",
          "name": "",
          "type": "bool"
        }
      ],
      "stateMutability": "nonpayable",
      "type": "function"
    },
    {
      "inputs": [],
      "name": "name",
      "outputs": [
        {
          "internalType": "string",
          "name": "",
          "type": "string"
        }
      ],
      "stateMutability": "view",
      "type": "function"
    },
    {
      "inputs": [
        {
          "internalType": "address",
          "name": "owner",
          "type": "address"
        }
      ],
      "name": "nonces",
      "outputs": [
        {
          "internalType": "uint256",
          "name": "",
          "type": "uint256"
        }
      ],
      "stateMutability": "view",
      "type": "function"
    },
    {
      "inputs": [
        {
          "internalType": "address",
          "name": "account",
          "type": "address"
        }
      ],
      "name": "numCheckpoints",
      "outputs": [
        {
          "internalType": "uint32",
          "name": "",
          "type": "uint32"
        }
      ],
      "stateMutability": "view",
      "type": "function"
    },
    {
      "inputs": [
        {
          "internalType": "address",
          "name": "owner",
          "type": "address"
        },
        {
          "internalType": "address",
          "name": "spender",
          "type": "address"
        },
        {
          "internalType": "uint256",
          "name": "value",
          "type": "uint256"
        },
        {
          "internalType": "uint256",
          "name": "deadline",
          "type": "uint256"
        },
        {
          "internalType": "uint8",
          "name": "v",
          "type": "uint8"
        },
        {
          "internalType": "bytes32",
          "name": "r",
          "type": "bytes32"
        },
        {
          "internalType": "bytes32",
          "name": "s",
          "type": "bytes32"
        }
      ],
      "name": "permit",
      "outputs": [],
      "stateMutability": "nonpayable",
      "type": "function"
    },
    {
      "inputs": [],
      "name": "symbol",
      "outputs": [
        {
          "internalType": "string",
          "name": "",
          "type": "string"
        }
      ],
      "stateMutability": "view",
      "type": "function"
    },
    {
      "inputs": [],
      "name": "totalSupply",
      "outputs": [
        {
          "internalType": "uint256",
          "name": "",
          "type": "uint256"
        }
      ],
      "stateMutability": "view",
      "type": "function"
    },
    {
      "inputs": [
        {
          "internalType": "address",
          "name": "to",
          "type": "address"
        },
        {
          "internalType": "uint256",
          "name": "amount",
          "type": "uint256"
        }
      ],
      "name": "transfer",
      "outputs": [
        {
          "internalType": "bool",
          "name": "",
          "type": "bool"
        }
      ],
      "stateMutability": "nonpayable",
      "type": "function"
    },
    {
      "inputs": [
        {
          "internalType": "address",
          "name": "from",
          "type": "address"
        },
        {
          "internalType": "address",
          "name": "to",
          "type": "address"
        },
        {
          "internalType": "uint256",
          "name": "amount",
          "type": "uint256"
        }
      ],
      "name": "transferFrom",
      "outputs": [
        {
          "internalType": "bool",
          "name": "",
          "type": "bool"
        }
      ],
      "stateMutability": "nonpayable",
      "type": "function"
    }
  ],
  "bytecode": "0x6101406040523480156200001257600080fd5b50604051806040016040528060048152602001631d195cdd60e21b81525080604051806040016040528060018152602001603160f81b815250604051806040016040528060048152602001631d195cdd60e21b815250604051806040016040528060048152602001631d195cdd60e21b81525081600390805190602001906200009d92919062000744565b508051620000b390600490602084019062000744565b5050825160209384012082519284019290922060e08390526101008190524660a0818152604080517f8b73c3c69bb8fe3d512ecc4cf759cc79239f7b179b0ffacaa9a75d522b39400f818901819052818301979097526060810194909452608080850193909352308483018190528151808603909301835260c09485019091528151919096012090529290925261012052506200015f9050336b06c9144c1c690d4cb400000062000165565b6200087d565b6200017c82826200021a60201b62000b081760201c565b6001600160601b036200018e60025490565b1115620001fb5760405162461bcd60e51b815260206004820152603060248201527f4552433230566f7465733a20746f74616c20737570706c79207269736b73206f60448201526f766572666c6f77696e6720766f74657360801b60648201526084015b60405180910390fd5b62000214600962000bf36200030d60201b178362000322565b50505050565b6001600160a01b038216620002725760405162461bcd60e51b815260206004820152601f60248201527f45524332303a206d696e7420746f20746865207a65726f2061646472657373006044820152606401620001f2565b8060026000828254620002869190620007f6565b90915550506001600160a01b03821660009081526020819052604081208054839290620002b5908490620007f6565b90915550506040518181526001600160a01b038316906000907fddf252ad1be2c89b69c2b068fc378daa952ba7f163c4a11628f55a4df523b3ef9060200160405180910390a36200030960008383620004d9565b5050565b60006200031b8284620007f6565b9392505050565b8254600090819080156200037457856200033e60018362000811565b815481106200035157620003516200082b565b60009182526020909120015464010000000090046001600160e01b031662000377565b60005b6001600160e01b031692506200038e83858760201c565b9150600081118015620003d257504386620003ab60018462000811565b81548110620003be57620003be6200082b565b60009182526020909120015463ffffffff16145b156200044657620003ee826200052560201b62000bff1760201c565b86620003fc60018462000811565b815481106200040f576200040f6200082b565b9060005260206000200160000160046101000a8154816001600160e01b0302191690836001600160e01b03160217905550620004cb565b85604051806040016040528062000468436200059460201b62000c821760201c565b63ffffffff16815260200162000489856200052560201b62000bff1760201c565b6001600160e01b0390811690915282546001810184556000938452602093849020835194909301519091166401000000000263ffffffff909316929092179101555b50935093915050565b505050565b620004f1838383620004d460201b62000cfe1760201c565b6001600160a01b03838116600090815260076020526040808220548584168352912054620004d492918216911683620005fb565b60006001600160e01b03821115620005905760405162461bcd60e51b815260206004820152602760248201527f53616665436173743a2076616c756520646f65736e27742066697420696e20326044820152663234206269747360c81b6064820152608401620001f2565b5090565b600063ffffffff821115620005905760405162461bcd60e51b815260206004820152602660248201527f53616665436173743a2076616c756520646f65736e27742066697420696e203360448201526532206269747360d01b6064820152608401620001f2565b816001600160a01b0316836001600160a01b0316141580156200061e5750600081115b15620004d4576001600160a01b03831615620006ab576001600160a01b03831660009081526008602090815260408220829162000668919062000736901b62000d03178562000322565b91509150846001600160a01b0316600080516020620026898339815191528383604051620006a0929190918252602082015260400190565b60405180910390a250505b6001600160a01b03821615620004d4576001600160a01b038216600090815260086020908152604082208291620006ef91906200030d901b62000bf3178562000322565b91509150836001600160a01b031660008051602062002689833981519152838360405162000727929190918252602082015260400190565b60405180910390a25050505050565b60006200031b828462000811565b828054620007529062000841565b90600052602060002090601f016020900481019282620007765760008555620007c1565b82601f106200079157805160ff1916838001178555620007c1565b82800160010185558215620007c1579182015b82811115620007c1578251825591602001919060010190620007a4565b50620005909291505b80821115620005905760008155600101620007ca565b634e487b7160e01b600052601160045260246000fd5b600082198211156200080c576200080c620007e0565b500190565b600082821015620008265762000826620007e0565b500390565b634e487b7160e01b600052603260045260246000fd5b600181811c908216806200085657607f821691505b6020821081036200087757634e487b7160e01b600052602260045260246000fd5b50919050565b60805160a05160c05160e0516101005161012051611dbc620008cd60003960006111a0015260006111ef015260006111ca015260006111230152600061114d015260006111770152611dbc6000f3fe608060405234801561001057600080fd5b50600436106101985760003560e01c8063782d6fe1116100e3578063a9059cbb1161008c578063d505accf11610066578063d505accf146103a7578063dd62ed3e146103ba578063f1127ed8146103f357600080fd5b8063a9059cbb1461036e578063b4b5ea5714610381578063c3cda5201461039457600080fd5b806395d89b41116100bd57806395d89b41146103405780639ab24eb014610348578063a457c2d71461035b57600080fd5b8063782d6fe1146102ea5780637ecebe001461031a5780638e539e8c1461032d57600080fd5b806339509351116101455780635c19a95c1161011f5780635c19a95c146102845780636fcfff451461029957806370a08231146102c157600080fd5b8063395093511461021a5780633a46b1a81461022d578063587cde1e1461024057600080fd5b806323b872dd1161017657806323b872dd146101f0578063313ce567146102035780633644e5151461021257600080fd5b806306fdde031461019d578063095ea7b3146101bb57806318160ddd146101de575b600080fd5b6101a5610430565b6040516101b29190611a6e565b60405180910390f35b6101ce6101c9366004611adf565b6104c2565b60405190151581526020016101b2565b6002545b6040519081526020016101b2565b6101ce6101fe366004611b09565b6104da565b604051601281526020016101b2565b6101e26104fe565b6101ce610228366004611adf565b61050d565b6101e261023b366004611adf565b61054c565b61026c61024e366004611b45565b6001600160a01b039081166000908152600760205260409020541690565b6040516001600160a01b0390911681526020016101b2565b610297610292366004611b45565b6105cb565b005b6102ac6102a7366004611b45565b6105d8565b60405163ffffffff90911681526020016101b2565b6101e26102cf366004611b45565b6001600160a01b031660009081526020819052604090205490565b6102fd6102f8366004611adf565b610600565b6040516bffffffffffffffffffffffff90911681526020016101b2565b6101e2610328366004611b45565b610614565b6101e261033b366004611b60565b610632565b6101a561068e565b6101e2610356366004611b45565b61069d565b6101ce610369366004611adf565b610724565b6101ce61037c366004611adf565b6107ce565b6102fd61038f366004611b45565b6107dc565b6102976103a2366004611b8a565b6107ea565b6102976103b5366004611be2565b610920565b6101e26103c8366004611c4c565b6001600160a01b03918216600090815260016020908152604080832093909416825291909152205490565b610406610401366004611c7f565b610a84565b60408051825163ffffffff1681526020928301516001600160e01b031692810192909252016101b2565b60606003805461043f90611cbf565b80601f016020809104026020016040519081016040528092919081815260200182805461046b90611cbf565b80156104b85780601f1061048d576101008083540402835291602001916104b8565b820191906000526020600020905b81548152906001019060200180831161049b57829003601f168201915b5050505050905090565b6000336104d0818585610d0f565b5060019392505050565b6000336104e8858285610e67565b6104f3858585610ef9565b506001949350505050565b6000610508611116565b905090565b3360008181526001602090815260408083206001600160a01b03871684529091528120549091906104d09082908690610547908790611d09565b610d0f565b60004382106105a25760405162461bcd60e51b815260206004820152601f60248201527f4552433230566f7465733a20626c6f636b206e6f7420796574206d696e65640060448201526064015b60405180910390fd5b6001600160a01b03831660009081526008602052604090206105c4908361123d565b9392505050565b6105d533826112fa565b50565b6001600160a01b0381166000908152600860205260408120546105fa90610c82565b92915050565b60006105c461060f848461054c565b61138b565b6001600160a01b0381166000908152600560205260408120546105fa565b60004382106106835760405162461bcd60e51b815260206004820152601f60248201527f4552433230566f7465733a20626c6f636b206e6f7420796574206d696e6564006044820152606401610599565b6105fa60098361123d565b60606004805461043f90611cbf565b6001600160a01b0381166000908152600860205260408120548015610711576001600160a01b03831660009081526008602052604090206106df600183611d21565b815481106106ef576106ef611d38565b60009182526020909120015464010000000090046001600160e01b0316610714565b60005b6001600160e01b03169392505050565b3360008181526001602090815260408083206001600160a01b0387168452909152812054909190838110156107c15760405162461bcd60e51b815260206004820152602560248201527f45524332303a2064656372656173656420616c6c6f77616e63652062656c6f7760448201527f207a65726f0000000000000000000000000000000000000000000000000000006064820152608401610599565b6104f38286868403610d0f565b6000336104d0818585610ef9565b60006105fa61060f8361069d565b8342111561083a5760405162461bcd60e51b815260206004820152601d60248201527f4552433230566f7465733a207369676e617475726520657870697265640000006044820152606401610599565b604080517fe48329057bfd03d55e49b547132e39cffd9c1820ad7b9d4c5307691425d15adf60208201526001600160a01b0388169181019190915260608101869052608081018590526000906108b4906108ac9060a0016040516020818303038152906040528051906020012061140f565b858585611478565b90506108bf816114a0565b861461090d5760405162461bcd60e51b815260206004820152601960248201527f4552433230566f7465733a20696e76616c6964206e6f6e6365000000000000006044820152606401610599565b61091781886112fa565b50505050505050565b834211156109705760405162461bcd60e51b815260206004820152601d60248201527f45524332305065726d69743a206578706972656420646561646c696e650000006044820152606401610599565b60007f6e71edae12b1b97f4d1f60370fef10105fa2faae0126114a169c64845d6126c988888861099f8c6114a0565b6040805160208101969096526001600160a01b0394851690860152929091166060840152608083015260a082015260c0810186905260e00160405160208183030381529060405280519060200120905060006109fa8261140f565b90506000610a0a82878787611478565b9050896001600160a01b0316816001600160a01b031614610a6d5760405162461bcd60e51b815260206004820152601e60248201527f45524332305065726d69743a20696e76616c6964207369676e617475726500006044820152606401610599565b610a788a8a8a610d0f565b50505050505050505050565b60408051808201909152600080825260208201526001600160a01b0383166000908152600860205260409020805463ffffffff8416908110610ac857610ac8611d38565b60009182526020918290206040805180820190915291015463ffffffff8116825264010000000090046001600160e01b0316918101919091529392505050565b6001600160a01b038216610b5e5760405162461bcd60e51b815260206004820152601f60248201527f45524332303a206d696e7420746f20746865207a65726f2061646472657373006044820152606401610599565b8060026000828254610b709190611d09565b90915550506001600160a01b03821660009081526020819052604081208054839290610b9d908490611d09565b90915550506040518181526001600160a01b038316906000907fddf252ad1be2c89b69c2b068fc378daa952ba7f163c4a11628f55a4df523b3ef9060200160405180910390a3610bef600083836114c8565b5050565b60006105c48284611d09565b60006001600160e01b03821115610c7e5760405162461bcd60e51b815260206004820152602760248201527f53616665436173743a2076616c756520646f65736e27742066697420696e203260448201527f32342062697473000000000000000000000000000000000000000000000000006064820152608401610599565b5090565b600063ffffffff821115610c7e5760405162461bcd60e51b815260206004820152602660248201527f53616665436173743a2076616c756520646f65736e27742066697420696e203360448201527f32206269747300000000000000000000000000000000000000000000000000006064820152608401610599565b505050565b60006105c48284611d21565b6001600160a01b038316610d8a5760405162461bcd60e51b8152602060048201526024808201527f45524332303a20617070726f76652066726f6d20746865207a65726f2061646460448201527f72657373000000000000000000000000000000000000000000000000000000006064820152608401610599565b6001600160a01b038216610e065760405162461bcd60e51b815260206004820152602260248201527f45524332303a20617070726f766520746f20746865207a65726f20616464726560448201527f73730000000000000000000000000000000000000000000000000000000000006064820152608401610599565b6001600160a01b0383811660008181526001602090815260408083209487168084529482529182902085905590518481527f8c5be1e5ebec7d5bd14f71427d1e84f3dd0314c0f7b2291e5b200ac8c7c3b925910160405180910390a3505050565b6001600160a01b038381166000908152600160209081526040808320938616835292905220546000198114610ef35781811015610ee65760405162461bcd60e51b815260206004820152601d60248201527f45524332303a20696e73756666696369656e7420616c6c6f77616e63650000006044820152606401610599565b610ef38484848403610d0f565b50505050565b6001600160a01b038316610f755760405162461bcd60e51b815260206004820152602560248201527f45524332303a207472616e736665722066726f6d20746865207a65726f20616460448201527f64726573730000000000000000000000000000000000000000000000000000006064820152608401610599565b6001600160a01b038216610ff15760405162461bcd60e51b815260206004820152602360248201527f45524332303a207472616e7366657220746f20746865207a65726f206164647260448201527f65737300000000000000000000000000000000000000000000000000000000006064820152608401610599565b6001600160a01b038316600090815260208190526040902054818110156110805760405162461bcd60e51b815260206004820152602660248201527f45524332303a207472616e7366657220616d6f756e742065786365656473206260448201527f616c616e636500000000000000000000000000000000000000000000000000006064820152608401610599565b6001600160a01b038085166000908152602081905260408082208585039055918516815290812080548492906110b7908490611d09565b92505081905550826001600160a01b0316846001600160a01b03167fddf252ad1be2c89b69c2b068fc378daa952ba7f163c4a11628f55a4df523b3ef8460405161110391815260200190565b60405180910390a3610ef38484846114c8565b6000306001600160a01b037f00000000000000000000000000000000000000000000000000000000000000001614801561116f57507f000000000000000000000000000000000000000000000000000000000000000046145b1561119957507f000000000000000000000000000000000000000000000000000000000000000090565b50604080517f00000000000000000000000000000000000000000000000000000000000000006020808301919091527f0000000000000000000000000000000000000000000000000000000000000000828401527f000000000000000000000000000000000000000000000000000000000000000060608301524660808301523060a0808401919091528351808403909101815260c0909201909252805191012090565b8154600090815b818110156112a157600061125882846114fa565b90508486828154811061126d5761126d611d38565b60009182526020909120015463ffffffff16111561128d5780925061129b565b611298816001611d09565b91505b50611244565b81156112e557846112b3600184611d21565b815481106112c3576112c3611d38565b60009182526020909120015464010000000090046001600160e01b03166112e8565b60005b6001600160e01b031695945050505050565b6001600160a01b038281166000818152600760208181526040808420805485845282862054949093528787167fffffffffffffffffffffffff00000000000000000000000000000000000000008416811790915590519190951694919391928592917f3134e8a2e6d97e929a7e54011ea5485d7d196dd5f0ba4d4ef95803e8e3fc257f9190a4610ef3828483611515565b60006bffffffffffffffffffffffff821115610c7e5760405162461bcd60e51b815260206004820152602660248201527f53616665436173743a2076616c756520646f65736e27742066697420696e203960448201527f36206269747300000000000000000000000000000000000000000000000000006064820152608401610599565b60006105fa61141c611116565b836040517f19010000000000000000000000000000000000000000000000000000000000006020820152602281018390526042810182905260009060620160405160208183030381529060405280519060200120905092915050565b600080600061148987878787611652565b915091506114968161173f565b5095945050505050565b6001600160a01b03811660009081526005602052604090208054600181018255905b50919050565b6001600160a01b03838116600090815260076020526040808220548584168352912054610cfe92918216911683611515565b60006115096002848418611d4e565b6105c490848416611d09565b816001600160a01b0316836001600160a01b0316141580156115375750600081115b15610cfe576001600160a01b038316156115c5576001600160a01b0383166000908152600860205260408120819061157290610d03856118f5565b91509150846001600160a01b03167fdec2bacdd2f05b59de34da9b523dff8be42e5e38e818c82fdb0bae774387a72483836040516115ba929190918252602082015260400190565b60405180910390a250505b6001600160a01b03821615610cfe576001600160a01b038216600090815260086020526040812081906115fb90610bf3856118f5565b91509150836001600160a01b03167fdec2bacdd2f05b59de34da9b523dff8be42e5e38e818c82fdb0bae774387a7248383604051611643929190918252602082015260400190565b60405180910390a25050505050565b6000807f7fffffffffffffffffffffffffffffff5d576e7357a4501ddfe92f46681b20a08311156116895750600090506003611736565b8460ff16601b141580156116a157508460ff16601c14155b156116b25750600090506004611736565b6040805160008082526020820180845289905260ff881692820192909252606081018690526080810185905260019060a0016020604051602081039080840390855afa158015611706573d6000803e3d6000fd5b5050604051601f1901519150506001600160a01b03811661172f57600060019250925050611736565b9150600090505b94509492505050565b600081600481111561175357611753611d70565b0361175b5750565b600181600481111561176f5761176f611d70565b036117bc5760405162461bcd60e51b815260206004820152601860248201527f45434453413a20696e76616c6964207369676e617475726500000000000000006044820152606401610599565b60028160048111156117d0576117d0611d70565b0361181d5760405162461bcd60e51b815260206004820152601f60248201527f45434453413a20696e76616c6964207369676e6174757265206c656e677468006044820152606401610599565b600381600481111561183157611831611d70565b036118895760405162461bcd60e51b815260206004820152602260248201527f45434453413a20696e76616c6964207369676e6174757265202773272076616c604482015261756560f01b6064820152608401610599565b600481600481111561189d5761189d611d70565b036105d55760405162461bcd60e51b815260206004820152602260248201527f45434453413a20696e76616c6964207369676e6174757265202776272076616c604482015261756560f01b6064820152608401610599565b825460009081908015611940578561190e600183611d21565b8154811061191e5761191e611d38565b60009182526020909120015464010000000090046001600160e01b0316611943565b60005b6001600160e01b0316925061195c83858763ffffffff16565b915060008111801561199a57504386611976600184611d21565b8154811061198657611986611d38565b60009182526020909120015463ffffffff16145b156119fa576119a882610bff565b866119b4600184611d21565b815481106119c4576119c4611d38565b9060005260206000200160000160046101000a8154816001600160e01b0302191690836001600160e01b03160217905550611a65565b856040518060400160405280611a0f43610c82565b63ffffffff168152602001611a2385610bff565b6001600160e01b0390811690915282546001810184556000938452602093849020835194909301519091166401000000000263ffffffff909316929092179101555b50935093915050565b600060208083528351808285015260005b81811015611a9b57858101830151858201604001528201611a7f565b81811115611aad576000604083870101525b50601f01601f1916929092016040019392505050565b80356001600160a01b0381168114611ada57600080fd5b919050565b60008060408385031215611af257600080fd5b611afb83611ac3565b946020939093013593505050565b600080600060608486031215611b1e57600080fd5b611b2784611ac3565b9250611b3560208501611ac3565b9150604084013590509250925092565b600060208284031215611b5757600080fd5b6105c482611ac3565b600060208284031215611b7257600080fd5b5035919050565b803560ff81168114611ada57600080fd5b60008060008060008060c08789031215611ba357600080fd5b611bac87611ac3565b95506020870135945060408701359350611bc860608801611b79565b92506080870135915060a087013590509295509295509295565b600080600080600080600060e0888a031215611bfd57600080fd5b611c0688611ac3565b9650611c1460208901611ac3565b95506040880135945060608801359350611c3060808901611b79565b925060a0880135915060c0880135905092959891949750929550565b60008060408385031215611c5f57600080fd5b611c6883611ac3565b9150611c7660208401611ac3565b90509250929050565b60008060408385031215611c9257600080fd5b611c9b83611ac3565b9150602083013563ffffffff81168114611cb457600080fd5b809150509250929050565b600181811c90821680611cd357607f821691505b6020821081036114c257634e487b7160e01b600052602260045260246000fd5b634e487b7160e01b600052601160045260246000fd5b60008219821115611d1c57611d1c611cf3565b500190565b600082821015611d3357611d33611cf3565b500390565b634e487b7160e01b600052603260045260246000fd5b600082611d6b57634e487b7160e01b600052601260045260246000fd5b500490565b634e487b7160e01b600052602160045260246000fdfea2646970667358221220167a37a9c7390dbb5431ae65d0c9881028cb17347247c248524657dba4a22eee64736f6c634300080e0033dec2bacdd2f05b59de34da9b523dff8be42e5e38e818c82fdb0bae774387a724",
  "linkReferences": {},
  "deployedLinkReferences": {}
}