{
  "_format": "hh-sol-artifact-1",
  "contractName": "BalanceOfStrategy",
  "sourceName": "contracts/Module/strategies/BalanceOfStrategy.sol",
  "abi": [
    {
      "inputs": [
        {
          "internalType": "address",
          "name": "ref",
          "type": "address"
        },
        {
          "internalType": "address",
          "name": "account",
          "type": "address"
        },
        {
          "internalType": "uint256",
          "name": "blockNumber",
          "type": "uint256"
        }
      ],
      "name": "getPastVotes",
      "outputs": [
        {
          "internalType": "uint256",
          "name": "",
          "type": "uint256"
        }
      ],
      "stateMutability": "view",
      "type": "function"
    },
    {
      "inputs": [],
      "name": "name",
      "outputs": [
        {
          "internalType": "string",
          "name": "",
          "type": "string"
        }
      ],
      "stateMutability": "pure",
      "type": "function"
    }
  ],
  "bytecode": "0x608060405234801561001057600080fd5b50610250806100206000396000f3fe608060405234801561001057600080fd5b50600436106100365760003560e01c806306fdde031461003b5780639e2ea51914610083575b600080fd5b604080518082018252600981527f42616c616e63654f6600000000000000000000000000000000000000000000006020820152905161007a9190610147565b60405180910390f35b6100966100913660046101c5565b6100a4565b60405190815260200161007a565b6040517f3a46b1a800000000000000000000000000000000000000000000000000000000815273ffffffffffffffffffffffffffffffffffffffff83811660048301526024820183905260009190851690633a46b1a890604401602060405180830381865afa15801561011b573d6000803e3d6000fd5b505050506040513d601f19601f8201168201806040525081019061013f9190610201565b949350505050565b600060208083528351808285015260005b8181101561017457858101830151858201604001528201610158565b81811115610186576000604083870101525b50601f01601f1916929092016040019392505050565b803573ffffffffffffffffffffffffffffffffffffffff811681146101c057600080fd5b919050565b6000806000606084860312156101da57600080fd5b6101e38461019c565b92506101f16020850161019c565b9150604084013590509250925092565b60006020828403121561021357600080fd5b505191905056fea2646970667358221220790523ade8757b3dcff044040c7a1fb70e06246170e15451d9d30c2301f387a464736f6c634300080e0033",
  "linkReferences": {},
  "deployedLinkReferences": {}
}