{
  "_format": "hh-sol-artifact-1",
  "contractName": "BalanceOfStrategy",
  "sourceName": "contracts/Module/strategies/BalanceOfStrategy.sol",
  "abi": [
    {
      "inputs": [
        {
          "internalType": "address",
          "name": "ref",
          "type": "address"
        },
        {
          "internalType": "address",
          "name": "account",
          "type": "address"
        },
        {
          "internalType": "uint256",
          "name": "blockNumber",
          "type": "uint256"
        }
      ],
      "name": "getPriorVotes",
      "outputs": [
        {
          "internalType": "uint96",
          "name": "",
          "type": "uint96"
        }
      ],
      "stateMutability": "view",
      "type": "function"
    },
    {
      "inputs": [],
      "name": "name",
      "outputs": [
        {
          "internalType": "string",
          "name": "",
          "type": "string"
        }
      ],
      "stateMutability": "pure",
      "type": "function"
    }
  ],
  "bytecode": "0x608060405234801561001057600080fd5b5061027b806100206000396000f3fe608060405234801561001057600080fd5b50600436106100365760003560e01c806306fdde031461003b578063783b406414610083575b600080fd5b604080518082018252600981527f42616c616e63654f6600000000000000000000000000000000000000000000006020820152905161007a9190610156565b60405180910390f35b6100966100913660046101d4565b6100b3565b6040516bffffffffffffffffffffffff909116815260200161007a565b6040517f782d6fe100000000000000000000000000000000000000000000000000000000815273ffffffffffffffffffffffffffffffffffffffff8381166004830152602482018390526000919085169063782d6fe190604401602060405180830381865afa15801561012a573d6000803e3d6000fd5b505050506040513d601f19601f8201168201806040525081019061014e9190610210565b949350505050565b600060208083528351808285015260005b8181101561018357858101830151858201604001528201610167565b81811115610195576000604083870101525b50601f01601f1916929092016040019392505050565b803573ffffffffffffffffffffffffffffffffffffffff811681146101cf57600080fd5b919050565b6000806000606084860312156101e957600080fd5b6101f2846101ab565b9250610200602085016101ab565b9150604084013590509250925092565b60006020828403121561022257600080fd5b81516bffffffffffffffffffffffff8116811461023e57600080fd5b939250505056fea264697066735822122029b5b546bac1a15a1178520e4434976b476f13177ee129384f2fe59af4a48c4b64736f6c634300080e0033",
  "linkReferences": {},
  "deployedLinkReferences": {}
}