{
  "_format": "hh-sol-artifact-1",
  "contractName": "BalanceOfCompStrategy",
  "sourceName": "contracts/Module/strategies/BalanceOfCompStrategy.sol",
  "abi": [
    {
      "inputs": [
        {
          "internalType": "address",
          "name": "ref",
          "type": "address"
        },
        {
          "internalType": "address",
          "name": "account",
          "type": "address"
        },
        {
          "internalType": "uint256",
          "name": "blockNumber",
          "type": "uint256"
        }
      ],
      "name": "getPastVotes",
      "outputs": [
        {
          "internalType": "uint256",
          "name": "",
          "type": "uint256"
        }
      ],
      "stateMutability": "view",
      "type": "function"
    },
    {
      "inputs": [],
      "name": "name",
      "outputs": [
        {
          "internalType": "string",
          "name": "",
          "type": "string"
        }
      ],
      "stateMutability": "pure",
      "type": "function"
    }
  ],
  "bytecode": "0x608060405234801561001057600080fd5b5061027a806100206000396000f3fe608060405234801561001057600080fd5b50600436106100365760003560e01c806306fdde031461003b5780639e2ea51914610083575b600080fd5b604080518082018252600d81527f436f6d7042616c616e63654f66000000000000000000000000000000000000006020820152905161007a9190610155565b60405180910390f35b6100966100913660046101d3565b6100a4565b60405190815260200161007a565b6040517f782d6fe100000000000000000000000000000000000000000000000000000000815273ffffffffffffffffffffffffffffffffffffffff8381166004830152602482018390526000919085169063782d6fe190604401602060405180830381865afa15801561011b573d6000803e3d6000fd5b505050506040513d601f19601f8201168201806040525081019061013f919061020f565b6bffffffffffffffffffffffff16949350505050565b600060208083528351808285015260005b8181101561018257858101830151858201604001528201610166565b81811115610194576000604083870101525b50601f01601f1916929092016040019392505050565b803573ffffffffffffffffffffffffffffffffffffffff811681146101ce57600080fd5b919050565b6000806000606084860312156101e857600080fd5b6101f1846101aa565b92506101ff602085016101aa565b9150604084013590509250925092565b60006020828403121561022157600080fd5b81516bffffffffffffffffffffffff8116811461023d57600080fd5b939250505056fea26469706673582212209ec4521887c4c134964caf7e903237e4f323e70bf01680333f1f0888d1e12ecf64736f6c634300080e0033",
  "linkReferences": {},
  "deployedLinkReferences": {}
}